{
  "address": "0x28352C9bCa233B2125058ac561DC47fB89e3C432",
  "abi": [
    {
      "inputs": [
        {
          "internalType": "address",
          "name": "target",
          "type": "address"
        }
      ],
      "name": "AddressEmptyCode",
      "type": "error"
    },
    {
      "inputs": [
        {
          "internalType": "address",
          "name": "implementation",
          "type": "address"
        }
      ],
      "name": "ERC1967InvalidImplementation",
      "type": "error"
    },
    {
      "inputs": [],
      "name": "ERC1967NonPayable",
      "type": "error"
    },
    {
      "inputs": [],
      "name": "EnforcedPause",
      "type": "error"
    },
    {
      "inputs": [],
      "name": "ExpectedPause",
      "type": "error"
    },
    {
      "inputs": [],
      "name": "FailedInnerCall",
      "type": "error"
    },
    {
      "inputs": [
        {
          "internalType": "address",
          "name": "savedEndpoint",
          "type": "address"
        },
        {
          "internalType": "address",
          "name": "realEndpoint",
          "type": "address"
        }
      ],
      "name": "InvalidEnpoint",
      "type": "error"
    },
    {
      "inputs": [],
      "name": "InvalidInitialization",
      "type": "error"
    },
    {
      "inputs": [],
      "name": "NotInitializing",
      "type": "error"
    },
    {
      "inputs": [
        {
          "internalType": "address",
          "name": "sender",
          "type": "address"
        }
      ],
      "name": "NotLocalComposeMsgSender",
      "type": "error"
    },
    {
      "inputs": [
        {
          "internalType": "uint32",
          "name": "eid",
          "type": "uint32"
        },
        {
          "internalType": "address",
          "name": "sender",
          "type": "address"
        }
      ],
      "name": "NotRemoteComposeMsgSender",
      "type": "error"
    },
    {
      "inputs": [
        {
          "internalType": "address",
          "name": "owner",
          "type": "address"
        }
      ],
      "name": "OwnableInvalidOwner",
      "type": "error"
    },
    {
      "inputs": [
        {
          "internalType": "address",
          "name": "account",
          "type": "address"
        }
      ],
      "name": "OwnableUnauthorizedAccount",
      "type": "error"
    },
    {
      "inputs": [],
      "name": "UUPSUnauthorizedCallContext",
      "type": "error"
    },
    {
      "inputs": [
        {
          "internalType": "bytes32",
          "name": "slot",
          "type": "bytes32"
        }
      ],
      "name": "UUPSUnsupportedProxiableUUID",
      "type": "error"
    },
    {
      "anonymous": false,
      "inputs": [
        {
          "indexed": true,
          "internalType": "uint256",
          "name": "chainId",
          "type": "uint256"
        },
        {
          "indexed": true,
          "internalType": "uint32",
          "name": "domainId",
          "type": "uint32"
        },
        {
          "indexed": true,
          "internalType": "address",
          "name": "mintRecipient",
          "type": "address"
        },
        {
          "indexed": false,
          "internalType": "uint256",
          "name": "amount",
          "type": "uint256"
        }
      ],
      "name": "BurnUSDC",
      "type": "event"
    },
    {
      "anonymous": false,
      "inputs": [
        {
          "indexed": true,
          "internalType": "uint256",
          "name": "chainId",
          "type": "uint256"
        },
        {
          "indexed": true,
          "internalType": "address",
          "name": "staker",
          "type": "address"
        },
        {
          "indexed": false,
          "internalType": "uint256",
          "name": "amount",
          "type": "uint256"
        }
      ],
      "name": "Claimed",
      "type": "event"
    },
    {
      "anonymous": false,
      "inputs": [
        {
          "indexed": true,
          "internalType": "address",
          "name": "composeMsgSender",
          "type": "address"
        },
        {
          "indexed": false,
          "internalType": "bool",
          "name": "allowed",
          "type": "bool"
        }
      ],
      "name": "ComposeMsgSenderSet",
      "type": "event"
    },
    {
      "anonymous": false,
      "inputs": [
        {
          "indexed": true,
          "internalType": "uint256",
          "name": "chainId",
          "type": "uint256"
        },
        {
          "indexed": false,
          "internalType": "uint32",
          "name": "eid",
          "type": "uint32"
        }
      ],
      "name": "EidSet",
      "type": "event"
    },
    {
      "anonymous": false,
      "inputs": [
        {
          "indexed": true,
          "internalType": "address",
          "name": "endpoint",
          "type": "address"
        }
      ],
      "name": "EndpointSet",
      "type": "event"
    },
    {
      "anonymous": false,
      "inputs": [
        {
          "indexed": false,
          "internalType": "uint64",
          "name": "version",
          "type": "uint64"
        }
      ],
      "name": "Initialized",
      "type": "event"
    },
    {
      "anonymous": false,
      "inputs": [],
      "name": "MintUSDC",
      "type": "event"
    },
    {
      "anonymous": false,
      "inputs": [
        {
          "indexed": true,
          "internalType": "address",
          "name": "oft",
          "type": "address"
        }
      ],
      "name": "OftSet",
      "type": "event"
    },
    {
      "anonymous": false,
      "inputs": [
        {
          "indexed": true,
          "internalType": "address",
          "name": "previousOwner",
          "type": "address"
        },
        {
          "indexed": true,
          "internalType": "address",
          "name": "newOwner",
          "type": "address"
        }
      ],
      "name": "OwnershipTransferred",
      "type": "event"
    },
    {
      "anonymous": false,
      "inputs": [
        {
          "indexed": false,
          "internalType": "address",
          "name": "account",
          "type": "address"
        }
      ],
      "name": "Paused",
      "type": "event"
    },
    {
      "anonymous": false,
      "inputs": [
        {
          "indexed": true,
          "internalType": "uint256",
          "name": "chainId",
          "type": "uint256"
        },
        {
          "indexed": true,
          "internalType": "address",
          "name": "staker",
          "type": "address"
        },
        {
          "indexed": false,
          "internalType": "uint256",
          "name": "amount",
          "type": "uint256"
        }
      ],
      "name": "RewardClaimed",
      "type": "event"
    },
    {
      "anonymous": false,
      "inputs": [
        {
          "indexed": true,
          "internalType": "uint256",
          "name": "chainId",
          "type": "uint256"
        },
        {
          "indexed": true,
          "internalType": "address",
          "name": "staker",
          "type": "address"
        },
        {
          "indexed": false,
          "internalType": "uint256",
          "name": "amount",
          "type": "uint256"
        }
      ],
      "name": "RewardSent",
      "type": "event"
    },
    {
      "anonymous": false,
      "inputs": [
        {
          "indexed": true,
          "internalType": "uint256",
          "name": "chainId",
          "type": "uint256"
        },
        {
          "indexed": true,
          "internalType": "address",
          "name": "staker",
          "type": "address"
        },
        {
          "indexed": false,
          "internalType": "uint256",
          "name": "amount",
          "type": "uint256"
        }
      ],
      "name": "Staked",
      "type": "event"
    },
    {
      "anonymous": false,
      "inputs": [
        {
          "indexed": true,
          "internalType": "uint256",
          "name": "chainId",
          "type": "uint256"
        },
        {
          "indexed": true,
          "internalType": "address",
          "name": "staker",
          "type": "address"
        },
        {
          "indexed": false,
          "internalType": "uint256",
          "name": "amount",
          "type": "uint256"
        }
      ],
      "name": "TokenStaked",
      "type": "event"
    },
    {
      "anonymous": false,
      "inputs": [
        {
          "indexed": true,
          "internalType": "uint256",
          "name": "chainId",
          "type": "uint256"
        },
        {
          "indexed": true,
          "internalType": "address",
          "name": "staker",
          "type": "address"
        },
        {
          "indexed": false,
          "internalType": "uint256",
          "name": "amount",
          "type": "uint256"
        }
      ],
      "name": "TokenUnstaked",
      "type": "event"
    },
    {
      "anonymous": false,
      "inputs": [
        {
          "indexed": true,
          "internalType": "uint256",
          "name": "chainId",
          "type": "uint256"
        },
        {
          "indexed": true,
          "internalType": "address",
          "name": "staker",
          "type": "address"
        },
        {
          "indexed": false,
          "internalType": "uint256",
          "name": "amount",
          "type": "uint256"
        }
      ],
      "name": "TokenWithdrawn",
      "type": "event"
    },
    {
      "anonymous": false,
      "inputs": [
        {
          "indexed": false,
          "internalType": "address",
          "name": "account",
          "type": "address"
        }
      ],
      "name": "Unpaused",
      "type": "event"
    },
    {
      "anonymous": false,
      "inputs": [
        {
          "indexed": true,
          "internalType": "uint256",
          "name": "chainId",
          "type": "uint256"
        },
        {
          "indexed": true,
          "internalType": "address",
          "name": "staker",
          "type": "address"
        },
        {
          "indexed": false,
          "internalType": "uint256",
          "name": "amount",
          "type": "uint256"
        }
      ],
      "name": "Unstaked",
      "type": "event"
    },
    {
      "anonymous": false,
      "inputs": [
        {
          "indexed": true,
          "internalType": "address",
          "name": "implementation",
          "type": "address"
        }
      ],
      "name": "Upgraded",
      "type": "event"
    },
    {
      "anonymous": false,
      "inputs": [
        {
          "indexed": true,
          "internalType": "uint256",
          "name": "chainId",
          "type": "uint256"
        },
        {
          "indexed": true,
          "internalType": "address",
          "name": "staker",
          "type": "address"
        },
        {
          "indexed": false,
          "internalType": "uint256",
          "name": "amount",
          "type": "uint256"
        }
      ],
      "name": "Withdrawn",
      "type": "event"
    },
    {
      "stateMutability": "payable",
      "type": "fallback"
    },
    {
      "inputs": [],
      "name": "STAKE_REWARD_RATE",
      "outputs": [
        {
          "internalType": "uint256",
          "name": "",
          "type": "uint256"
        }
      ],
      "stateMutability": "view",
      "type": "function"
    },
    {
      "inputs": [],
      "name": "UNSTAKE_PERIOD",
      "outputs": [
        {
          "internalType": "uint256",
          "name": "",
          "type": "uint256"
        }
      ],
      "stateMutability": "view",
      "type": "function"
    },
    {
      "inputs": [],
      "name": "UPGRADE_INTERFACE_VERSION",
      "outputs": [
        {
          "internalType": "string",
          "name": "",
          "type": "string"
        }
      ],
      "stateMutability": "view",
      "type": "function"
    },
    {
      "inputs": [],
      "name": "backend",
      "outputs": [
        {
          "internalType": "address",
          "name": "",
          "type": "address"
        }
      ],
      "stateMutability": "view",
      "type": "function"
    },
    {
      "inputs": [
        {
          "internalType": "uint256",
          "name": "_chainId",
          "type": "uint256"
        },
        {
          "internalType": "address",
          "name": "_mintRecipient",
          "type": "address"
        },
        {
          "internalType": "uint256",
          "name": "_amount",
          "type": "uint256"
        }
      ],
      "name": "burnUSDC",
      "outputs": [],
      "stateMutability": "nonpayable",
      "type": "function"
    },
    {
      "inputs": [
        {
          "internalType": "uint256",
          "name": "",
          "type": "uint256"
        }
      ],
      "name": "chainId2DomainId",
      "outputs": [
        {
          "internalType": "uint32",
          "name": "",
          "type": "uint32"
        }
      ],
      "stateMutability": "view",
      "type": "function"
    },
    {
      "inputs": [
        {
          "internalType": "uint256",
          "name": "",
          "type": "uint256"
        }
      ],
      "name": "chainId2Eid",
      "outputs": [
        {
          "internalType": "uint32",
          "name": "",
          "type": "uint32"
        }
      ],
      "stateMutability": "view",
      "type": "function"
    },
    {
      "inputs": [
        {
          "internalType": "uint32",
          "name": "",
          "type": "uint32"
        }
      ],
      "name": "domainId2ChainId",
      "outputs": [
        {
          "internalType": "uint256",
          "name": "",
          "type": "uint256"
        }
      ],
      "stateMutability": "view",
      "type": "function"
    },
    {
      "inputs": [
        {
          "internalType": "uint32",
          "name": "",
          "type": "uint32"
        }
      ],
      "name": "eid2ChainId",
      "outputs": [
        {
          "internalType": "uint256",
          "name": "",
          "type": "uint256"
        }
      ],
      "stateMutability": "view",
      "type": "function"
    },
    {
      "inputs": [],
      "name": "getTotalStakedAmount",
      "outputs": [
        {
          "internalType": "uint256",
          "name": "",
          "type": "uint256"
        }
      ],
      "stateMutability": "view",
      "type": "function"
    },
    {
      "inputs": [
        {
          "internalType": "address",
          "name": "_staker",
          "type": "address"
        }
      ],
      "name": "getUserReward",
      "outputs": [
        {
          "internalType": "uint256",
          "name": "",
          "type": "uint256"
        }
      ],
      "stateMutability": "view",
      "type": "function"
    },
    {
      "inputs": [
        {
          "internalType": "address",
          "name": "_staker",
          "type": "address"
        }
      ],
      "name": "getUserStakeInfo",
      "outputs": [
        {
          "components": [
            {
              "internalType": "uint256",
              "name": "stakeAmount",
              "type": "uint256"
            },
            {
              "internalType": "uint256",
              "name": "stakeReward",
              "type": "uint256"
            },
            {
              "internalType": "uint256",
              "name": "lastStakeTime",
              "type": "uint256"
            },
            {
              "internalType": "uint256",
              "name": "lastUnstakeTime",
              "type": "uint256"
            }
          ],
          "internalType": "struct StakeUpgradeable.StakeInfo",
          "name": "",
          "type": "tuple"
        }
      ],
      "stateMutability": "view",
      "type": "function"
    },
    {
      "inputs": [
        {
          "internalType": "address",
          "name": "_staker",
          "type": "address"
        }
      ],
      "name": "getUserUnstakeLockTime",
      "outputs": [
        {
          "internalType": "uint256",
          "name": "",
          "type": "uint256"
        }
      ],
      "stateMutability": "view",
      "type": "function"
    },
    {
      "inputs": [
        {
          "internalType": "address",
          "name": "_owner",
          "type": "address"
        }
      ],
      "name": "initialize",
      "outputs": [],
      "stateMutability": "nonpayable",
      "type": "function"
    },
    {
      "inputs": [
        {
          "internalType": "address",
          "name": "",
          "type": "address"
        }
      ],
      "name": "localComposeMsgSender",
      "outputs": [
        {
          "internalType": "bool",
          "name": "",
          "type": "bool"
        }
      ],
      "stateMutability": "view",
      "type": "function"
    },
    {
      "inputs": [
        {
          "internalType": "address",
          "name": "_from",
          "type": "address"
        },
        {
          "internalType": "bytes32",
          "name": "",
          "type": "bytes32"
        },
        {
          "internalType": "bytes",
          "name": "_message",
          "type": "bytes"
        },
        {
          "internalType": "address",
          "name": "",
          "type": "address"
        },
        {
          "internalType": "bytes",
          "name": "",
          "type": "bytes"
        }
      ],
      "name": "lzCompose",
      "outputs": [],
      "stateMutability": "payable",
      "type": "function"
    },
    {
      "inputs": [
        {
          "internalType": "enum LzMessageLib.PayloadTypes",
          "name": "",
          "type": "uint8"
        }
      ],
      "name": "lzOptions",
      "outputs": [
        {
          "internalType": "uint128",
          "name": "gas",
          "type": "uint128"
        },
        {
          "internalType": "uint128",
          "name": "value",
          "type": "uint128"
        }
      ],
      "stateMutability": "view",
      "type": "function"
    },
    {
      "inputs": [],
      "name": "messageTransmitter",
      "outputs": [
        {
          "internalType": "contract IMessageTransmitter",
          "name": "",
          "type": "address"
        }
      ],
      "stateMutability": "view",
      "type": "function"
    },
    {
      "inputs": [],
      "name": "oft",
      "outputs": [
        {
          "internalType": "address",
          "name": "",
          "type": "address"
        }
      ],
      "stateMutability": "view",
      "type": "function"
    },
    {
      "inputs": [],
      "name": "owner",
      "outputs": [
        {
          "internalType": "address",
          "name": "",
          "type": "address"
        }
      ],
      "stateMutability": "view",
      "type": "function"
    },
    {
      "inputs": [],
      "name": "pause",
      "outputs": [],
      "stateMutability": "nonpayable",
      "type": "function"
    },
    {
      "inputs": [],
      "name": "paused",
      "outputs": [
        {
          "internalType": "bool",
          "name": "",
          "type": "bool"
        }
      ],
      "stateMutability": "view",
      "type": "function"
    },
    {
      "inputs": [],
      "name": "proxiableUUID",
      "outputs": [
        {
          "internalType": "bytes32",
          "name": "",
          "type": "bytes32"
        }
      ],
      "stateMutability": "view",
      "type": "function"
    },
    {
      "inputs": [
        {
          "internalType": "uint32",
          "name": "",
          "type": "uint32"
        },
        {
          "internalType": "address",
          "name": "",
          "type": "address"
        }
      ],
      "name": "remoteComposeMsgSender",
      "outputs": [
        {
          "internalType": "bool",
          "name": "",
          "type": "bool"
        }
      ],
      "stateMutability": "view",
      "type": "function"
    },
    {
      "inputs": [],
      "name": "renounceOwnership",
      "outputs": [],
      "stateMutability": "nonpayable",
      "type": "function"
    },
    {
      "inputs": [
        {
          "internalType": "uint32",
          "name": "_domainId",
          "type": "uint32"
        },
        {
          "internalType": "bytes",
          "name": "_message",
          "type": "bytes"
        },
        {
          "internalType": "bytes",
          "name": "_attestation",
          "type": "bytes"
        }
      ],
      "name": "sendReward",
      "outputs": [],
      "stateMutability": "nonpayable",
      "type": "function"
    },
    {
      "inputs": [
        {
          "internalType": "address",
          "name": "_backend",
          "type": "address"
        }
      ],
      "name": "setBackend",
      "outputs": [],
      "stateMutability": "nonpayable",
      "type": "function"
    },
    {
      "inputs": [
        {
          "internalType": "uint256",
          "name": "_chainId",
          "type": "uint256"
        },
        {
          "internalType": "uint32",
          "name": "_domainId",
          "type": "uint32"
        }
      ],
      "name": "setCCTPDomainId",
      "outputs": [],
      "stateMutability": "nonpayable",
      "type": "function"
    },
    {
      "inputs": [
        {
          "internalType": "uint256",
          "name": "_chainId",
          "type": "uint256"
        },
        {
          "internalType": "uint32",
          "name": "_eid",
          "type": "uint32"
        }
      ],
      "name": "setEid",
      "outputs": [],
      "stateMutability": "nonpayable",
      "type": "function"
    },
    {
      "inputs": [
        {
          "internalType": "address",
          "name": "_addr",
          "type": "address"
        },
        {
          "internalType": "bool",
          "name": "_allowed",
          "type": "bool"
        }
      ],
      "name": "setLocalComposeMsgSender",
      "outputs": [],
      "stateMutability": "nonpayable",
      "type": "function"
    },
    {
      "inputs": [
        {
          "internalType": "address",
          "name": "_messageTransmitter",
          "type": "address"
        }
      ],
      "name": "setMessageTransmitter",
      "outputs": [],
      "stateMutability": "nonpayable",
      "type": "function"
    },
    {
      "inputs": [
        {
          "internalType": "address",
          "name": "_oft",
          "type": "address"
        }
      ],
      "name": "setOft",
      "outputs": [],
      "stateMutability": "nonpayable",
      "type": "function"
    },
    {
      "inputs": [
        {
          "internalType": "uint8",
          "name": "_payloadType",
          "type": "uint8"
        },
        {
          "internalType": "uint128",
          "name": "_gas",
          "type": "uint128"
        },
        {
          "internalType": "uint128",
          "name": "_value",
          "type": "uint128"
        }
      ],
      "name": "setPayloadOptions",
      "outputs": [],
      "stateMutability": "nonpayable",
      "type": "function"
    },
    {
      "inputs": [
        {
          "internalType": "uint32",
          "name": "_eid",
          "type": "uint32"
        },
        {
          "internalType": "address",
          "name": "_addr",
          "type": "address"
        },
        {
          "internalType": "bool",
          "name": "_allowed",
          "type": "bool"
        }
      ],
      "name": "setRemoteComposeMsgSender",
      "outputs": [],
      "stateMutability": "nonpayable",
      "type": "function"
    },
    {
      "inputs": [
        {
          "internalType": "address",
          "name": "_tokenMessager",
          "type": "address"
        }
      ],
      "name": "setTokenMessager",
      "outputs": [],
      "stateMutability": "nonpayable",
      "type": "function"
    },
    {
      "inputs": [
        {
          "internalType": "address",
          "name": "_usdc",
          "type": "address"
        }
      ],
      "name": "setUSDC",
      "outputs": [],
      "stateMutability": "nonpayable",
      "type": "function"
    },
    {
      "inputs": [
        {
          "internalType": "uint256",
          "name": "_chainId",
          "type": "uint256"
        },
        {
          "internalType": "address",
          "name": "_waiter",
          "type": "address"
        }
      ],
      "name": "setWaiter",
      "outputs": [],
      "stateMutability": "nonpayable",
      "type": "function"
    },
    {
      "inputs": [],
      "name": "tokenMessager",
      "outputs": [
        {
          "internalType": "contract ITokenMessenger",
          "name": "",
          "type": "address"
        }
      ],
      "stateMutability": "view",
      "type": "function"
    },
    {
      "inputs": [],
      "name": "totalStakedAmount",
      "outputs": [
        {
          "internalType": "uint256",
          "name": "",
          "type": "uint256"
        }
      ],
      "stateMutability": "view",
      "type": "function"
    },
    {
      "inputs": [
        {
          "internalType": "address",
          "name": "newOwner",
          "type": "address"
        }
      ],
      "name": "transferOwnership",
      "outputs": [],
      "stateMutability": "nonpayable",
      "type": "function"
    },
    {
      "inputs": [],
      "name": "unpause",
      "outputs": [],
      "stateMutability": "nonpayable",
      "type": "function"
    },
    {
      "inputs": [
        {
          "internalType": "address",
          "name": "newImplementation",
          "type": "address"
        },
        {
          "internalType": "bytes",
          "name": "data",
          "type": "bytes"
        }
      ],
      "name": "upgradeToAndCall",
      "outputs": [],
      "stateMutability": "payable",
      "type": "function"
    },
    {
      "inputs": [],
      "name": "usdc",
      "outputs": [
        {
          "internalType": "address",
          "name": "",
          "type": "address"
        }
      ],
      "stateMutability": "view",
      "type": "function"
    },
    {
      "inputs": [
        {
          "internalType": "address",
          "name": "",
          "type": "address"
        }
      ],
      "name": "userStakeInfo",
      "outputs": [
        {
          "internalType": "uint256",
          "name": "stakeAmount",
          "type": "uint256"
        },
        {
          "internalType": "uint256",
          "name": "stakeReward",
          "type": "uint256"
        },
        {
          "internalType": "uint256",
          "name": "lastStakeTime",
          "type": "uint256"
        },
        {
          "internalType": "uint256",
          "name": "lastUnstakeTime",
          "type": "uint256"
        }
      ],
      "stateMutability": "view",
      "type": "function"
    },
    {
      "inputs": [
        {
          "internalType": "uint256",
          "name": "",
          "type": "uint256"
        }
      ],
      "name": "waiters",
      "outputs": [
        {
          "internalType": "address",
          "name": "",
          "type": "address"
        }
      ],
      "stateMutability": "view",
      "type": "function"
    },
    {
      "stateMutability": "payable",
      "type": "receive"
    }
  ],
  "transactionHash": "0x0a3cfde843fa7d58057542e0d5b0bdc44a0bc59ded9b417f4771a456ccf93bc0",
  "args": [],
  "numDeployments": 1,
  "solcInputHash": "a83533e1c2890cd9b0ae7ee13dd39ed3",
  "bytecode": "0x60a06040523060805234801561001457600080fd5b50608051612f4761003e600039600081816112dc0152818161130501526114460152612f476000f3fe60806040526004361061025e5760003560e01c8063904b25eb11610143578063c4d66de8116100bb578063df0ab3d811610077578063df0ab3d81461089d578063e2dfa130146108bd578063e5feda39146108dd578063f29e8d2c146108fd578063f2fde38b1461091d578063fe8e9c1f1461093d57005b8063c4d66de8146107ea578063c75ebb821461080a578063d0a102601461082a578063d7dd0b2b1461083d578063da7fc24f1461085d578063dc9e80a41461087d57005b8063ad3cb1cc1161010a578063ad3cb1cc146106b9578063ad7fdf51146106f7578063b223331c14610717578063b23bd54b14610744578063b3e089a214610777578063c32d3ae21461079757005b8063904b25eb146105c257806395b410e41461062357806396ac1800146106435780639b5215f614610663578063a6eaa06d1461068357005b8063567e98f9116101d657806379b578621161019d57806379b57862146105065780637a7f2bb81461051b5780637b04c1811461053b5780638456cb591461055b5780638da5cb5b146105705780638f261a62146105ad57005b8063567e98f91461044e57806358851ca1146104645780635c975abb146104ac57806364f82aa4146104d1578063715018a6146104f157005b806338adb6f01161022557806338adb6f01461037a5780633e413bee1461038f5780633f4ba83a146103af5780634ead4327146103c45780634f1ef2861461042657806352d1902d1461043957005b8063099e4133146102675780630cff4e06146102a45780630e1b8b18146102e457806329059e831461030457806332c352541461033f57005b3661026557005b005b34801561027357600080fd5b50609554610287906001600160a01b031681565b6040516001600160a01b0390911681526020015b60405180910390f35b3480156102b057600080fd5b506102d46102bf3660046123b3565b60006020819052908152604090205460ff1681565b604051901515815260200161029b565b3480156102f057600080fd5b506102656102ff3660046123d0565b61095d565b34801561031057600080fd5b5061033161031f366004612419565b60346020526000908152604090205481565b60405190815260200161029b565b34801561034b57600080fd5b506102d461035a366004612434565b600160209081526000928352604080842090915290825290205460ff1681565b34801561038657600080fd5b50606454610331565b34801561039b57600080fd5b50603554610287906001600160a01b031681565b3480156103bb57600080fd5b50610265610993565b3480156103d057600080fd5b506104066103df3660046123b3565b60636020526000908152604090208054600182015460028301546003909301549192909184565b60408051948552602085019390935291830152606082015260800161029b565b6102656104343660046124f8565b6109a5565b34801561044557600080fd5b506103316109c4565b34801561045a57600080fd5b5061033160645481565b34801561047057600080fd5b5061049761047f36600461258b565b60026020526000908152604090205463ffffffff1681565b60405163ffffffff909116815260200161029b565b3480156104b857600080fd5b50600080516020612ef28339815191525460ff166102d4565b3480156104dd57600080fd5b506102656104ec3660046123b3565b6109e1565b3480156104fd57600080fd5b50610265610a0b565b34801561051257600080fd5b50610331600f81565b34801561052757600080fd5b506102656105363660046125ca565b610a1d565b34801561054757600080fd5b50603254610287906001600160a01b031681565b34801561056757600080fd5b50610265610abd565b34801561057c57600080fd5b507f9016d09d72d40fdae2fd8ceac6b6234c7706214fd39c1cd1e609a0528c199300546001600160a01b0316610287565b3480156105b957600080fd5b50610331606481565b3480156105ce57600080fd5b506106036105dd36600461260f565b6004602052600090815260409020546001600160801b0380821691600160801b90041682565b604080516001600160801b0393841681529290911660208301520161029b565b34801561062f57600080fd5b5061026561063e36600461263e565b610acd565b34801561064f57600080fd5b5061026561065e36600461266c565b610b00565b34801561066f57600080fd5b50600554610287906001600160a01b031681565b34801561068f57600080fd5b5061028761069e36600461258b565b6094602052600090815260409020546001600160a01b031681565b3480156106c557600080fd5b506106ea604051806040016040528060058152602001640352e302e360dc1b81525081565b60405161029b91906126e8565b34801561070357600080fd5b50610265610712366004612744565b610b3b565b34801561072357600080fd5b50610331610732366004612419565b60036020526000908152604090205481565b34801561075057600080fd5b5061049761075f36600461258b565b60336020526000908152604090205463ffffffff1681565b34801561078357600080fd5b506102656107923660046123b3565b610c39565b3480156107a357600080fd5b506107b76107b23660046123b3565b610c63565b60405161029b91908151815260208083015190820152604080830151908201526060918201519181019190915260800190565b3480156107f657600080fd5b506102656108053660046123b3565b610cdc565b34801561081657600080fd5b506103316108253660046123b3565b610dfc565b6102656108383660046127c5565b610e0d565b34801561084957600080fd5b506102656108583660046123b3565b610fdf565b34801561086957600080fd5b506102656108783660046123b3565b611009565b34801561088957600080fd5b50610265610898366004612866565b611033565b3480156108a957600080fd5b506102656108b83660046128af565b611078565b3480156108c957600080fd5b50603154610287906001600160a01b031681565b3480156108e957600080fd5b506103316108f83660046123b3565b6110b2565b34801561090957600080fd5b506102656109183660046123b3565b611173565b34801561092957600080fd5b506102656109383660046123b3565b61119d565b34801561094957600080fd5b5061026561095836600461266c565b6111db565b610965611216565b60009182526094602052604090912080546001600160a01b0319166001600160a01b03909216919091179055565b61099b611216565b6109a3611271565b565b6109ad6112d1565b6109b682611376565b6109c0828261137e565b5050565b60006109ce61143b565b50600080516020612ed283398151915290565b6109e9611216565b603280546001600160a01b0319166001600160a01b0392909216919091179055565b610a13611216565b6109a36000611484565b610a25611216565b6040518060400160405280836001600160801b03168152602001826001600160801b0316815250600460008560ff166007811115610a6557610a656128e7565b6007811115610a7657610a766128e7565b6007811115610a8757610a876128e7565b8152602080820192909252604001600020825192909101516001600160801b03908116600160801b029216919091179055505050565b610ac5611216565b6109a36114f5565b610ad5611216565b6001600160a01b03919091166000908152602081905260409020805460ff1916911515919091179055565b610b08611216565b6000828152603360209081526040808320805463ffffffff90951663ffffffff1990951685179055928252603490522055565b6095546001600160a01b03163314610b6e5760405162461bcd60e51b8152600401610b65906128fd565b60405180910390fd5b63ffffffff851660009081526034602090815260408083205480845260948352818420548251601f890185900485028101850190935287835290936001600160a01b03909116929091610c0f91899089908190840183828082843760009201919091525050604080516020601f8b01819004810282018101909252898152925089915088908190840183828082843760009201919091525061153e92505050565b90506000610c1f60065b8361156a565b9050610c2e84848360006115aa565b505050505050505050565b610c41611216565b603580546001600160a01b0319166001600160a01b0392909216919091179055565b610c8e6040518060800160405280600081526020016000815260200160008152602001600081525090565b506001600160a01b0316600090815260636020908152604091829020825160808101845281548152600182015492810192909252600281015492820192909252600390910154606082015290565b7ff0c57e16840df040f15088dc2f81fe391c3923bec73e23a9662efc9c229c6a008054600160401b810460ff16159067ffffffffffffffff16600081158015610d225750825b905060008267ffffffffffffffff166001148015610d3f5750303b155b905081158015610d4d575080155b15610d6b5760405163f92ee8a960e01b815260040160405180910390fd5b845467ffffffffffffffff191660011785558315610d9557845460ff60401b1916600160401b1785555b610d9d611703565b610da68661170b565b610dae61171c565b8315610df457845460ff60401b19168555604051600181527fc7f505b2f371ae2175ee4913f4499e1f2633a7b5936321eed1cdaeb6115181d29060200160405180910390a15b505050505050565b6000610e078261172c565b92915050565b610e156117f5565b6000610e218686611826565b90506000610e2f8787611871565b90506000610e43610e408989611894565b90565b9050610e51338b84846118ad565b506000610e5d84611a1f565b63ffffffff8416600090815260036020526040902054909150600160ff16826000015160ff1603610eb2576000610e978360200151611a48565b9050610eac8282600001518360200151611a97565b50610fd1565b815160ff1660011901610ede576000610ece8360200151611bee565b9050610eac828260000151611c32565b815160ff1660021901610f5d576000610efa8360200151611bee565b90506000610f0c838360000151611db4565b90506000610f1e836000015183611ea0565b90506000610f2c6004610c19565b600086815260946020526040902054909150610f549086906001600160a01b031683866115aa565b50505050610fd1565b815160ff1660041901610f89576000610f798360200151611bee565b9050610eac828260000151611ec3565b60405162461bcd60e51b815260206004820152601a60248201527f436865663a20496e76616c6964207061796c6f616420747970650000000000006044820152606401610b65565b505050505050505050505050565b610fe7611216565b603180546001600160a01b0319166001600160a01b0392909216919091179055565b611011611216565b609580546001600160a01b0319166001600160a01b0392909216919091179055565b61103b611216565b63ffffffff90921660009081526001602090815260408083206001600160a01b03909416835292905220805491151560ff19909216919091179055565b6095546001600160a01b031633146110a25760405162461bcd60e51b8152600401610b65906128fd565b6110ad838383611f3c565b505050565b6001600160a01b03811660009081526063602052604081206003015461112a5760405162461bcd60e51b815260206004820152602760248201527f5374616b653a204e6f20556e7374616b65207265717565737420696e2070726f60448201526663657373696e6760c81b6064820152608401610b65565b6001600160a01b0382166000908152606360205260408120600301546111509042612963565b9050600f811061116157600061116c565b61116c81600f612963565b9392505050565b61117b611216565b600580546001600160a01b0319166001600160a01b0392909216919091179055565b6111a5611216565b6001600160a01b0381166111cf57604051631e4fbdf760e01b815260006004820152602401610b65565b6111d881611484565b50565b6111e3611216565b6000828152600260209081526040808320805463ffffffff90951663ffffffff1990951685179055928252600390522055565b336112487f9016d09d72d40fdae2fd8ceac6b6234c7706214fd39c1cd1e609a0528c199300546001600160a01b031690565b6001600160a01b0316146109a35760405163118cdaa760e01b8152336004820152602401610b65565b6112796120f8565b600080516020612ef2833981519152805460ff191681557f5db9ee0a495bf2e6ff9c91a7834c1ba4fdd244a5e8aa4e537bd38aeae4b073aa335b6040516001600160a01b03909116815260200160405180910390a150565b306001600160a01b037f000000000000000000000000000000000000000000000000000000000000000016148061135857507f00000000000000000000000000000000000000000000000000000000000000006001600160a01b031661134c600080516020612ed2833981519152546001600160a01b031690565b6001600160a01b031614155b156109a35760405163703e46dd60e11b815260040160405180910390fd5b6111d8611216565b816001600160a01b03166352d1902d6040518163ffffffff1660e01b8152600401602060405180830381865afa9250505080156113d8575060408051601f3d908101601f191682019092526113d591810190612976565b60015b61140057604051634c9c8ce360e01b81526001600160a01b0383166004820152602401610b65565b600080516020612ed2833981519152811461143157604051632a87526960e21b815260048101829052602401610b65565b6110ad8383612128565b306001600160a01b037f000000000000000000000000000000000000000000000000000000000000000016146109a35760405163703e46dd60e11b815260040160405180910390fd5b7f9016d09d72d40fdae2fd8ceac6b6234c7706214fd39c1cd1e609a0528c19930080546001600160a01b031981166001600160a01b03848116918217845560405192169182907f8be0079c531659141344cd1fd0a4f28419497f9722a3daafe3b4186f6b6457e090600090a3505050565b6114fd6117f5565b600080516020612ef2833981519152805460ff191660011781557f62e78cea01bee320cd4e420270b5ea74000d11b0c9f74754ebdbfc544b05a258336112b3565b6060828260405160200161155392919061298f565b604051602081830303815290604052905092915050565b60408051808201825260ff8416815260208082018490529151606092611592918391016129b4565b60405160208183030381529060405291505092915050565b6040805160e0810182526000868152600260209081528382205463ffffffff1683526001600160a01b03878116828501528385018690526060840186905284518083018652838152608085015260a084018790528451918201855282825260c08401919091526005549351633b6f743b60e01b815292939192911690633b6f743b9061163c9085908590600401612a5a565b6040805180830381865afa158015611658573d6000803e3d6000fd5b505050506040513d601f19601f8201168201806040525081019061167c9190612aae565b600554815160405163c7c7f5b360e01b81529293506001600160a01b039091169163c7c7f5b391906116b690869086903090600401612aca565b60c06040518083038185885af11580156116d4573d6000803e3d6000fd5b50505050506040513d601f19601f820116820180604052508101906116f99190612b09565b5050505050505050565b6109a361217e565b61171361217e565b6111d8816121c7565b61172461217e565b6109a36121cf565b6001600160a01b0380821660009081526063602090815260408083206005548251630857749b60e41b815292519495919491169263857749b092600480820193918290030181865afa158015611786573d6000803e3d6000fd5b505050506040513d601f19601f820116820180604052508101906117aa9190612b94565b6117b590600a612c95565b60028201546117c49042612963565b82546117d290606490612ca4565b6117dc9190612ca4565b6117e69190612cbb565b816001015461116c9190612cdd565b600080516020612ef28339815191525460ff16156109a35760405163d93c066560e01b815260040160405180910390fd5b606061183582604c8186612cf0565b8080601f016020809104026020016040519081016040528093929190818152602001838380828437600092019190915250929695505050505050565b6000611881600c60088486612cf0565b61188a91612d1a565b60e01c9392505050565b60006118a4604c602c8486612cf0565b61116c91612d4a565b600080600560009054906101000a90046001600160a01b03166001600160a01b0316635e280f116040518163ffffffff1660e01b8152600401602060405180830381865afa158015611903573d6000803e3d6000fd5b505050506040513d601f19601f820116820180604052508101906119279190612d68565b9050856001600160a01b0316816001600160a01b03161461196e576040516308dfccd760e21b81526001600160a01b03808316600483015287166024820152604401610b65565b6001600160a01b03851660009081526020819052604090205460ff166119b25760405163078b3cc360e01b81526001600160a01b0386166004820152602401610b65565b63ffffffff841660009081526001602090815260408083206001600160a01b038716845290915290205460ff16611a13576040516363932e8560e11b815263ffffffff851660048201526001600160a01b0384166024820152604401610b65565b50600195945050505050565b60408051808201909152600081526060602082015281806020019051810190610e079190612d85565b604080518082019091526000808252602082015260008083806020019051810190611a739190612e43565b604080518082019091526001600160a01b0390921682526020820152949350505050565b6001600160a01b038083166000908152606360209081526040918290206005548351630857749b60e41b815293519194169263857749b09260048083019391928290030181865afa158015611af0573d6000803e3d6000fd5b505050506040513d601f19601f82011682018060405250810190611b149190612b94565b611b1f90600a612c95565b6002820154611b2e9042612963565b8254611b3c90606490612ca4565b611b469190612ca4565b611b509190612cbb565b816001016000828254611b639190612cdd565b9091555050805482908290600090611b7c908490612cdd565b909155505042600282015560006003820181905560648054849290611ba2908490612cdd565b90915550506040518281526001600160a01b0384169085907f18dcd430020e4d4899772fd94a8b40451dc5044dfb70bc46b532eeae431c864f906020015b60405180910390a350505050565b604080516020810190915260008152600082806020019051810190611c139190612d68565b60408051602081019091526001600160a01b0390911681529392505050565b6001600160a01b0381166000908152606360205260409020600381015415611c9c5760405162461bcd60e51b815260206004820152601760248201527f5374616b653a20616c726561647920756e7374616b65640000000000000000006044820152606401610b65565b600560009054906101000a90046001600160a01b03166001600160a01b031663857749b06040518163ffffffff1660e01b8152600401602060405180830381865afa158015611cef573d6000803e3d6000fd5b505050506040513d601f19601f82011682018060405250810190611d139190612b94565b611d1e90600a612c95565b6002820154611d2d9042612963565b8254611d3b90606490612ca4565b611d459190612ca4565b611d4f9190612cbb565b816001016000828254611d629190612cdd565b909155505042600382015580546040519081526001600160a01b0383169084907f37375b03d8924bd8f076f11f8411b9962aa5c02fb489021507bc6bb6f850e3659060200160405180910390a3505050565b6001600160a01b03811660009081526063602052604081206003810154600f90611dde9042612963565b1015611e2c5760405162461bcd60e51b815260206004820152601f60248201527f436865663a20556e7374616b6520706572696f64206e6f7420706173736564006044820152606401610b65565b80546000808355600283018190556003830181905560648054839290611e53908490612963565b90915550506040518181526001600160a01b0385169086907fcf7d23a3cbe4e8b36ff82fd1b05b1b17373dc7804b4ebbd6e2356716ef2023729060200160405180910390a3949350505050565b604080516001600160a01b03841660208201529081018290526060908101611553565b6001600160a01b038116600090815260636020526040812090611ee58361172c565b60006001840181905560038401559050611f00848483611f3c565b826001600160a01b0316847f4ec90e965519d92681267467f775ada5bd214aa92c0dc93d90a5e880ce9ed02683604051611be091815260200190565b611f446117f5565b60355460315460405163095ea7b360e01b81526001600160a01b0391821660048201526024810184905291169063095ea7b3906044016020604051808303816000875af1158015611f99573d6000803e3d6000fd5b505050506040513d601f19601f82011682018060405250810190611fbd9190612e71565b506031546000848152603360205260409020546103e8916101f4916001600160a01b0390911690638e0250ee90859063ffffffff16611ffb886121f0565b6035546001600160a01b031661201160006121f0565b6040516001600160e01b031960e088901b168152600481019590955263ffffffff938416602486015260448501929092526001600160a01b03166064840152608483015260a48201859052851660c482015260e401600060405180830381600087803b15801561208057600080fd5b505af1158015612094573d6000803e3d6000fd5b5050506000868152603360209081526040918290205491518681526001600160a01b038816935063ffffffff9092169188917f72a25f2a0fc7b5adb9053e06dc46bec5d1ceb541264f0ba8cff98cd64b6c345d910160405180910390a45050505050565b600080516020612ef28339815191525460ff166109a357604051638dfc202b60e01b815260040160405180910390fd5b6121318261221f565b6040516001600160a01b038316907fbc7cd75a20ee27fd9adebab32041f755214dbc6bffa90cc0225b39da2e5c2d3b90600090a2805115612176576110ad8282612284565b6109c06122fa565b7ff0c57e16840df040f15088dc2f81fe391c3923bec73e23a9662efc9c229c6a0054600160401b900460ff166109a357604051631afcd79f60e31b815260040160405180910390fd5b6111a561217e565b6121d761217e565b600080516020612ef2833981519152805460ff19169055565b604080516001600160a01b038316602082015260009101604051602081830303815290604052610e0790612e8e565b806001600160a01b03163b60000361225557604051634c9c8ce360e01b81526001600160a01b0382166004820152602401610b65565b600080516020612ed283398151915280546001600160a01b0319166001600160a01b0392909216919091179055565b6060600080846001600160a01b0316846040516122a19190612eb5565b600060405180830381855af49150503d80600081146122dc576040519150601f19603f3d011682016040523d82523d6000602084013e6122e1565b606091505b50915091506122f1858383612319565b95945050505050565b34156109a35760405163b398979f60e01b815260040160405180910390fd5b60608261232e5761232982612375565b61116c565b815115801561234557506001600160a01b0384163b155b1561236e57604051639996b31560e01b81526001600160a01b0385166004820152602401610b65565b5092915050565b8051156123855780518082602001fd5b604051630a12f52160e11b815260040160405180910390fd5b6001600160a01b03811681146111d857600080fd5b6000602082840312156123c557600080fd5b813561116c8161239e565b600080604083850312156123e357600080fd5b8235915060208301356123f58161239e565b809150509250929050565b803563ffffffff8116811461241457600080fd5b919050565b60006020828403121561242b57600080fd5b61116c82612400565b6000806040838503121561244757600080fd5b61245083612400565b915060208301356123f58161239e565b634e487b7160e01b600052604160045260246000fd5b6040805190810167ffffffffffffffff8111828210171561249957612499612460565b60405290565b604051601f8201601f1916810167ffffffffffffffff811182821017156124c8576124c8612460565b604052919050565b600067ffffffffffffffff8211156124ea576124ea612460565b50601f01601f191660200190565b6000806040838503121561250b57600080fd5b82356125168161239e565b9150602083013567ffffffffffffffff81111561253257600080fd5b8301601f8101851361254357600080fd5b8035612556612551826124d0565b61249f565b81815286602083850101111561256b57600080fd5b816020840160208301376000602083830101528093505050509250929050565b60006020828403121561259d57600080fd5b5035919050565b60ff811681146111d857600080fd5b80356001600160801b038116811461241457600080fd5b6000806000606084860312156125df57600080fd5b83356125ea816125a4565b92506125f8602085016125b3565b9150612606604085016125b3565b90509250925092565b60006020828403121561262157600080fd5b81356008811061116c57600080fd5b80151581146111d857600080fd5b6000806040838503121561265157600080fd5b823561265c8161239e565b915060208301356123f581612630565b6000806040838503121561267f57600080fd5b8235915061268f60208401612400565b90509250929050565b60005b838110156126b357818101518382015260200161269b565b50506000910152565b600081518084526126d4816020860160208601612698565b601f01601f19169290920160200192915050565b60208152600061116c60208301846126bc565b60008083601f84011261270d57600080fd5b50813567ffffffffffffffff81111561272557600080fd5b60208301915083602082850101111561273d57600080fd5b9250929050565b60008060008060006060868803121561275c57600080fd5b61276586612400565b9450602086013567ffffffffffffffff8082111561278257600080fd5b61278e89838a016126fb565b909650945060408801359150808211156127a757600080fd5b506127b4888289016126fb565b969995985093965092949392505050565b600080600080600080600060a0888a0312156127e057600080fd5b87356127eb8161239e565b965060208801359550604088013567ffffffffffffffff8082111561280f57600080fd5b61281b8b838c016126fb565b909750955060608a013591506128308261239e565b9093506080890135908082111561284657600080fd5b506128538a828b016126fb565b989b979a50959850939692959293505050565b60008060006060848603121561287b57600080fd5b61288484612400565b925060208401356128948161239e565b915060408401356128a481612630565b809150509250925092565b6000806000606084860312156128c457600080fd5b8335925060208401356128d68161239e565b929592945050506040919091013590565b634e487b7160e01b600052602160045260246000fd5b60208082526030908201527f4343545048616e646c65723a204f6e6c79206261636b656e642063616e20636160408201526f3636103a3434b990333ab731ba34b7b760811b606082015260800190565b634e487b7160e01b600052601160045260246000fd5b81810381811115610e0757610e0761294d565b60006020828403121561298857600080fd5b5051919050565b6040815260006129a260408301856126bc565b82810360208401526122f181856126bc565b6020815260ff8251166020820152600060208301516040808401526129dc60608401826126bc565b949350505050565b63ffffffff81511682526020810151602083015260408101516040830152606081015160608301526000608082015160e06080850152612a2760e08501826126bc565b905060a083015184820360a0860152612a4082826126bc565b91505060c083015184820360c08601526122f182826126bc565b604081526000612a6d60408301856129e4565b905082151560208301529392505050565b600060408284031215612a9057600080fd5b612a98612476565b9050815181526020820151602082015292915050565b600060408284031215612ac057600080fd5b61116c8383612a7e565b608081526000612add60808301866129e4565b8451602084810191909152909401516040830152506001600160a01b0391909116606090910152919050565b60008082840360c0811215612b1d57600080fd5b6080811215612b2b57600080fd5b506040516060810167ffffffffffffffff8282108183111715612b5057612b50612460565b8160405285518352602086015191508082168214612b6d57600080fd5b506020820152612b808560408601612a7e565b6040820152915061268f8460808501612a7e565b600060208284031215612ba657600080fd5b815161116c816125a4565b600181815b80851115612bec578160001904821115612bd257612bd261294d565b80851615612bdf57918102915b93841c9390800290612bb6565b509250929050565b600082612c0357506001610e07565b81612c1057506000610e07565b8160018114612c265760028114612c3057612c4c565b6001915050610e07565b60ff841115612c4157612c4161294d565b50506001821b610e07565b5060208310610133831016604e8410600b8410161715612c6f575081810a610e07565b612c798383612bb1565b8060001904821115612c8d57612c8d61294d565b029392505050565b600061116c60ff841683612bf4565b8082028115828204841417610e0757610e0761294d565b600082612cd857634e487b7160e01b600052601260045260246000fd5b500490565b80820180821115610e0757610e0761294d565b60008085851115612d0057600080fd5b83861115612d0d57600080fd5b5050820193919092039150565b6001600160e01b03198135818116916004851015612d425780818660040360031b1b83161692505b505092915050565b80356020831015610e0757600019602084900360031b1b1692915050565b600060208284031215612d7a57600080fd5b815161116c8161239e565b60006020808385031215612d9857600080fd5b825167ffffffffffffffff80821115612db057600080fd5b9084019060408287031215612dc457600080fd5b612dcc612476565b8251612dd7816125a4565b81528284015182811115612dea57600080fd5b80840193505086601f840112612dff57600080fd5b82519150612e0f612551836124d0565b8281528785848601011115612e2357600080fd5b612e3283868301878701612698565b938101939093525090949350505050565b60008060408385031215612e5657600080fd5b8251612e618161239e565b6020939093015192949293505050565b600060208284031215612e8357600080fd5b815161116c81612630565b80516020808301519190811015612eaf576000198160200360031b1b821691505b50919050565b60008251612ec7818460208701612698565b919091019291505056fe360894a13ba1a3210667c828492db98dca3e2076cc3735a920a3ca505d382bbccd5ed15c6e187e77e9aee88184c21f4f2182ab5827cb3b7e07fbedcd63f03300a2646970667358221220d8e1b736e07fb391c410806cf3aca6ad9b077988b1db9e3e3ec0853d38ededb864736f6c63430008140033",
  "devdoc": {
    "errors": {
      "AddressEmptyCode(address)": [
        {
          "details": "There's no code at `target` (it is not a contract)."
        }
      ],
      "ERC1967InvalidImplementation(address)": [
        {
          "details": "The `implementation` of the proxy is invalid."
        }
      ],
      "ERC1967NonPayable()": [
        {
          "details": "An upgrade function sees `msg.value > 0` that may be lost."
        }
      ],
      "EnforcedPause()": [
        {
          "details": "The operation failed because the contract is paused."
        }
      ],
      "ExpectedPause()": [
        {
          "details": "The operation failed because the contract is not paused."
        }
      ],
      "FailedInnerCall()": [
        {
          "details": "A call to an address target failed. The target may have reverted."
        }
      ],
      "InvalidInitialization()": [
        {
          "details": "The contract is already initialized."
        }
      ],
      "NotInitializing()": [
        {
          "details": "The contract is not initializing."
        }
      ],
      "OwnableInvalidOwner(address)": [
        {
          "details": "The owner is not a valid owner account. (eg. `address(0)`)"
        }
      ],
      "OwnableUnauthorizedAccount(address)": [
        {
          "details": "The caller account is not authorized to perform an operation."
        }
      ],
      "UUPSUnauthorizedCallContext()": [
        {
          "details": "The call is from an unauthorized context."
        }
      ],
      "UUPSUnsupportedProxiableUUID(bytes32)": [
        {
          "details": "The storage `slot` is unsupported as a UUID."
        }
      ]
    },
    "events": {
      "Initialized(uint64)": {
        "details": "Triggered when the contract has been initialized or reinitialized."
      },
      "Paused(address)": {
        "details": "Emitted when the pause is triggered by `account`."
      },
      "Unpaused(address)": {
        "details": "Emitted when the pause is lifted by `account`."
      },
      "Upgraded(address)": {
        "details": "Emitted when the implementation is upgraded."
      }
    },
    "kind": "dev",
    "methods": {
      "owner()": {
        "details": "Returns the address of the current owner."
      },
      "paused()": {
        "details": "Returns true if the contract is paused, and false otherwise."
      },
      "proxiableUUID()": {
        "details": "Implementation of the ERC1822 {proxiableUUID} function. This returns the storage slot used by the implementation. It is used to validate the implementation's compatibility when performing an upgrade. IMPORTANT: A proxy pointing at a proxiable contract should not be considered proxiable itself, because this risks bricking a proxy that upgrades to it, by delegating to itself until out of gas. Thus it is critical that this function revert if invoked through a proxy. This is guaranteed by the `notDelegated` modifier."
      },
      "renounceOwnership()": {
        "details": "Leaves the contract without owner. It will not be possible to call `onlyOwner` functions. Can only be called by the current owner. NOTE: Renouncing ownership will leave the contract without an owner, thereby disabling any functionality that is only available to the owner."
      },
      "transferOwnership(address)": {
        "details": "Transfers ownership of the contract to a new account (`newOwner`). Can only be called by the current owner."
      },
      "upgradeToAndCall(address,bytes)": {
        "custom:oz-upgrades-unsafe-allow-reachable": "delegatecall",
        "details": "Upgrade the implementation of the proxy to `newImplementation`, and subsequently execute the function call encoded in `data`. Calls {_authorizeUpgrade}. Emits an {Upgraded} event."
      }
    },
    "version": 1
  },
  "userdoc": {
    "kind": "user",
    "methods": {},
    "version": 1
  },
  "storageLayout": {
    "storage": [
      {
        "astId": 7840,
        "contract": "contracts/stake/Chef.sol:Chef",
        "label": "localComposeMsgSender",
        "offset": 0,
        "slot": "0",
        "type": "t_mapping(t_address,t_bool)"
      },
      {
        "astId": 7846,
        "contract": "contracts/stake/Chef.sol:Chef",
        "label": "remoteComposeMsgSender",
        "offset": 0,
        "slot": "1",
        "type": "t_mapping(t_uint32,t_mapping(t_address,t_bool))"
      },
      {
        "astId": 7850,
        "contract": "contracts/stake/Chef.sol:Chef",
        "label": "chainId2Eid",
        "offset": 0,
        "slot": "2",
        "type": "t_mapping(t_uint256,t_uint32)"
      },
      {
        "astId": 7854,
        "contract": "contracts/stake/Chef.sol:Chef",
        "label": "eid2ChainId",
        "offset": 0,
        "slot": "3",
        "type": "t_mapping(t_uint32,t_uint256)"
      },
      {
        "astId": 7860,
        "contract": "contracts/stake/Chef.sol:Chef",
        "label": "lzOptions",
        "offset": 0,
        "slot": "4",
        "type": "t_mapping(t_enum(PayloadTypes)9073,t_struct(LzOptions)8855_storage)"
      },
      {
        "astId": 7862,
        "contract": "contracts/stake/Chef.sol:Chef",
        "label": "oft",
        "offset": 0,
        "slot": "5",
        "type": "t_address"
      },
      {
        "astId": 7866,
        "contract": "contracts/stake/Chef.sol:Chef",
        "label": "__gap",
        "offset": 0,
        "slot": "6",
        "type": "t_array(t_uint256)43_storage"
      },
      {
        "astId": 8240,
        "contract": "contracts/stake/Chef.sol:Chef",
        "label": "tokenMessager",
        "offset": 0,
        "slot": "49",
        "type": "t_contract(ITokenMessenger)9062"
      },
      {
        "astId": 8243,
        "contract": "contracts/stake/Chef.sol:Chef",
        "label": "messageTransmitter",
        "offset": 0,
        "slot": "50",
        "type": "t_contract(IMessageTransmitter)9042"
      },
      {
        "astId": 8247,
        "contract": "contracts/stake/Chef.sol:Chef",
        "label": "chainId2DomainId",
        "offset": 0,
        "slot": "51",
        "type": "t_mapping(t_uint256,t_uint32)"
      },
      {
        "astId": 8251,
        "contract": "contracts/stake/Chef.sol:Chef",
        "label": "domainId2ChainId",
        "offset": 0,
        "slot": "52",
        "type": "t_mapping(t_uint32,t_uint256)"
      },
      {
        "astId": 8253,
        "contract": "contracts/stake/Chef.sol:Chef",
        "label": "usdc",
        "offset": 0,
        "slot": "53",
        "type": "t_address"
      },
      {
        "astId": 8257,
        "contract": "contracts/stake/Chef.sol:Chef",
        "label": "__gap",
        "offset": 0,
        "slot": "54",
        "type": "t_array(t_uint256)45_storage"
      },
      {
        "astId": 8489,
        "contract": "contracts/stake/Chef.sol:Chef",
        "label": "userStakeInfo",
        "offset": 0,
        "slot": "99",
        "type": "t_mapping(t_address,t_struct(StakeInfo)8446_storage)"
      },
      {
        "astId": 8491,
        "contract": "contracts/stake/Chef.sol:Chef",
        "label": "totalStakedAmount",
        "offset": 0,
        "slot": "100",
        "type": "t_uint256"
      },
      {
        "astId": 8495,
        "contract": "contracts/stake/Chef.sol:Chef",
        "label": "__gap",
        "offset": 0,
        "slot": "101",
        "type": "t_array(t_uint256)47_storage"
      },
      {
        "astId": 6729,
        "contract": "contracts/stake/Chef.sol:Chef",
        "label": "waiters",
        "offset": 0,
        "slot": "148",
        "type": "t_mapping(t_uint256,t_address)"
      },
      {
        "astId": 6731,
        "contract": "contracts/stake/Chef.sol:Chef",
        "label": "backend",
        "offset": 0,
        "slot": "149",
        "type": "t_address"
      }
    ],
    "types": {
      "t_address": {
        "encoding": "inplace",
        "label": "address",
        "numberOfBytes": "20"
      },
      "t_array(t_uint256)43_storage": {
        "base": "t_uint256",
        "encoding": "inplace",
        "label": "uint256[43]",
        "numberOfBytes": "1376"
      },
      "t_array(t_uint256)45_storage": {
        "base": "t_uint256",
        "encoding": "inplace",
        "label": "uint256[45]",
        "numberOfBytes": "1440"
      },
      "t_array(t_uint256)47_storage": {
        "base": "t_uint256",
        "encoding": "inplace",
        "label": "uint256[47]",
        "numberOfBytes": "1504"
      },
      "t_bool": {
        "encoding": "inplace",
        "label": "bool",
        "numberOfBytes": "1"
      },
      "t_contract(IMessageTransmitter)9042": {
        "encoding": "inplace",
        "label": "contract IMessageTransmitter",
        "numberOfBytes": "20"
      },
      "t_contract(ITokenMessenger)9062": {
        "encoding": "inplace",
        "label": "contract ITokenMessenger",
        "numberOfBytes": "20"
      },
      "t_enum(PayloadTypes)9073": {
        "encoding": "inplace",
        "label": "enum LzMessageLib.PayloadTypes",
        "numberOfBytes": "1"
      },
      "t_mapping(t_address,t_bool)": {
        "encoding": "mapping",
        "key": "t_address",
        "label": "mapping(address => bool)",
        "numberOfBytes": "32",
        "value": "t_bool"
      },
      "t_mapping(t_address,t_struct(StakeInfo)8446_storage)": {
        "encoding": "mapping",
        "key": "t_address",
        "label": "mapping(address => struct StakeUpgradeable.StakeInfo)",
        "numberOfBytes": "32",
        "value": "t_struct(StakeInfo)8446_storage"
      },
      "t_mapping(t_enum(PayloadTypes)9073,t_struct(LzOptions)8855_storage)": {
        "encoding": "mapping",
        "key": "t_enum(PayloadTypes)9073",
        "label": "mapping(enum LzMessageLib.PayloadTypes => struct LzOptions)",
        "numberOfBytes": "32",
        "value": "t_struct(LzOptions)8855_storage"
      },
      "t_mapping(t_uint256,t_address)": {
        "encoding": "mapping",
        "key": "t_uint256",
        "label": "mapping(uint256 => address)",
        "numberOfBytes": "32",
        "value": "t_address"
      },
      "t_mapping(t_uint256,t_uint32)": {
        "encoding": "mapping",
        "key": "t_uint256",
        "label": "mapping(uint256 => uint32)",
        "numberOfBytes": "32",
        "value": "t_uint32"
      },
      "t_mapping(t_uint32,t_mapping(t_address,t_bool))": {
        "encoding": "mapping",
        "key": "t_uint32",
        "label": "mapping(uint32 => mapping(address => bool))",
        "numberOfBytes": "32",
        "value": "t_mapping(t_address,t_bool)"
      },
      "t_mapping(t_uint32,t_uint256)": {
        "encoding": "mapping",
        "key": "t_uint32",
        "label": "mapping(uint32 => uint256)",
        "numberOfBytes": "32",
        "value": "t_uint256"
      },
      "t_struct(LzOptions)8855_storage": {
        "encoding": "inplace",
        "label": "struct LzOptions",
        "members": [
          {
            "astId": 8852,
            "contract": "contracts/stake/Chef.sol:Chef",
            "label": "gas",
            "offset": 0,
            "slot": "0",
            "type": "t_uint128"
          },
          {
            "astId": 8854,
            "contract": "contracts/stake/Chef.sol:Chef",
            "label": "value",
            "offset": 16,
            "slot": "0",
            "type": "t_uint128"
          }
        ],
        "numberOfBytes": "32"
      },
      "t_struct(StakeInfo)8446_storage": {
        "encoding": "inplace",
        "label": "struct StakeUpgradeable.StakeInfo",
        "members": [
          {
            "astId": 8439,
            "contract": "contracts/stake/Chef.sol:Chef",
            "label": "stakeAmount",
            "offset": 0,
            "slot": "0",
            "type": "t_uint256"
          },
          {
            "astId": 8441,
            "contract": "contracts/stake/Chef.sol:Chef",
            "label": "stakeReward",
            "offset": 0,
            "slot": "1",
            "type": "t_uint256"
          },
          {
            "astId": 8443,
            "contract": "contracts/stake/Chef.sol:Chef",
            "label": "lastStakeTime",
            "offset": 0,
            "slot": "2",
            "type": "t_uint256"
          },
          {
            "astId": 8445,
            "contract": "contracts/stake/Chef.sol:Chef",
            "label": "lastUnstakeTime",
            "offset": 0,
            "slot": "3",
            "type": "t_uint256"
          }
        ],
        "numberOfBytes": "128"
      },
      "t_uint128": {
        "encoding": "inplace",
        "label": "uint128",
        "numberOfBytes": "16"
      },
      "t_uint256": {
        "encoding": "inplace",
        "label": "uint256",
        "numberOfBytes": "32"
      },
      "t_uint32": {
        "encoding": "inplace",
        "label": "uint32",
        "numberOfBytes": "4"
      }
    }
  }
}