{
  "address": "0x46968E8396794e01c44C394ea3FfB920C8F7A55A",
  "abi": [
    {
      "inputs": [
        {
          "internalType": "address",
          "name": "target",
          "type": "address"
        }
      ],
      "name": "AddressEmptyCode",
      "type": "error"
    },
    {
      "inputs": [
        {
          "internalType": "address",
          "name": "implementation",
          "type": "address"
        }
      ],
      "name": "ERC1967InvalidImplementation",
      "type": "error"
    },
    {
      "inputs": [],
      "name": "ERC1967NonPayable",
      "type": "error"
    },
    {
      "inputs": [],
      "name": "EnforcedPause",
      "type": "error"
    },
    {
      "inputs": [],
      "name": "ExpectedPause",
      "type": "error"
    },
    {
      "inputs": [],
      "name": "FailedInnerCall",
      "type": "error"
    },
    {
      "inputs": [
        {
          "internalType": "address",
          "name": "savedEndpoint",
          "type": "address"
        },
        {
          "internalType": "address",
          "name": "realEndpoint",
          "type": "address"
        }
      ],
      "name": "InvalidEnpoint",
      "type": "error"
    },
    {
      "inputs": [],
      "name": "InvalidInitialization",
      "type": "error"
    },
    {
      "inputs": [],
      "name": "NotInitializing",
      "type": "error"
    },
    {
      "inputs": [
        {
          "internalType": "address",
          "name": "sender",
          "type": "address"
        }
      ],
      "name": "NotLocalComposeMsgSender",
      "type": "error"
    },
    {
      "inputs": [
        {
          "internalType": "uint32",
          "name": "eid",
          "type": "uint32"
        },
        {
          "internalType": "address",
          "name": "sender",
          "type": "address"
        }
      ],
      "name": "NotRemoteComposeMsgSender",
      "type": "error"
    },
    {
      "inputs": [
        {
          "internalType": "address",
          "name": "owner",
          "type": "address"
        }
      ],
      "name": "OwnableInvalidOwner",
      "type": "error"
    },
    {
      "inputs": [
        {
          "internalType": "address",
          "name": "account",
          "type": "address"
        }
      ],
      "name": "OwnableUnauthorizedAccount",
      "type": "error"
    },
    {
      "inputs": [],
      "name": "UUPSUnauthorizedCallContext",
      "type": "error"
    },
    {
      "inputs": [
        {
          "internalType": "bytes32",
          "name": "slot",
          "type": "bytes32"
        }
      ],
      "name": "UUPSUnsupportedProxiableUUID",
      "type": "error"
    },
    {
      "anonymous": false,
      "inputs": [
        {
          "indexed": true,
          "internalType": "uint256",
          "name": "chainId",
          "type": "uint256"
        },
        {
          "indexed": true,
          "internalType": "uint32",
          "name": "domainId",
          "type": "uint32"
        },
        {
          "indexed": true,
          "internalType": "address",
          "name": "mintRecipient",
          "type": "address"
        },
        {
          "indexed": false,
          "internalType": "uint256",
          "name": "amount",
          "type": "uint256"
        }
      ],
      "name": "BurnUSDC",
      "type": "event"
    },
    {
      "anonymous": false,
      "inputs": [
        {
          "indexed": true,
          "internalType": "uint256",
          "name": "chainId",
          "type": "uint256"
        },
        {
          "indexed": true,
          "internalType": "address",
          "name": "staker",
          "type": "address"
        },
        {
          "indexed": false,
          "internalType": "uint256",
          "name": "amount",
          "type": "uint256"
        }
      ],
      "name": "Claimed",
      "type": "event"
    },
    {
      "anonymous": false,
      "inputs": [
        {
          "indexed": true,
          "internalType": "address",
          "name": "composeMsgSender",
          "type": "address"
        },
        {
          "indexed": false,
          "internalType": "bool",
          "name": "allowed",
          "type": "bool"
        }
      ],
      "name": "ComposeMsgSenderSet",
      "type": "event"
    },
    {
      "anonymous": false,
      "inputs": [
        {
          "indexed": true,
          "internalType": "uint256",
          "name": "chainId",
          "type": "uint256"
        },
        {
          "indexed": false,
          "internalType": "uint32",
          "name": "eid",
          "type": "uint32"
        }
      ],
      "name": "EidSet",
      "type": "event"
    },
    {
      "anonymous": false,
      "inputs": [
        {
          "indexed": true,
          "internalType": "address",
          "name": "endpoint",
          "type": "address"
        }
      ],
      "name": "EndpointSet",
      "type": "event"
    },
    {
      "anonymous": false,
      "inputs": [
        {
          "indexed": false,
          "internalType": "uint64",
          "name": "version",
          "type": "uint64"
        }
      ],
      "name": "Initialized",
      "type": "event"
    },
    {
      "anonymous": false,
      "inputs": [
        {
          "indexed": true,
          "internalType": "address",
          "name": "oft",
          "type": "address"
        }
      ],
      "name": "OftSet",
      "type": "event"
    },
    {
      "anonymous": false,
      "inputs": [
        {
          "indexed": true,
          "internalType": "address",
          "name": "previousOwner",
          "type": "address"
        },
        {
          "indexed": true,
          "internalType": "address",
          "name": "newOwner",
          "type": "address"
        }
      ],
      "name": "OwnershipTransferred",
      "type": "event"
    },
    {
      "anonymous": false,
      "inputs": [
        {
          "indexed": false,
          "internalType": "address",
          "name": "account",
          "type": "address"
        }
      ],
      "name": "Paused",
      "type": "event"
    },
    {
      "anonymous": false,
      "inputs": [
        {
          "indexed": true,
          "internalType": "uint256",
          "name": "chainId",
          "type": "uint256"
        },
        {
          "indexed": true,
          "internalType": "address",
          "name": "staker",
          "type": "address"
        },
        {
          "indexed": false,
          "internalType": "uint256",
          "name": "amount",
          "type": "uint256"
        }
      ],
      "name": "RewardClaimed",
      "type": "event"
    },
    {
      "anonymous": false,
      "inputs": [
        {
          "indexed": true,
          "internalType": "uint256",
          "name": "chainId",
          "type": "uint256"
        },
        {
          "indexed": true,
          "internalType": "address",
          "name": "staker",
          "type": "address"
        },
        {
          "indexed": false,
          "internalType": "uint256",
          "name": "amount",
          "type": "uint256"
        }
      ],
      "name": "RewardSent",
      "type": "event"
    },
    {
      "anonymous": false,
      "inputs": [
        {
          "indexed": true,
          "internalType": "uint256",
          "name": "chainId",
          "type": "uint256"
        },
        {
          "indexed": true,
          "internalType": "address",
          "name": "staker",
          "type": "address"
        },
        {
          "indexed": false,
          "internalType": "uint256",
          "name": "amount",
          "type": "uint256"
        }
      ],
      "name": "Staked",
      "type": "event"
    },
    {
      "anonymous": false,
      "inputs": [
        {
          "indexed": true,
          "internalType": "uint256",
          "name": "chainId",
          "type": "uint256"
        },
        {
          "indexed": true,
          "internalType": "address",
          "name": "staker",
          "type": "address"
        },
        {
          "indexed": false,
          "internalType": "uint256",
          "name": "amount",
          "type": "uint256"
        }
      ],
      "name": "TokenStaked",
      "type": "event"
    },
    {
      "anonymous": false,
      "inputs": [
        {
          "indexed": true,
          "internalType": "uint256",
          "name": "chainId",
          "type": "uint256"
        },
        {
          "indexed": true,
          "internalType": "address",
          "name": "staker",
          "type": "address"
        },
        {
          "indexed": false,
          "internalType": "uint256",
          "name": "amount",
          "type": "uint256"
        }
      ],
      "name": "TokenUnstaked",
      "type": "event"
    },
    {
      "anonymous": false,
      "inputs": [
        {
          "indexed": true,
          "internalType": "uint256",
          "name": "chainId",
          "type": "uint256"
        },
        {
          "indexed": true,
          "internalType": "address",
          "name": "staker",
          "type": "address"
        },
        {
          "indexed": false,
          "internalType": "uint256",
          "name": "amount",
          "type": "uint256"
        }
      ],
      "name": "TokenWithdrawn",
      "type": "event"
    },
    {
      "anonymous": false,
      "inputs": [
        {
          "indexed": false,
          "internalType": "address",
          "name": "account",
          "type": "address"
        }
      ],
      "name": "Unpaused",
      "type": "event"
    },
    {
      "anonymous": false,
      "inputs": [
        {
          "indexed": true,
          "internalType": "uint256",
          "name": "chainId",
          "type": "uint256"
        },
        {
          "indexed": true,
          "internalType": "address",
          "name": "staker",
          "type": "address"
        },
        {
          "indexed": false,
          "internalType": "uint256",
          "name": "amount",
          "type": "uint256"
        }
      ],
      "name": "Unstaked",
      "type": "event"
    },
    {
      "anonymous": false,
      "inputs": [
        {
          "indexed": true,
          "internalType": "address",
          "name": "implementation",
          "type": "address"
        }
      ],
      "name": "Upgraded",
      "type": "event"
    },
    {
      "anonymous": false,
      "inputs": [
        {
          "indexed": true,
          "internalType": "uint256",
          "name": "chainId",
          "type": "uint256"
        },
        {
          "indexed": true,
          "internalType": "address",
          "name": "staker",
          "type": "address"
        },
        {
          "indexed": false,
          "internalType": "uint256",
          "name": "amount",
          "type": "uint256"
        }
      ],
      "name": "Withdrawn",
      "type": "event"
    },
    {
      "stateMutability": "payable",
      "type": "fallback"
    },
    {
      "inputs": [],
      "name": "STAKE_REWARD_RATE",
      "outputs": [
        {
          "internalType": "uint256",
          "name": "",
          "type": "uint256"
        }
      ],
      "stateMutability": "view",
      "type": "function"
    },
    {
      "inputs": [],
      "name": "UNSTAKE_PERIOD",
      "outputs": [
        {
          "internalType": "uint256",
          "name": "",
          "type": "uint256"
        }
      ],
      "stateMutability": "view",
      "type": "function"
    },
    {
      "inputs": [],
      "name": "UPGRADE_INTERFACE_VERSION",
      "outputs": [
        {
          "internalType": "string",
          "name": "",
          "type": "string"
        }
      ],
      "stateMutability": "view",
      "type": "function"
    },
    {
      "inputs": [],
      "name": "backend",
      "outputs": [
        {
          "internalType": "address",
          "name": "",
          "type": "address"
        }
      ],
      "stateMutability": "view",
      "type": "function"
    },
    {
      "inputs": [
        {
          "internalType": "uint256",
          "name": "",
          "type": "uint256"
        }
      ],
      "name": "chainId2DomainId",
      "outputs": [
        {
          "internalType": "uint32",
          "name": "",
          "type": "uint32"
        }
      ],
      "stateMutability": "view",
      "type": "function"
    },
    {
      "inputs": [
        {
          "internalType": "uint256",
          "name": "",
          "type": "uint256"
        }
      ],
      "name": "chainId2Eid",
      "outputs": [
        {
          "internalType": "uint32",
          "name": "",
          "type": "uint32"
        }
      ],
      "stateMutability": "view",
      "type": "function"
    },
    {
      "inputs": [
        {
          "internalType": "uint32",
          "name": "",
          "type": "uint32"
        }
      ],
      "name": "domainId2ChainId",
      "outputs": [
        {
          "internalType": "uint256",
          "name": "",
          "type": "uint256"
        }
      ],
      "stateMutability": "view",
      "type": "function"
    },
    {
      "inputs": [
        {
          "internalType": "uint32",
          "name": "",
          "type": "uint32"
        }
      ],
      "name": "eid2ChainId",
      "outputs": [
        {
          "internalType": "uint256",
          "name": "",
          "type": "uint256"
        }
      ],
      "stateMutability": "view",
      "type": "function"
    },
    {
      "inputs": [],
      "name": "getTotalStakedAmount",
      "outputs": [
        {
          "internalType": "uint256",
          "name": "",
          "type": "uint256"
        }
      ],
      "stateMutability": "view",
      "type": "function"
    },
    {
      "inputs": [
        {
          "internalType": "address",
          "name": "_staker",
          "type": "address"
        }
      ],
      "name": "getUserReward",
      "outputs": [
        {
          "internalType": "uint256",
          "name": "",
          "type": "uint256"
        }
      ],
      "stateMutability": "view",
      "type": "function"
    },
    {
      "inputs": [
        {
          "internalType": "address",
          "name": "_staker",
          "type": "address"
        }
      ],
      "name": "getUserStakeInfo",
      "outputs": [
        {
          "components": [
            {
              "internalType": "uint256",
              "name": "stakeAmount",
              "type": "uint256"
            },
            {
              "internalType": "uint256",
              "name": "stakeReward",
              "type": "uint256"
            },
            {
              "internalType": "uint256",
              "name": "lastStakeTime",
              "type": "uint256"
            },
            {
              "internalType": "uint256",
              "name": "lastUnstakeTime",
              "type": "uint256"
            }
          ],
          "internalType": "struct StakeUpgradeable.StakeInfo",
          "name": "",
          "type": "tuple"
        }
      ],
      "stateMutability": "view",
      "type": "function"
    },
    {
      "inputs": [
        {
          "internalType": "address",
          "name": "_staker",
          "type": "address"
        }
      ],
      "name": "getUserUnstakeLockTime",
      "outputs": [
        {
          "internalType": "uint256",
          "name": "",
          "type": "uint256"
        }
      ],
      "stateMutability": "view",
      "type": "function"
    },
    {
      "inputs": [
        {
          "internalType": "address",
          "name": "_owner",
          "type": "address"
        }
      ],
      "name": "initialize",
      "outputs": [],
      "stateMutability": "nonpayable",
      "type": "function"
    },
    {
      "inputs": [
        {
          "internalType": "address",
          "name": "",
          "type": "address"
        }
      ],
      "name": "localComposeMsgSender",
      "outputs": [
        {
          "internalType": "bool",
          "name": "",
          "type": "bool"
        }
      ],
      "stateMutability": "view",
      "type": "function"
    },
    {
      "inputs": [
        {
          "internalType": "address",
          "name": "_from",
          "type": "address"
        },
        {
          "internalType": "bytes32",
          "name": "",
          "type": "bytes32"
        },
        {
          "internalType": "bytes",
          "name": "_message",
          "type": "bytes"
        },
        {
          "internalType": "address",
          "name": "",
          "type": "address"
        },
        {
          "internalType": "bytes",
          "name": "",
          "type": "bytes"
        }
      ],
      "name": "lzCompose",
      "outputs": [],
      "stateMutability": "payable",
      "type": "function"
    },
    {
      "inputs": [
        {
          "internalType": "enum LzMessageLib.PayloadTypes",
          "name": "",
          "type": "uint8"
        }
      ],
      "name": "lzOptions",
      "outputs": [
        {
          "internalType": "uint128",
          "name": "gas",
          "type": "uint128"
        },
        {
          "internalType": "uint128",
          "name": "value",
          "type": "uint128"
        }
      ],
      "stateMutability": "view",
      "type": "function"
    },
    {
      "inputs": [],
      "name": "oft",
      "outputs": [
        {
          "internalType": "address",
          "name": "",
          "type": "address"
        }
      ],
      "stateMutability": "view",
      "type": "function"
    },
    {
      "inputs": [],
      "name": "owner",
      "outputs": [
        {
          "internalType": "address",
          "name": "",
          "type": "address"
        }
      ],
      "stateMutability": "view",
      "type": "function"
    },
    {
      "inputs": [],
      "name": "pause",
      "outputs": [],
      "stateMutability": "nonpayable",
      "type": "function"
    },
    {
      "inputs": [],
      "name": "paused",
      "outputs": [
        {
          "internalType": "bool",
          "name": "",
          "type": "bool"
        }
      ],
      "stateMutability": "view",
      "type": "function"
    },
    {
      "inputs": [],
      "name": "proxiableUUID",
      "outputs": [
        {
          "internalType": "bytes32",
          "name": "",
          "type": "bytes32"
        }
      ],
      "stateMutability": "view",
      "type": "function"
    },
    {
      "inputs": [
        {
          "internalType": "uint32",
          "name": "",
          "type": "uint32"
        },
        {
          "internalType": "address",
          "name": "",
          "type": "address"
        }
      ],
      "name": "remoteComposeMsgSender",
      "outputs": [
        {
          "internalType": "bool",
          "name": "",
          "type": "bool"
        }
      ],
      "stateMutability": "view",
      "type": "function"
    },
    {
      "inputs": [],
      "name": "renounceOwnership",
      "outputs": [],
      "stateMutability": "nonpayable",
      "type": "function"
    },
    {
      "inputs": [
        {
          "internalType": "uint256",
          "name": "_chainId",
          "type": "uint256"
        },
        {
          "internalType": "bytes",
          "name": "_message",
          "type": "bytes"
        },
        {
          "internalType": "bytes",
          "name": "_attestation",
          "type": "bytes"
        }
      ],
      "name": "sendReward",
      "outputs": [],
      "stateMutability": "nonpayable",
      "type": "function"
    },
    {
      "inputs": [
        {
          "internalType": "uint256",
          "name": "_chainId",
          "type": "uint256"
        },
        {
          "internalType": "uint32",
          "name": "_domainId",
          "type": "uint32"
        }
      ],
      "name": "setCCTPDomainId",
      "outputs": [],
      "stateMutability": "nonpayable",
      "type": "function"
    },
    {
      "inputs": [
        {
          "internalType": "uint256",
          "name": "_chainId",
          "type": "uint256"
        },
        {
          "internalType": "uint32",
          "name": "_eid",
          "type": "uint32"
        }
      ],
      "name": "setEid",
      "outputs": [],
      "stateMutability": "nonpayable",
      "type": "function"
    },
    {
      "inputs": [
        {
          "internalType": "address",
          "name": "_addr",
          "type": "address"
        },
        {
          "internalType": "bool",
          "name": "_allowed",
          "type": "bool"
        }
      ],
      "name": "setLocalComposeMsgSender",
      "outputs": [],
      "stateMutability": "nonpayable",
      "type": "function"
    },
    {
      "inputs": [
        {
          "internalType": "address",
          "name": "_oft",
          "type": "address"
        }
      ],
      "name": "setOft",
      "outputs": [],
      "stateMutability": "nonpayable",
      "type": "function"
    },
    {
      "inputs": [
        {
          "internalType": "uint8",
          "name": "_payloadType",
          "type": "uint8"
        },
        {
          "internalType": "uint128",
          "name": "_gas",
          "type": "uint128"
        },
        {
          "internalType": "uint128",
          "name": "_value",
          "type": "uint128"
        }
      ],
      "name": "setPayloadOptions",
      "outputs": [],
      "stateMutability": "nonpayable",
      "type": "function"
    },
    {
      "inputs": [
        {
          "internalType": "uint32",
          "name": "_eid",
          "type": "uint32"
        },
        {
          "internalType": "address",
          "name": "_addr",
          "type": "address"
        },
        {
          "internalType": "bool",
          "name": "_allowed",
          "type": "bool"
        }
      ],
      "name": "setRemoteComposeMsgSender",
      "outputs": [],
      "stateMutability": "nonpayable",
      "type": "function"
    },
    {
      "inputs": [
        {
          "internalType": "address",
          "name": "_tokenMessager",
          "type": "address"
        }
      ],
      "name": "setTokenMessager",
      "outputs": [],
      "stateMutability": "nonpayable",
      "type": "function"
    },
    {
      "inputs": [],
      "name": "tokenMessager",
      "outputs": [
        {
          "internalType": "contract ITokenMessenger",
          "name": "",
          "type": "address"
        }
      ],
      "stateMutability": "view",
      "type": "function"
    },
    {
      "inputs": [],
      "name": "totalStakedAmount",
      "outputs": [
        {
          "internalType": "uint256",
          "name": "",
          "type": "uint256"
        }
      ],
      "stateMutability": "view",
      "type": "function"
    },
    {
      "inputs": [
        {
          "internalType": "address",
          "name": "newOwner",
          "type": "address"
        }
      ],
      "name": "transferOwnership",
      "outputs": [],
      "stateMutability": "nonpayable",
      "type": "function"
    },
    {
      "inputs": [],
      "name": "unpause",
      "outputs": [],
      "stateMutability": "nonpayable",
      "type": "function"
    },
    {
      "inputs": [
        {
          "internalType": "address",
          "name": "newImplementation",
          "type": "address"
        },
        {
          "internalType": "bytes",
          "name": "data",
          "type": "bytes"
        }
      ],
      "name": "upgradeToAndCall",
      "outputs": [],
      "stateMutability": "payable",
      "type": "function"
    },
    {
      "inputs": [],
      "name": "usdc",
      "outputs": [
        {
          "internalType": "address",
          "name": "",
          "type": "address"
        }
      ],
      "stateMutability": "view",
      "type": "function"
    },
    {
      "inputs": [
        {
          "internalType": "address",
          "name": "",
          "type": "address"
        }
      ],
      "name": "userStakeInfo",
      "outputs": [
        {
          "internalType": "uint256",
          "name": "stakeAmount",
          "type": "uint256"
        },
        {
          "internalType": "uint256",
          "name": "stakeReward",
          "type": "uint256"
        },
        {
          "internalType": "uint256",
          "name": "lastStakeTime",
          "type": "uint256"
        },
        {
          "internalType": "uint256",
          "name": "lastUnstakeTime",
          "type": "uint256"
        }
      ],
      "stateMutability": "view",
      "type": "function"
    },
    {
      "inputs": [
        {
          "internalType": "uint256",
          "name": "",
          "type": "uint256"
        }
      ],
      "name": "waiters",
      "outputs": [
        {
          "internalType": "address",
          "name": "",
          "type": "address"
        }
      ],
      "stateMutability": "view",
      "type": "function"
    },
    {
      "stateMutability": "payable",
      "type": "receive"
    }
  ],
  "transactionHash": "0xc796ac45b54bbf4720b06f4eb97ed555a114560801f536deb13e4976949eb760",
  "args": [],
  "numDeployments": 1,
  "solcInputHash": "1acaff75e258941f9229295b28c35bfe",
  "bytecode": "0x60a06040523060805234801561001457600080fd5b50608051612a3761003e60003960008181610fcb01528181610ff4015261113a0152612a376000f3fe60806040526004361061021c5760003560e01c80638f261a6211610122578063c4d66de8116100a5578063e2dfa1301161006c578063e2dfa130146107bb578063e5feda39146107db578063f29e8d2c146107fb578063f2fde38b1461081b578063fe8e9c1f1461083b57005b8063c4d66de814610728578063c75ebb8214610748578063d0a1026014610768578063d7dd0b2b1461077b578063dc9e80a41461079b57005b8063a6eaa06d116100e9578063a6eaa06d14610601578063ad3cb1cc14610637578063b223331c14610675578063b23bd54b146106a2578063c32d3ae2146106d557005b80638f261a621461052b578063904b25eb1461054057806395b410e4146105a157806396ac1800146105c15780639b5215f6146105e157005b806352d1902d116101aa57806373d398a51161017157806373d398a51461048457806379b57862146104a45780637a7f2bb8146104b95780638456cb59146104d95780638da5cb5b146104ee57005b806352d1902d146103d7578063567e98f9146103ec57806358851ca1146104025780635c975abb1461044a578063715018a61461046f57005b806338adb6f0116101ee57806338adb6f0146103185780633e413bee1461032d5780633f4ba83a1461034d5780634ead4327146103625780634f1ef286146103c457005b8063099e4133146102255780630cff4e061461026257806329059e83146102a257806332c35254146102dd57005b3661022357005b005b34801561023157600080fd5b50609554610245906001600160a01b031681565b6040516001600160a01b0390911681526020015b60405180910390f35b34801561026e57600080fd5b5061029261027d366004611f55565b60006020819052908152604090205460ff1681565b6040519015158152602001610259565b3480156102ae57600080fd5b506102cf6102bd366004611f8b565b60336020526000908152604090205481565b604051908152602001610259565b3480156102e957600080fd5b506102926102f8366004611fa6565b600160209081526000928352604080842090915290825290205460ff1681565b34801561032457600080fd5b506064546102cf565b34801561033957600080fd5b50603454610245906001600160a01b031681565b34801561035957600080fd5b5061022361085b565b34801561036e57600080fd5b506103a461037d366004611f55565b60636020526000908152604090208054600182015460028301546003909301549192909184565b604080519485526020850193909352918301526060820152608001610259565b6102236103d2366004612075565b61086d565b3480156103e357600080fd5b506102cf61088c565b3480156103f857600080fd5b506102cf60645481565b34801561040e57600080fd5b5061043561041d366004612108565b60026020526000908152604090205463ffffffff1681565b60405163ffffffff9091168152602001610259565b34801561045657600080fd5b506000805160206129e28339815191525460ff16610292565b34801561047b57600080fd5b506102236108a9565b34801561049057600080fd5b5061022361049f36600461216a565b6108bb565b3480156104b057600080fd5b506102cf600f81565b3480156104c557600080fd5b506102236104d436600461220a565b6108cf565b3480156104e557600080fd5b5061022361096f565b3480156104fa57600080fd5b507f9016d09d72d40fdae2fd8ceac6b6234c7706214fd39c1cd1e609a0528c199300546001600160a01b0316610245565b34801561053757600080fd5b506102cf606481565b34801561054c57600080fd5b5061058161055b36600461224f565b6004602052600090815260409020546001600160801b0380821691600160801b90041682565b604080516001600160801b03938416815292909116602083015201610259565b3480156105ad57600080fd5b506102236105bc36600461227e565b61097f565b3480156105cd57600080fd5b506102236105dc3660046122ac565b6109b2565b3480156105ed57600080fd5b50600554610245906001600160a01b031681565b34801561060d57600080fd5b5061024561061c366004612108565b6094602052600090815260409020546001600160a01b031681565b34801561064357600080fd5b50610668604051806040016040528060058152602001640352e302e360dc1b81525081565b6040516102599190612328565b34801561068157600080fd5b506102cf610690366004611f8b565b60036020526000908152604090205481565b3480156106ae57600080fd5b506104356106bd366004612108565b60326020526000908152604090205463ffffffff1681565b3480156106e157600080fd5b506106f56106f0366004611f55565b6109ed565b60405161025991908151815260208083015190820152604080830151908201526060918201519181019190915260800190565b34801561073457600080fd5b50610223610743366004611f55565b610a66565b34801561075457600080fd5b506102cf610763366004611f55565b610b86565b61022361077636600461233b565b610b97565b34801561078757600080fd5b50610223610796366004611f55565b610d2d565b3480156107a757600080fd5b506102236107b63660046123dc565b610d57565b3480156107c757600080fd5b50603154610245906001600160a01b031681565b3480156107e757600080fd5b506102cf6107f6366004611f55565b610d9c565b34801561080757600080fd5b50610223610816366004611f55565b610e62565b34801561082757600080fd5b50610223610836366004611f55565b610e8c565b34801561084757600080fd5b506102236108563660046122ac565b610eca565b610863610f05565b61086b610f60565b565b610875610fc0565b61087e82611065565b610888828261106d565b5050565b600061089661112f565b506000805160206129c283398151915290565b6108b1610f05565b61086b6000611178565b6108c885858585856111e9565b5050505050565b6108d7610f05565b6040518060400160405280836001600160801b03168152602001826001600160801b0316815250600460008560ff16600781111561091757610917612425565b600781111561092857610928612425565b600781111561093957610939612425565b8152602080820192909252604001600020825192909101516001600160801b03908116600160801b029216919091179055505050565b610977610f05565b61086b6111f1565b610987610f05565b6001600160a01b03919091166000908152602081905260409020805460ff1916911515919091179055565b6109ba610f05565b6000828152603260209081526040808320805463ffffffff90951663ffffffff1990951685179055928252603390522055565b610a186040518060800160405280600081526020016000815260200160008152602001600081525090565b506001600160a01b0316600090815260636020908152604091829020825160808101845281548152600182015492810192909252600281015492820192909252600390910154606082015290565b7ff0c57e16840df040f15088dc2f81fe391c3923bec73e23a9662efc9c229c6a008054600160401b810460ff16159067ffffffffffffffff16600081158015610aac5750825b905060008267ffffffffffffffff166001148015610ac95750303b155b905081158015610ad7575080155b15610af55760405163f92ee8a960e01b815260040160405180910390fd5b845467ffffffffffffffff191660011785558315610b1f57845460ff60401b1916600160401b1785555b610b2761123a565b610b3086611242565b610b38611253565b8315610b7e57845460ff60401b19168555604051600181527fc7f505b2f371ae2175ee4913f4499e1f2633a7b5936321eed1cdaeb6115181d29060200160405180910390a15b505050505050565b6000610b9182611263565b92915050565b610b9f61132c565b6000610bab868661135d565b90506000610bb987876113a8565b90506000610bcd610bca89896113cb565b90565b9050610bdb338b84846113e4565b506000610be784611556565b63ffffffff8416600090815260036020526040902054909150600160ff16826000015160ff1603610c2a576000610c21836020015161157f565b90505b50610d1f565b815160ff1660011901610c56576000610c4683602001516115ce565b9050610c24828260000151611612565b815160ff1660021901610cf1576000610c7283602001516115ce565b90506000610c84838360000151611794565b8251604080516001600160a01b039092166020830152818101839052805180830382018152606090920190529091506000610cc0600483611880565b600086815260946020526040902054909150610ce89086906001600160a01b031683866118c0565b50505050610d1f565b815160ff1660041901610d1f576000610d0d83602001516115ce565b9050610d1d828260000151611a19565b505b505050505050505050505050565b610d35610f05565b603180546001600160a01b0319166001600160a01b0392909216919091179055565b610d5f610f05565b63ffffffff90921660009081526001602090815260408083206001600160a01b03909416835292905220805491151560ff19909216919091179055565b6001600160a01b038116600090815260636020526040812060030154610e195760405162461bcd60e51b815260206004820152602760248201527f5374616b653a204e6f20556e7374616b65207265717565737420696e2070726f60448201526663657373696e6760c81b60648201526084015b60405180910390fd5b6001600160a01b038216600090815260636020526040812060030154610e3f9042612451565b9050600f8110610e50576000610e5b565b610e5b81600f612451565b9392505050565b610e6a610f05565b600580546001600160a01b0319166001600160a01b0392909216919091179055565b610e94610f05565b6001600160a01b038116610ebe57604051631e4fbdf760e01b815260006004820152602401610e10565b610ec781611178565b50565b610ed2610f05565b6000828152600260209081526040808320805463ffffffff90951663ffffffff1990951685179055928252600390522055565b33610f377f9016d09d72d40fdae2fd8ceac6b6234c7706214fd39c1cd1e609a0528c199300546001600160a01b031690565b6001600160a01b03161461086b5760405163118cdaa760e01b8152336004820152602401610e10565b610f68611aa0565b6000805160206129e2833981519152805460ff191681557f5db9ee0a495bf2e6ff9c91a7834c1ba4fdd244a5e8aa4e537bd38aeae4b073aa335b6040516001600160a01b03909116815260200160405180910390a150565b306001600160a01b037f000000000000000000000000000000000000000000000000000000000000000016148061104757507f00000000000000000000000000000000000000000000000000000000000000006001600160a01b031661103b6000805160206129c2833981519152546001600160a01b031690565b6001600160a01b031614155b1561086b5760405163703e46dd60e11b815260040160405180910390fd5b610ec7610f05565b816001600160a01b03166352d1902d6040518163ffffffff1660e01b8152600401602060405180830381865afa9250505080156110c7575060408051601f3d908101601f191682019092526110c491810190612464565b60015b6110ef57604051634c9c8ce360e01b81526001600160a01b0383166004820152602401610e10565b6000805160206129c2833981519152811461112057604051632a87526960e21b815260048101829052602401610e10565b61112a8383611ad0565b505050565b306001600160a01b037f0000000000000000000000000000000000000000000000000000000000000000161461086b5760405163703e46dd60e11b815260040160405180910390fd5b7f9016d09d72d40fdae2fd8ceac6b6234c7706214fd39c1cd1e609a0528c19930080546001600160a01b031981166001600160a01b03848116918217845560405192169182907f8be0079c531659141344cd1fd0a4f28419497f9722a3daafe3b4186f6b6457e090600090a3505050565b6108c861132c565b6111f961132c565b6000805160206129e2833981519152805460ff191660011781557f62e78cea01bee320cd4e420270b5ea74000d11b0c9f74754ebdbfc544b05a25833610fa2565b61086b611b26565b61124a611b26565b610ec781611b6f565b61125b611b26565b61086b611b77565b6001600160a01b0380821660009081526063602090815260408083206005548251630857749b60e41b815292519495919491169263857749b092600480820193918290030181865afa1580156112bd573d6000803e3d6000fd5b505050506040513d601f19601f820116820180604052508101906112e1919061247d565b6112ec90600a61257e565b60028201546112fb9042612451565b82546113099060649061258d565b611313919061258d565b61131d91906125a4565b8160010154610e5b91906125c6565b6000805160206129e28339815191525460ff161561086b5760405163d93c066560e01b815260040160405180910390fd5b606061136c82604c81866125d9565b8080601f016020809104026020016040519081016040528093929190818152602001838380828437600092019190915250929695505050505050565b60006113b8600c600884866125d9565b6113c191612603565b60e01c9392505050565b60006113db604c602c84866125d9565b610e5b91612633565b600080600560009054906101000a90046001600160a01b03166001600160a01b0316635e280f116040518163ffffffff1660e01b8152600401602060405180830381865afa15801561143a573d6000803e3d6000fd5b505050506040513d601f19601f8201168201806040525081019061145e9190612651565b9050856001600160a01b0316816001600160a01b0316146114a5576040516308dfccd760e21b81526001600160a01b03808316600483015287166024820152604401610e10565b6001600160a01b03851660009081526020819052604090205460ff166114e95760405163078b3cc360e01b81526001600160a01b0386166004820152602401610e10565b63ffffffff841660009081526001602090815260408083206001600160a01b038716845290915290205460ff1661154a576040516363932e8560e11b815263ffffffff851660048201526001600160a01b0384166024820152604401610e10565b50600195945050505050565b60408051808201909152600081526060602082015281806020019051810190610b91919061266e565b6040805180820190915260008082526020820152600080838060200190518101906115aa919061272c565b604080518082019091526001600160a01b0390921682526020820152949350505050565b6040805160208101909152600081526000828060200190518101906115f39190612651565b60408051602081019091526001600160a01b0390911681529392505050565b6001600160a01b038116600090815260636020526040902060038101541561167c5760405162461bcd60e51b815260206004820152601760248201527f5374616b653a20616c726561647920756e7374616b65640000000000000000006044820152606401610e10565b600560009054906101000a90046001600160a01b03166001600160a01b031663857749b06040518163ffffffff1660e01b8152600401602060405180830381865afa1580156116cf573d6000803e3d6000fd5b505050506040513d601f19601f820116820180604052508101906116f3919061247d565b6116fe90600a61257e565b600282015461170d9042612451565b825461171b9060649061258d565b611725919061258d565b61172f91906125a4565b81600101600082825461174291906125c6565b909155505042600382015580546040519081526001600160a01b0383169084907f37375b03d8924bd8f076f11f8411b9962aa5c02fb489021507bc6bb6f850e3659060200160405180910390a3505050565b6001600160a01b03811660009081526063602052604081206003810154600f906117be9042612451565b101561180c5760405162461bcd60e51b815260206004820152601f60248201527f436865663a20556e7374616b6520706572696f64206e6f7420706173736564006044820152606401610e10565b80546000808355600283018190556003830181905560648054839290611833908490612451565b90915550506040518181526001600160a01b0385169086907fcf7d23a3cbe4e8b36ff82fd1b05b1b17373dc7804b4ebbd6e2356716ef2023729060200160405180910390a3949350505050565b60408051808201825260ff84168152602080820184905291516060926118a89183910161275a565b60405160208183030381529060405291505092915050565b6040805160e0810182526000868152600260209081528382205463ffffffff1683526001600160a01b03878116828501528385018690526060840186905284518083018652838152608085015260a084018790528451918201855282825260c08401919091526005549351633b6f743b60e01b815292939192911690633b6f743b906119529085908590600401612800565b6040805180830381865afa15801561196e573d6000803e3d6000fd5b505050506040513d601f19601f820116820180604052508101906119929190612854565b600554815160405163c7c7f5b360e01b81529293506001600160a01b039091169163c7c7f5b391906119cc90869086903090600401612870565b60c06040518083038185885af11580156119ea573d6000803e3d6000fd5b50505050506040513d601f19601f82011682018060405250810190611a0f91906128c7565b5050505050505050565b6001600160a01b038116600090815260636020526040812090611a3b83611263565b60006001840181905560038401559050611a56848483611b98565b826001600160a01b0316847f4ec90e965519d92681267467f775ada5bd214aa92c0dc93d90a5e880ce9ed02683604051611a9291815260200190565b60405180910390a350505050565b6000805160206129e28339815191525460ff1661086b57604051638dfc202b60e01b815260040160405180910390fd5b611ad982611d92565b6040516001600160a01b038316907fbc7cd75a20ee27fd9adebab32041f755214dbc6bffa90cc0225b39da2e5c2d3b90600090a2805115611b1e5761112a8282611df7565b610888611e6d565b7ff0c57e16840df040f15088dc2f81fe391c3923bec73e23a9662efc9c229c6a0054600160401b900460ff1661086b57604051631afcd79f60e31b815260040160405180910390fd5b610e94611b26565b611b7f611b26565b6000805160206129e2833981519152805460ff19169055565b611ba061132c565b60345460315460405163095ea7b360e01b81526001600160a01b0391821660048201526024810184905291169063095ea7b3906044016020604051808303816000875af1158015611bf5573d6000803e3d6000fd5b505050506040513d601f19601f82011682018060405250810190611c199190612946565b5060008381526032602052604090205463ffffffff16611c7b5760405162461bcd60e51b815260206004820181905260248201527f4343545048616e646c65723a20496e76616c6964204343545020446f6d61696e6044820152606401610e10565b6031546000848152603260205260409020546001600160a01b0390911690636fd3504e90839063ffffffff16611cb086611e8c565b60345460405160e086901b6001600160e01b0319168152600481019490945263ffffffff909216602484015260448301526001600160a01b031660648201526084016020604051808303816000875af1158015611d11573d6000803e3d6000fd5b505050506040513d601f19601f82011682018060405250810190611d359190612963565b506000838152603260209081526040918290205491518381526001600160a01b0385169263ffffffff169186917f72a25f2a0fc7b5adb9053e06dc46bec5d1ceb541264f0ba8cff98cd64b6c345d910160405180910390a4505050565b806001600160a01b03163b600003611dc857604051634c9c8ce360e01b81526001600160a01b0382166004820152602401610e10565b6000805160206129c283398151915280546001600160a01b0319166001600160a01b0392909216919091179055565b6060600080846001600160a01b031684604051611e14919061297e565b600060405180830381855af49150503d8060008114611e4f576040519150601f19603f3d011682016040523d82523d6000602084013e611e54565b606091505b5091509150611e64858383611ebb565b95945050505050565b341561086b5760405163b398979f60e01b815260040160405180910390fd5b604080516001600160a01b038316602082015260009101604051602081830303815290604052610b919061299a565b606082611ed057611ecb82611f17565b610e5b565b8151158015611ee757506001600160a01b0384163b155b15611f1057604051639996b31560e01b81526001600160a01b0385166004820152602401610e10565b5092915050565b805115611f275780518082602001fd5b604051630a12f52160e11b815260040160405180910390fd5b6001600160a01b0381168114610ec757600080fd5b600060208284031215611f6757600080fd5b8135610e5b81611f40565b803563ffffffff81168114611f8657600080fd5b919050565b600060208284031215611f9d57600080fd5b610e5b82611f72565b60008060408385031215611fb957600080fd5b611fc283611f72565b91506020830135611fd281611f40565b809150509250929050565b634e487b7160e01b600052604160045260246000fd5b6040805190810167ffffffffffffffff8111828210171561201657612016611fdd565b60405290565b604051601f8201601f1916810167ffffffffffffffff8111828210171561204557612045611fdd565b604052919050565b600067ffffffffffffffff82111561206757612067611fdd565b50601f01601f191660200190565b6000806040838503121561208857600080fd5b823561209381611f40565b9150602083013567ffffffffffffffff8111156120af57600080fd5b8301601f810185136120c057600080fd5b80356120d36120ce8261204d565b61201c565b8181528660208385010111156120e857600080fd5b816020840160208301376000602083830101528093505050509250929050565b60006020828403121561211a57600080fd5b5035919050565b60008083601f84011261213357600080fd5b50813567ffffffffffffffff81111561214b57600080fd5b60208301915083602082850101111561216357600080fd5b9250929050565b60008060008060006060868803121561218257600080fd5b85359450602086013567ffffffffffffffff808211156121a157600080fd5b6121ad89838a01612121565b909650945060408801359150808211156121c657600080fd5b506121d388828901612121565b969995985093965092949392505050565b60ff81168114610ec757600080fd5b80356001600160801b0381168114611f8657600080fd5b60008060006060848603121561221f57600080fd5b833561222a816121e4565b9250612238602085016121f3565b9150612246604085016121f3565b90509250925092565b60006020828403121561226157600080fd5b813560088110610e5b57600080fd5b8015158114610ec757600080fd5b6000806040838503121561229157600080fd5b823561229c81611f40565b91506020830135611fd281612270565b600080604083850312156122bf57600080fd5b823591506122cf60208401611f72565b90509250929050565b60005b838110156122f35781810151838201526020016122db565b50506000910152565b600081518084526123148160208601602086016122d8565b601f01601f19169290920160200192915050565b602081526000610e5b60208301846122fc565b600080600080600080600060a0888a03121561235657600080fd5b873561236181611f40565b965060208801359550604088013567ffffffffffffffff8082111561238557600080fd5b6123918b838c01612121565b909750955060608a013591506123a682611f40565b909350608089013590808211156123bc57600080fd5b506123c98a828b01612121565b989b979a50959850939692959293505050565b6000806000606084860312156123f157600080fd5b6123fa84611f72565b9250602084013561240a81611f40565b9150604084013561241a81612270565b809150509250925092565b634e487b7160e01b600052602160045260246000fd5b634e487b7160e01b600052601160045260246000fd5b81810381811115610b9157610b9161243b565b60006020828403121561247657600080fd5b5051919050565b60006020828403121561248f57600080fd5b8151610e5b816121e4565b600181815b808511156124d55781600019048211156124bb576124bb61243b565b808516156124c857918102915b93841c939080029061249f565b509250929050565b6000826124ec57506001610b91565b816124f957506000610b91565b816001811461250f576002811461251957612535565b6001915050610b91565b60ff84111561252a5761252a61243b565b50506001821b610b91565b5060208310610133831016604e8410600b8410161715612558575081810a610b91565b612562838361249a565b80600019048211156125765761257661243b565b029392505050565b6000610e5b60ff8416836124dd565b8082028115828204841417610b9157610b9161243b565b6000826125c157634e487b7160e01b600052601260045260246000fd5b500490565b80820180821115610b9157610b9161243b565b600080858511156125e957600080fd5b838611156125f657600080fd5b5050820193919092039150565b6001600160e01b0319813581811691600485101561262b5780818660040360031b1b83161692505b505092915050565b80356020831015610b9157600019602084900360031b1b1692915050565b60006020828403121561266357600080fd5b8151610e5b81611f40565b6000602080838503121561268157600080fd5b825167ffffffffffffffff8082111561269957600080fd5b90840190604082870312156126ad57600080fd5b6126b5611ff3565b82516126c0816121e4565b815282840151828111156126d357600080fd5b80840193505086601f8401126126e857600080fd5b825191506126f86120ce8361204d565b828152878584860101111561270c57600080fd5b61271b838683018787016122d8565b938101939093525090949350505050565b6000806040838503121561273f57600080fd5b825161274a81611f40565b6020939093015192949293505050565b6020815260ff82511660208201526000602083015160408084015261278260608401826122fc565b949350505050565b63ffffffff81511682526020810151602083015260408101516040830152606081015160608301526000608082015160e060808501526127cd60e08501826122fc565b905060a083015184820360a08601526127e682826122fc565b91505060c083015184820360c0860152611e6482826122fc565b604081526000612813604083018561278a565b905082151560208301529392505050565b60006040828403121561283657600080fd5b61283e611ff3565b9050815181526020820151602082015292915050565b60006040828403121561286657600080fd5b610e5b8383612824565b608081526000612883608083018661278a565b8451602084810191909152909401516040830152506001600160a01b0391909116606090910152919050565b805167ffffffffffffffff81168114611f8657600080fd5b60008082840360c08112156128db57600080fd5b60808112156128e957600080fd5b506040516060810181811067ffffffffffffffff8211171561290d5761290d611fdd565b60405283518152612920602085016128af565b60208201526129328560408601612824565b604082015291506122cf8460808501612824565b60006020828403121561295857600080fd5b8151610e5b81612270565b60006020828403121561297557600080fd5b610e5b826128af565b600082516129908184602087016122d8565b9190910192915050565b805160208083015191908110156129bb576000198160200360031b1b821691505b5091905056fe360894a13ba1a3210667c828492db98dca3e2076cc3735a920a3ca505d382bbccd5ed15c6e187e77e9aee88184c21f4f2182ab5827cb3b7e07fbedcd63f03300a264697066735822122098c10794dc7860141dde92c6ad21d4ba4ee12b0d1c4299048f4559c9e491eedc64736f6c63430008140033",
  "devdoc": {
    "errors": {
      "AddressEmptyCode(address)": [
        {
          "details": "There's no code at `target` (it is not a contract)."
        }
      ],
      "ERC1967InvalidImplementation(address)": [
        {
          "details": "The `implementation` of the proxy is invalid."
        }
      ],
      "ERC1967NonPayable()": [
        {
          "details": "An upgrade function sees `msg.value > 0` that may be lost."
        }
      ],
      "EnforcedPause()": [
        {
          "details": "The operation failed because the contract is paused."
        }
      ],
      "ExpectedPause()": [
        {
          "details": "The operation failed because the contract is not paused."
        }
      ],
      "FailedInnerCall()": [
        {
          "details": "A call to an address target failed. The target may have reverted."
        }
      ],
      "InvalidInitialization()": [
        {
          "details": "The contract is already initialized."
        }
      ],
      "NotInitializing()": [
        {
          "details": "The contract is not initializing."
        }
      ],
      "OwnableInvalidOwner(address)": [
        {
          "details": "The owner is not a valid owner account. (eg. `address(0)`)"
        }
      ],
      "OwnableUnauthorizedAccount(address)": [
        {
          "details": "The caller account is not authorized to perform an operation."
        }
      ],
      "UUPSUnauthorizedCallContext()": [
        {
          "details": "The call is from an unauthorized context."
        }
      ],
      "UUPSUnsupportedProxiableUUID(bytes32)": [
        {
          "details": "The storage `slot` is unsupported as a UUID."
        }
      ]
    },
    "events": {
      "Initialized(uint64)": {
        "details": "Triggered when the contract has been initialized or reinitialized."
      },
      "Paused(address)": {
        "details": "Emitted when the pause is triggered by `account`."
      },
      "Unpaused(address)": {
        "details": "Emitted when the pause is lifted by `account`."
      },
      "Upgraded(address)": {
        "details": "Emitted when the implementation is upgraded."
      }
    },
    "kind": "dev",
    "methods": {
      "owner()": {
        "details": "Returns the address of the current owner."
      },
      "paused()": {
        "details": "Returns true if the contract is paused, and false otherwise."
      },
      "proxiableUUID()": {
        "details": "Implementation of the ERC1822 {proxiableUUID} function. This returns the storage slot used by the implementation. It is used to validate the implementation's compatibility when performing an upgrade. IMPORTANT: A proxy pointing at a proxiable contract should not be considered proxiable itself, because this risks bricking a proxy that upgrades to it, by delegating to itself until out of gas. Thus it is critical that this function revert if invoked through a proxy. This is guaranteed by the `notDelegated` modifier."
      },
      "renounceOwnership()": {
        "details": "Leaves the contract without owner. It will not be possible to call `onlyOwner` functions. Can only be called by the current owner. NOTE: Renouncing ownership will leave the contract without an owner, thereby disabling any functionality that is only available to the owner."
      },
      "transferOwnership(address)": {
        "details": "Transfers ownership of the contract to a new account (`newOwner`). Can only be called by the current owner."
      },
      "upgradeToAndCall(address,bytes)": {
        "custom:oz-upgrades-unsafe-allow-reachable": "delegatecall",
        "details": "Upgrade the implementation of the proxy to `newImplementation`, and subsequently execute the function call encoded in `data`. Calls {_authorizeUpgrade}. Emits an {Upgraded} event."
      }
    },
    "version": 1
  },
  "userdoc": {
    "kind": "user",
    "methods": {},
    "version": 1
  },
  "storageLayout": {
    "storage": [
      {
        "astId": 13255,
        "contract": "contracts/stake/Chef.sol:Chef",
        "label": "localComposeMsgSender",
        "offset": 0,
        "slot": "0",
        "type": "t_mapping(t_address,t_bool)"
      },
      {
        "astId": 13261,
        "contract": "contracts/stake/Chef.sol:Chef",
        "label": "remoteComposeMsgSender",
        "offset": 0,
        "slot": "1",
        "type": "t_mapping(t_uint32,t_mapping(t_address,t_bool))"
      },
      {
        "astId": 13265,
        "contract": "contracts/stake/Chef.sol:Chef",
        "label": "chainId2Eid",
        "offset": 0,
        "slot": "2",
        "type": "t_mapping(t_uint256,t_uint32)"
      },
      {
        "astId": 13269,
        "contract": "contracts/stake/Chef.sol:Chef",
        "label": "eid2ChainId",
        "offset": 0,
        "slot": "3",
        "type": "t_mapping(t_uint32,t_uint256)"
      },
      {
        "astId": 13275,
        "contract": "contracts/stake/Chef.sol:Chef",
        "label": "lzOptions",
        "offset": 0,
        "slot": "4",
        "type": "t_mapping(t_enum(PayloadTypes)14419,t_struct(LzOptions)14203_storage)"
      },
      {
        "astId": 13277,
        "contract": "contracts/stake/Chef.sol:Chef",
        "label": "oft",
        "offset": 0,
        "slot": "5",
        "type": "t_address"
      },
      {
        "astId": 13281,
        "contract": "contracts/stake/Chef.sol:Chef",
        "label": "__gap",
        "offset": 0,
        "slot": "6",
        "type": "t_array(t_uint256)43_storage"
      },
      {
        "astId": 13643,
        "contract": "contracts/stake/Chef.sol:Chef",
        "label": "tokenMessager",
        "offset": 0,
        "slot": "49",
        "type": "t_contract(ITokenMessenger)14408"
      },
      {
        "astId": 13647,
        "contract": "contracts/stake/Chef.sol:Chef",
        "label": "chainId2DomainId",
        "offset": 0,
        "slot": "50",
        "type": "t_mapping(t_uint256,t_uint32)"
      },
      {
        "astId": 13651,
        "contract": "contracts/stake/Chef.sol:Chef",
        "label": "domainId2ChainId",
        "offset": 0,
        "slot": "51",
        "type": "t_mapping(t_uint32,t_uint256)"
      },
      {
        "astId": 13653,
        "contract": "contracts/stake/Chef.sol:Chef",
        "label": "usdc",
        "offset": 0,
        "slot": "52",
        "type": "t_address"
      },
      {
        "astId": 13657,
        "contract": "contracts/stake/Chef.sol:Chef",
        "label": "__gap",
        "offset": 0,
        "slot": "53",
        "type": "t_array(t_uint256)46_storage"
      },
      {
        "astId": 13837,
        "contract": "contracts/stake/Chef.sol:Chef",
        "label": "userStakeInfo",
        "offset": 0,
        "slot": "99",
        "type": "t_mapping(t_address,t_struct(StakeInfo)13794_storage)"
      },
      {
        "astId": 13839,
        "contract": "contracts/stake/Chef.sol:Chef",
        "label": "totalStakedAmount",
        "offset": 0,
        "slot": "100",
        "type": "t_uint256"
      },
      {
        "astId": 13843,
        "contract": "contracts/stake/Chef.sol:Chef",
        "label": "__gap",
        "offset": 0,
        "slot": "101",
        "type": "t_array(t_uint256)47_storage"
      },
      {
        "astId": 12554,
        "contract": "contracts/stake/Chef.sol:Chef",
        "label": "waiters",
        "offset": 0,
        "slot": "148",
        "type": "t_mapping(t_uint256,t_address)"
      },
      {
        "astId": 12556,
        "contract": "contracts/stake/Chef.sol:Chef",
        "label": "backend",
        "offset": 0,
        "slot": "149",
        "type": "t_address"
      }
    ],
    "types": {
      "t_address": {
        "encoding": "inplace",
        "label": "address",
        "numberOfBytes": "20"
      },
      "t_array(t_uint256)43_storage": {
        "base": "t_uint256",
        "encoding": "inplace",
        "label": "uint256[43]",
        "numberOfBytes": "1376"
      },
      "t_array(t_uint256)46_storage": {
        "base": "t_uint256",
        "encoding": "inplace",
        "label": "uint256[46]",
        "numberOfBytes": "1472"
      },
      "t_array(t_uint256)47_storage": {
        "base": "t_uint256",
        "encoding": "inplace",
        "label": "uint256[47]",
        "numberOfBytes": "1504"
      },
      "t_bool": {
        "encoding": "inplace",
        "label": "bool",
        "numberOfBytes": "1"
      },
      "t_contract(ITokenMessenger)14408": {
        "encoding": "inplace",
        "label": "contract ITokenMessenger",
        "numberOfBytes": "20"
      },
      "t_enum(PayloadTypes)14419": {
        "encoding": "inplace",
        "label": "enum LzMessageLib.PayloadTypes",
        "numberOfBytes": "1"
      },
      "t_mapping(t_address,t_bool)": {
        "encoding": "mapping",
        "key": "t_address",
        "label": "mapping(address => bool)",
        "numberOfBytes": "32",
        "value": "t_bool"
      },
      "t_mapping(t_address,t_struct(StakeInfo)13794_storage)": {
        "encoding": "mapping",
        "key": "t_address",
        "label": "mapping(address => struct StakeUpgradeable.StakeInfo)",
        "numberOfBytes": "32",
        "value": "t_struct(StakeInfo)13794_storage"
      },
      "t_mapping(t_enum(PayloadTypes)14419,t_struct(LzOptions)14203_storage)": {
        "encoding": "mapping",
        "key": "t_enum(PayloadTypes)14419",
        "label": "mapping(enum LzMessageLib.PayloadTypes => struct LzOptions)",
        "numberOfBytes": "32",
        "value": "t_struct(LzOptions)14203_storage"
      },
      "t_mapping(t_uint256,t_address)": {
        "encoding": "mapping",
        "key": "t_uint256",
        "label": "mapping(uint256 => address)",
        "numberOfBytes": "32",
        "value": "t_address"
      },
      "t_mapping(t_uint256,t_uint32)": {
        "encoding": "mapping",
        "key": "t_uint256",
        "label": "mapping(uint256 => uint32)",
        "numberOfBytes": "32",
        "value": "t_uint32"
      },
      "t_mapping(t_uint32,t_mapping(t_address,t_bool))": {
        "encoding": "mapping",
        "key": "t_uint32",
        "label": "mapping(uint32 => mapping(address => bool))",
        "numberOfBytes": "32",
        "value": "t_mapping(t_address,t_bool)"
      },
      "t_mapping(t_uint32,t_uint256)": {
        "encoding": "mapping",
        "key": "t_uint32",
        "label": "mapping(uint32 => uint256)",
        "numberOfBytes": "32",
        "value": "t_uint256"
      },
      "t_struct(LzOptions)14203_storage": {
        "encoding": "inplace",
        "label": "struct LzOptions",
        "members": [
          {
            "astId": 14200,
            "contract": "contracts/stake/Chef.sol:Chef",
            "label": "gas",
            "offset": 0,
            "slot": "0",
            "type": "t_uint128"
          },
          {
            "astId": 14202,
            "contract": "contracts/stake/Chef.sol:Chef",
            "label": "value",
            "offset": 16,
            "slot": "0",
            "type": "t_uint128"
          }
        ],
        "numberOfBytes": "32"
      },
      "t_struct(StakeInfo)13794_storage": {
        "encoding": "inplace",
        "label": "struct StakeUpgradeable.StakeInfo",
        "members": [
          {
            "astId": 13787,
            "contract": "contracts/stake/Chef.sol:Chef",
            "label": "stakeAmount",
            "offset": 0,
            "slot": "0",
            "type": "t_uint256"
          },
          {
            "astId": 13789,
            "contract": "contracts/stake/Chef.sol:Chef",
            "label": "stakeReward",
            "offset": 0,
            "slot": "1",
            "type": "t_uint256"
          },
          {
            "astId": 13791,
            "contract": "contracts/stake/Chef.sol:Chef",
            "label": "lastStakeTime",
            "offset": 0,
            "slot": "2",
            "type": "t_uint256"
          },
          {
            "astId": 13793,
            "contract": "contracts/stake/Chef.sol:Chef",
            "label": "lastUnstakeTime",
            "offset": 0,
            "slot": "3",
            "type": "t_uint256"
          }
        ],
        "numberOfBytes": "128"
      },
      "t_uint128": {
        "encoding": "inplace",
        "label": "uint128",
        "numberOfBytes": "16"
      },
      "t_uint256": {
        "encoding": "inplace",
        "label": "uint256",
        "numberOfBytes": "32"
      },
      "t_uint32": {
        "encoding": "inplace",
        "label": "uint32",
        "numberOfBytes": "4"
      }
    }
  }
}