{
  "address": "0x937fD4E57e96785bd9DA28032bE50e9e0d094403",
  "abi": [
    {
      "inputs": [
        {
          "internalType": "address",
          "name": "target",
          "type": "address"
        }
      ],
      "name": "AddressEmptyCode",
      "type": "error"
    },
    {
      "inputs": [
        {
          "internalType": "address",
          "name": "account",
          "type": "address"
        }
      ],
      "name": "AddressInsufficientBalance",
      "type": "error"
    },
    {
      "inputs": [
        {
          "internalType": "address",
          "name": "implementation",
          "type": "address"
        }
      ],
      "name": "ERC1967InvalidImplementation",
      "type": "error"
    },
    {
      "inputs": [],
      "name": "ERC1967NonPayable",
      "type": "error"
    },
    {
      "inputs": [],
      "name": "EnforcedPause",
      "type": "error"
    },
    {
      "inputs": [],
      "name": "ExpectedPause",
      "type": "error"
    },
    {
      "inputs": [],
      "name": "FailedInnerCall",
      "type": "error"
    },
    {
      "inputs": [
        {
          "internalType": "address",
          "name": "savedEndpoint",
          "type": "address"
        },
        {
          "internalType": "address",
          "name": "realEndpoint",
          "type": "address"
        }
      ],
      "name": "InvalidEnpoint",
      "type": "error"
    },
    {
      "inputs": [],
      "name": "InvalidInitialization",
      "type": "error"
    },
    {
      "inputs": [],
      "name": "NotInitializing",
      "type": "error"
    },
    {
      "inputs": [
        {
          "internalType": "address",
          "name": "sender",
          "type": "address"
        }
      ],
      "name": "NotLocalComposeMsgSender",
      "type": "error"
    },
    {
      "inputs": [
        {
          "internalType": "uint32",
          "name": "eid",
          "type": "uint32"
        },
        {
          "internalType": "address",
          "name": "sender",
          "type": "address"
        }
      ],
      "name": "NotRemoteComposeMsgSender",
      "type": "error"
    },
    {
      "inputs": [
        {
          "internalType": "address",
          "name": "owner",
          "type": "address"
        }
      ],
      "name": "OwnableInvalidOwner",
      "type": "error"
    },
    {
      "inputs": [
        {
          "internalType": "address",
          "name": "account",
          "type": "address"
        }
      ],
      "name": "OwnableUnauthorizedAccount",
      "type": "error"
    },
    {
      "inputs": [
        {
          "internalType": "address",
          "name": "token",
          "type": "address"
        }
      ],
      "name": "SafeERC20FailedOperation",
      "type": "error"
    },
    {
      "inputs": [],
      "name": "UUPSUnauthorizedCallContext",
      "type": "error"
    },
    {
      "inputs": [
        {
          "internalType": "bytes32",
          "name": "slot",
          "type": "bytes32"
        }
      ],
      "name": "UUPSUnsupportedProxiableUUID",
      "type": "error"
    },
    {
      "anonymous": false,
      "inputs": [
        {
          "indexed": true,
          "internalType": "address",
          "name": "staker",
          "type": "address"
        },
        {
          "indexed": false,
          "internalType": "uint256",
          "name": "amount",
          "type": "uint256"
        }
      ],
      "name": "ClaimFinished",
      "type": "event"
    },
    {
      "anonymous": false,
      "inputs": [
        {
          "indexed": true,
          "internalType": "address",
          "name": "staker",
          "type": "address"
        },
        {
          "indexed": false,
          "internalType": "uint256",
          "name": "amount",
          "type": "uint256"
        }
      ],
      "name": "ClaimSent",
      "type": "event"
    },
    {
      "anonymous": false,
      "inputs": [
        {
          "indexed": true,
          "internalType": "address",
          "name": "composeMsgSender",
          "type": "address"
        },
        {
          "indexed": false,
          "internalType": "bool",
          "name": "allowed",
          "type": "bool"
        }
      ],
      "name": "ComposeMsgSenderSet",
      "type": "event"
    },
    {
      "anonymous": false,
      "inputs": [
        {
          "indexed": true,
          "internalType": "uint256",
          "name": "chainId",
          "type": "uint256"
        },
        {
          "indexed": false,
          "internalType": "uint32",
          "name": "eid",
          "type": "uint32"
        }
      ],
      "name": "EidSet",
      "type": "event"
    },
    {
      "anonymous": false,
      "inputs": [
        {
          "indexed": true,
          "internalType": "address",
          "name": "endpoint",
          "type": "address"
        }
      ],
      "name": "EndpointSet",
      "type": "event"
    },
    {
      "anonymous": false,
      "inputs": [
        {
          "indexed": false,
          "internalType": "uint64",
          "name": "version",
          "type": "uint64"
        }
      ],
      "name": "Initialized",
      "type": "event"
    },
    {
      "anonymous": false,
      "inputs": [
        {
          "indexed": true,
          "internalType": "address",
          "name": "oft",
          "type": "address"
        }
      ],
      "name": "OftSet",
      "type": "event"
    },
    {
      "anonymous": false,
      "inputs": [
        {
          "indexed": true,
          "internalType": "address",
          "name": "previousOwner",
          "type": "address"
        },
        {
          "indexed": true,
          "internalType": "address",
          "name": "newOwner",
          "type": "address"
        }
      ],
      "name": "OwnershipTransferred",
      "type": "event"
    },
    {
      "anonymous": false,
      "inputs": [
        {
          "indexed": false,
          "internalType": "address",
          "name": "account",
          "type": "address"
        }
      ],
      "name": "Paused",
      "type": "event"
    },
    {
      "anonymous": false,
      "inputs": [
        {
          "indexed": true,
          "internalType": "address",
          "name": "staker",
          "type": "address"
        },
        {
          "indexed": false,
          "internalType": "uint256",
          "name": "amount",
          "type": "uint256"
        }
      ],
      "name": "StakeSent",
      "type": "event"
    },
    {
      "anonymous": false,
      "inputs": [
        {
          "indexed": false,
          "internalType": "address",
          "name": "account",
          "type": "address"
        }
      ],
      "name": "Unpaused",
      "type": "event"
    },
    {
      "anonymous": false,
      "inputs": [
        {
          "indexed": true,
          "internalType": "address",
          "name": "staker",
          "type": "address"
        }
      ],
      "name": "UnstakeSent",
      "type": "event"
    },
    {
      "anonymous": false,
      "inputs": [
        {
          "indexed": true,
          "internalType": "address",
          "name": "implementation",
          "type": "address"
        }
      ],
      "name": "Upgraded",
      "type": "event"
    },
    {
      "anonymous": false,
      "inputs": [
        {
          "indexed": true,
          "internalType": "address",
          "name": "staker",
          "type": "address"
        },
        {
          "indexed": false,
          "internalType": "uint256",
          "name": "amount",
          "type": "uint256"
        }
      ],
      "name": "WithdrawFinished",
      "type": "event"
    },
    {
      "anonymous": false,
      "inputs": [
        {
          "indexed": true,
          "internalType": "address",
          "name": "staker",
          "type": "address"
        }
      ],
      "name": "WithdrawSent",
      "type": "event"
    },
    {
      "stateMutability": "payable",
      "type": "fallback"
    },
    {
      "inputs": [],
      "name": "UPGRADE_INTERFACE_VERSION",
      "outputs": [
        {
          "internalType": "string",
          "name": "",
          "type": "string"
        }
      ],
      "stateMutability": "view",
      "type": "function"
    },
    {
      "inputs": [],
      "name": "backend",
      "outputs": [
        {
          "internalType": "address",
          "name": "",
          "type": "address"
        }
      ],
      "stateMutability": "view",
      "type": "function"
    },
    {
      "inputs": [
        {
          "internalType": "uint256",
          "name": "",
          "type": "uint256"
        }
      ],
      "name": "chainId2Eid",
      "outputs": [
        {
          "internalType": "uint32",
          "name": "",
          "type": "uint32"
        }
      ],
      "stateMutability": "view",
      "type": "function"
    },
    {
      "inputs": [],
      "name": "chef",
      "outputs": [
        {
          "internalType": "address",
          "name": "",
          "type": "address"
        }
      ],
      "stateMutability": "view",
      "type": "function"
    },
    {
      "inputs": [],
      "name": "claim",
      "outputs": [],
      "stateMutability": "payable",
      "type": "function"
    },
    {
      "inputs": [
        {
          "internalType": "uint32",
          "name": "",
          "type": "uint32"
        }
      ],
      "name": "eid2ChainId",
      "outputs": [
        {
          "internalType": "uint256",
          "name": "",
          "type": "uint256"
        }
      ],
      "stateMutability": "view",
      "type": "function"
    },
    {
      "inputs": [],
      "name": "hubChainId",
      "outputs": [
        {
          "internalType": "uint256",
          "name": "",
          "type": "uint256"
        }
      ],
      "stateMutability": "view",
      "type": "function"
    },
    {
      "inputs": [
        {
          "internalType": "address",
          "name": "_owner",
          "type": "address"
        }
      ],
      "name": "initialize",
      "outputs": [],
      "stateMutability": "nonpayable",
      "type": "function"
    },
    {
      "inputs": [
        {
          "internalType": "address",
          "name": "",
          "type": "address"
        }
      ],
      "name": "localComposeMsgSender",
      "outputs": [
        {
          "internalType": "bool",
          "name": "",
          "type": "bool"
        }
      ],
      "stateMutability": "view",
      "type": "function"
    },
    {
      "inputs": [
        {
          "internalType": "address",
          "name": "_from",
          "type": "address"
        },
        {
          "internalType": "bytes32",
          "name": "",
          "type": "bytes32"
        },
        {
          "internalType": "bytes",
          "name": "_message",
          "type": "bytes"
        },
        {
          "internalType": "address",
          "name": "",
          "type": "address"
        },
        {
          "internalType": "bytes",
          "name": "",
          "type": "bytes"
        }
      ],
      "name": "lzCompose",
      "outputs": [],
      "stateMutability": "payable",
      "type": "function"
    },
    {
      "inputs": [
        {
          "internalType": "enum LzMessageLib.PayloadTypes",
          "name": "",
          "type": "uint8"
        }
      ],
      "name": "lzOptions",
      "outputs": [
        {
          "internalType": "uint128",
          "name": "gas",
          "type": "uint128"
        },
        {
          "internalType": "uint128",
          "name": "value",
          "type": "uint128"
        }
      ],
      "stateMutability": "view",
      "type": "function"
    },
    {
      "inputs": [],
      "name": "oft",
      "outputs": [
        {
          "internalType": "address",
          "name": "",
          "type": "address"
        }
      ],
      "stateMutability": "view",
      "type": "function"
    },
    {
      "inputs": [],
      "name": "owner",
      "outputs": [
        {
          "internalType": "address",
          "name": "",
          "type": "address"
        }
      ],
      "stateMutability": "view",
      "type": "function"
    },
    {
      "inputs": [],
      "name": "pause",
      "outputs": [],
      "stateMutability": "nonpayable",
      "type": "function"
    },
    {
      "inputs": [],
      "name": "paused",
      "outputs": [
        {
          "internalType": "bool",
          "name": "",
          "type": "bool"
        }
      ],
      "stateMutability": "view",
      "type": "function"
    },
    {
      "inputs": [],
      "name": "proxiableUUID",
      "outputs": [
        {
          "internalType": "bytes32",
          "name": "",
          "type": "bytes32"
        }
      ],
      "stateMutability": "view",
      "type": "function"
    },
    {
      "inputs": [
        {
          "internalType": "uint32",
          "name": "",
          "type": "uint32"
        },
        {
          "internalType": "address",
          "name": "",
          "type": "address"
        }
      ],
      "name": "remoteComposeMsgSender",
      "outputs": [
        {
          "internalType": "bool",
          "name": "",
          "type": "bool"
        }
      ],
      "stateMutability": "view",
      "type": "function"
    },
    {
      "inputs": [],
      "name": "renounceOwnership",
      "outputs": [],
      "stateMutability": "nonpayable",
      "type": "function"
    },
    {
      "inputs": [
        {
          "internalType": "address",
          "name": "_backend",
          "type": "address"
        }
      ],
      "name": "setBackend",
      "outputs": [],
      "stateMutability": "nonpayable",
      "type": "function"
    },
    {
      "inputs": [
        {
          "internalType": "address",
          "name": "_chef",
          "type": "address"
        }
      ],
      "name": "setChef",
      "outputs": [],
      "stateMutability": "nonpayable",
      "type": "function"
    },
    {
      "inputs": [
        {
          "internalType": "uint256",
          "name": "_chainId",
          "type": "uint256"
        },
        {
          "internalType": "uint32",
          "name": "_eid",
          "type": "uint32"
        }
      ],
      "name": "setEid",
      "outputs": [],
      "stateMutability": "nonpayable",
      "type": "function"
    },
    {
      "inputs": [
        {
          "internalType": "uint256",
          "name": "_hubChainId",
          "type": "uint256"
        }
      ],
      "name": "setHubChainId",
      "outputs": [],
      "stateMutability": "nonpayable",
      "type": "function"
    },
    {
      "inputs": [
        {
          "internalType": "address",
          "name": "_addr",
          "type": "address"
        },
        {
          "internalType": "bool",
          "name": "_allowed",
          "type": "bool"
        }
      ],
      "name": "setLocalComposeMsgSender",
      "outputs": [],
      "stateMutability": "nonpayable",
      "type": "function"
    },
    {
      "inputs": [
        {
          "internalType": "address",
          "name": "_oft",
          "type": "address"
        }
      ],
      "name": "setOft",
      "outputs": [],
      "stateMutability": "nonpayable",
      "type": "function"
    },
    {
      "inputs": [
        {
          "internalType": "uint8",
          "name": "_payloadType",
          "type": "uint8"
        },
        {
          "internalType": "uint128",
          "name": "_gas",
          "type": "uint128"
        },
        {
          "internalType": "uint128",
          "name": "_value",
          "type": "uint128"
        }
      ],
      "name": "setPayloadOptions",
      "outputs": [],
      "stateMutability": "nonpayable",
      "type": "function"
    },
    {
      "inputs": [
        {
          "internalType": "uint32",
          "name": "_eid",
          "type": "uint32"
        },
        {
          "internalType": "address",
          "name": "_addr",
          "type": "address"
        },
        {
          "internalType": "bool",
          "name": "_allowed",
          "type": "bool"
        }
      ],
      "name": "setRemoteComposeMsgSender",
      "outputs": [],
      "stateMutability": "nonpayable",
      "type": "function"
    },
    {
      "inputs": [
        {
          "internalType": "uint256",
          "name": "_amount",
          "type": "uint256"
        }
      ],
      "name": "stake",
      "outputs": [],
      "stateMutability": "payable",
      "type": "function"
    },
    {
      "inputs": [
        {
          "internalType": "address",
          "name": "newOwner",
          "type": "address"
        }
      ],
      "name": "transferOwnership",
      "outputs": [],
      "stateMutability": "nonpayable",
      "type": "function"
    },
    {
      "inputs": [],
      "name": "unpause",
      "outputs": [],
      "stateMutability": "nonpayable",
      "type": "function"
    },
    {
      "inputs": [],
      "name": "unstake",
      "outputs": [],
      "stateMutability": "payable",
      "type": "function"
    },
    {
      "inputs": [
        {
          "internalType": "address",
          "name": "newImplementation",
          "type": "address"
        },
        {
          "internalType": "bytes",
          "name": "data",
          "type": "bytes"
        }
      ],
      "name": "upgradeToAndCall",
      "outputs": [],
      "stateMutability": "payable",
      "type": "function"
    },
    {
      "inputs": [],
      "name": "withdraw",
      "outputs": [],
      "stateMutability": "payable",
      "type": "function"
    },
    {
      "stateMutability": "payable",
      "type": "receive"
    }
  ],
  "transactionHash": "0x52999e22745b45b11c2171c74c1edefceff6f6f876f29ecd635563b829254d30",
  "args": [],
  "numDeployments": 1,
  "solcInputHash": "1acaff75e258941f9229295b28c35bfe",
  "bytecode": "0x60a06040523060805234801561001457600080fd5b50608051611dbd61003e60003960008181610e4201528181610e6b0152610fb10152611dbd6000f3fe6080604052600436106101cf5760003560e01c80638da5cb5b116100f6578063b223331c1161008f578063dc9e80a411610061578063dc9e80a4146105d3578063f29e8d2c146105f3578063f2fde38b14610613578063fe8e9c1f1461063357005b8063b223331c1461054f578063c4d66de81461057c578063d0a102601461059c578063da7fc24f146105b357005b80639b5215f6116100c85780639b5215f6146104be578063a694fc3a146104de578063a9401ba5146104f1578063ad3cb1cc1461051157005b80638da5cb5b146103ea578063904b25eb14610427578063929f58401461048857806395b410e41461049e57005b80634e71d92d116101685780635c975abb1161013a5780635c975abb1461037b578063715018a6146103a05780637a7f2bb8146103b55780638456cb59146103d557005b80634e71d92d146102f55780634f1ef286146102fd57806352d1902d1461031057806358851ca11461033357005b80632def6620116101a15780632def66201461029557806332c352541461029d5780633ccfd60b146102d85780633f4ba83a146102e057005b806304a89e57146101d8578063099e4133146101f85780630cff4e06146102355780631fc8bc5d1461027557005b366101d657005b005b3480156101e457600080fd5b506101d66101f33660046116b2565b610653565b34801561020457600080fd5b50603154610218906001600160a01b031681565b6040516001600160a01b0390911681526020015b60405180910390f35b34801561024157600080fd5b506102656102503660046116b2565b60006020819052908152604090205460ff1681565b604051901515815260200161022c565b34801561028157600080fd5b50603354610218906001600160a01b031681565b6101d661067d565b3480156102a957600080fd5b506102656102b83660046116e8565b600160209081526000928352604080842090915290825290205460ff1681565b6101d66106a9565b3480156102ec57600080fd5b506101d66106c2565b6101d66106d4565b6101d661030b366004611766565b6106ed565b34801561031c57600080fd5b50610325610708565b60405190815260200161022c565b34801561033f57600080fd5b5061036661034e36600461180e565b60026020526000908152604090205463ffffffff1681565b60405163ffffffff909116815260200161022c565b34801561038757600080fd5b50600080516020611d688339815191525460ff16610265565b3480156103ac57600080fd5b506101d6610725565b3480156103c157600080fd5b506101d66103d036600461183e565b610737565b3480156103e157600080fd5b506101d66107d7565b3480156103f657600080fd5b507f9016d09d72d40fdae2fd8ceac6b6234c7706214fd39c1cd1e609a0528c199300546001600160a01b0316610218565b34801561043357600080fd5b50610468610442366004611889565b6004602052600090815260409020546001600160801b0380821691600160801b90041682565b604080516001600160801b0393841681529290911660208301520161022c565b34801561049457600080fd5b5061032560325481565b3480156104aa57600080fd5b506101d66104b93660046118b8565b6107e7565b3480156104ca57600080fd5b50600554610218906001600160a01b031681565b6101d66104ec36600461180e565b61081a565b3480156104fd57600080fd5b506101d661050c36600461180e565b6108e9565b34801561051d57600080fd5b50610542604051806040016040528060058152602001640352e302e360dc1b81525081565b60405161022c9190611936565b34801561055b57600080fd5b5061032561056a366004611949565b60036020526000908152604090205481565b34801561058857600080fd5b506101d66105973660046116b2565b6108f6565b6101d66105aa3660046119ad565b50505050505050565b3480156105bf57600080fd5b506101d66105ce3660046116b2565b610a16565b3480156105df57600080fd5b506101d66105ee366004611a4e565b610a40565b3480156105ff57600080fd5b506101d661060e3660046116b2565b610a85565b34801561061f57600080fd5b506101d661062e3660046116b2565b610aaf565b34801561063f57600080fd5b506101d661064e366004611a97565b610af2565b61065b610b2d565b603380546001600160a01b0319166001600160a01b0392909216919091179055565b600061068833610b88565b9050600061069860025b83610bb5565b90506106a5816000610bf5565b5050565b60006106b433610b88565b905060006106986003610692565b6106ca610b2d565b6106d2610dd7565b565b60006106df33610b88565b905060006106986005610692565b6106f5610e37565b6106fe82610edc565b6106a58282610ee4565b6000610712610fa6565b50600080516020611d4883398151915290565b61072d610b2d565b6106d26000610fef565b61073f610b2d565b6040518060400160405280836001600160801b03168152602001826001600160801b0316815250600460008560ff16600781111561077f5761077f611ac3565b600781111561079057610790611ac3565b60078111156107a1576107a1611ac3565b8152602080820192909252604001600020825192909101516001600160801b03908116600160801b029216919091179055505050565b6107df610b2d565b6106d2611060565b6107ef610b2d565b6001600160a01b03919091166000908152602081905260409020805460ff1916911515919091179055565b60055460408051637e062a3560e11b815290516000926001600160a01b03169163fc0c546a9160048083019260209291908290030181865afa158015610864573d6000803e3d6000fd5b505050506040513d601f19601f820116820180604052508101906108889190611ad9565b90506108958133846110a9565b6108aa6001600160a01b03821633308561125d565b60408051336020820152808201849052815180820383018152606090910190915260006108d76001610692565b90506108e38185610bf5565b50505050565b6108f1610b2d565b603255565b7ff0c57e16840df040f15088dc2f81fe391c3923bec73e23a9662efc9c229c6a008054600160401b810460ff16159067ffffffffffffffff1660008115801561093c5750825b905060008267ffffffffffffffff1660011480156109595750303b155b905081158015610967575080155b156109855760405163f92ee8a960e01b815260040160405180910390fd5b845467ffffffffffffffff1916600117855583156109af57845460ff60401b1916600160401b1785555b6109b76112b7565b6109c0866112bf565b6109c86112d0565b8315610a0e57845460ff60401b19168555604051600181527fc7f505b2f371ae2175ee4913f4499e1f2633a7b5936321eed1cdaeb6115181d29060200160405180910390a15b505050505050565b610a1e610b2d565b603180546001600160a01b0319166001600160a01b0392909216919091179055565b610a48610b2d565b63ffffffff90921660009081526001602090815260408083206001600160a01b03909416835292905220805491151560ff19909216919091179055565b610a8d610b2d565b600580546001600160a01b0319166001600160a01b0392909216919091179055565b610ab7610b2d565b6001600160a01b038116610ae657604051631e4fbdf760e01b8152600060048201526024015b60405180910390fd5b610aef81610fef565b50565b610afa610b2d565b6000828152600260209081526040808320805463ffffffff90951663ffffffff1990951685179055928252600390522055565b33610b5f7f9016d09d72d40fdae2fd8ceac6b6234c7706214fd39c1cd1e609a0528c199300546001600160a01b031690565b6001600160a01b0316146106d25760405163118cdaa760e01b8152336004820152602401610add565b604080516001600160a01b0383166020820152606091016040516020818303038152906040529050919050565b60408051808201825260ff8416815260208082018490529151606092610bdd91839101611af6565b60405160208183030381529060405291505092915050565b610bfd6112e0565b60006040518060e00160405280610c2860325460009081526002602052604090205463ffffffff1690565b63ffffffff1681526033546020909101906001600160a01b031681526020018381526020018381526020016040518060200160405280600081525081526020018481526020016040518060200160405280600081525081525090506000600560009054906101000a90046001600160a01b03166001600160a01b0316633b6f743b8360006040518363ffffffff1660e01b8152600401610cc9929190611b9c565b6040805180830381865afa158015610ce5573d6000803e3d6000fd5b505050506040513d601f19601f82011682018060405250810190610d099190611c0f565b8051909150341015610d5d5760405162461bcd60e51b815260206004820152601b60248201527f5761697465723a20696e73756666696369656e74206c7a2066656500000000006044820152606401610add565b600554815160405163c7c7f5b360e01b81526001600160a01b039092169163c7c7f5b39190610d9490869086903390600401611c2b565b60c06040518083038185885af1158015610db2573d6000803e3d6000fd5b50505050506040513d601f19601f82011682018060405250810190610a0e9190611c6a565b610ddf611311565b600080516020611d68833981519152805460ff191681557f5db9ee0a495bf2e6ff9c91a7834c1ba4fdd244a5e8aa4e537bd38aeae4b073aa335b6040516001600160a01b03909116815260200160405180910390a150565b306001600160a01b037f0000000000000000000000000000000000000000000000000000000000000000161480610ebe57507f00000000000000000000000000000000000000000000000000000000000000006001600160a01b0316610eb2600080516020611d48833981519152546001600160a01b031690565b6001600160a01b031614155b156106d25760405163703e46dd60e11b815260040160405180910390fd5b610aef610b2d565b816001600160a01b03166352d1902d6040518163ffffffff1660e01b8152600401602060405180830381865afa925050508015610f3e575060408051601f3d908101601f19168201909252610f3b91810190611cf5565b60015b610f6657604051634c9c8ce360e01b81526001600160a01b0383166004820152602401610add565b600080516020611d488339815191528114610f9757604051632a87526960e21b815260048101829052602401610add565b610fa18383611341565b505050565b306001600160a01b037f000000000000000000000000000000000000000000000000000000000000000016146106d25760405163703e46dd60e11b815260040160405180910390fd5b7f9016d09d72d40fdae2fd8ceac6b6234c7706214fd39c1cd1e609a0528c19930080546001600160a01b031981166001600160a01b03848116918217845560405192169182907f8be0079c531659141344cd1fd0a4f28419497f9722a3daafe3b4186f6b6457e090600090a3505050565b6110686112e0565b600080516020611d68833981519152805460ff191660011781557f62e78cea01bee320cd4e420270b5ea74000d11b0c9f74754ebdbfc544b05a25833610e19565b604051636eb1769f60e11b81526001600160a01b03838116600483015230602483015282919085169063dd62ed3e90604401602060405180830381865afa1580156110f8573d6000803e3d6000fd5b505050506040513d601f19601f8201168201806040525081019061111c9190611cf5565b101561116a5760405162461bcd60e51b815260206004820152601d60248201527f5761697465723a20696e73756666696369656e7420617070726f76616c0000006044820152606401610add565b600560009054906101000a90046001600160a01b03166001600160a01b0316639f68b9646040518163ffffffff1660e01b8152600401602060405180830381865afa1580156111bd573d6000803e3d6000fd5b505050506040513d601f19601f820116820180604052508101906111e19190611d0e565b15610fa15760055460405163095ea7b360e01b81526001600160a01b039182166004820152602481018390529084169063095ea7b3906044016020604051808303816000875af1158015611239573d6000803e3d6000fd5b505050506040513d601f19601f820116820180604052508101906108e39190611d0e565b604080516001600160a01b0385811660248301528416604482015260648082018490528251808303909101815260849091019091526020810180516001600160e01b03166323b872dd60e01b1790526108e3908590611397565b6106d26113fa565b6112c76113fa565b610aef81611443565b6112d86113fa565b6106d261144b565b600080516020611d688339815191525460ff16156106d25760405163d93c066560e01b815260040160405180910390fd5b600080516020611d688339815191525460ff166106d257604051638dfc202b60e01b815260040160405180910390fd5b61134a8261146c565b6040516001600160a01b038316907fbc7cd75a20ee27fd9adebab32041f755214dbc6bffa90cc0225b39da2e5c2d3b90600090a280511561138f57610fa182826114d1565b6106a5611547565b60006113ac6001600160a01b03841683611566565b905080516000141580156113d15750808060200190518101906113cf9190611d0e565b155b15610fa157604051635274afe760e01b81526001600160a01b0384166004820152602401610add565b7ff0c57e16840df040f15088dc2f81fe391c3923bec73e23a9662efc9c229c6a0054600160401b900460ff166106d257604051631afcd79f60e31b815260040160405180910390fd5b610ab76113fa565b6114536113fa565b600080516020611d68833981519152805460ff19169055565b806001600160a01b03163b6000036114a257604051634c9c8ce360e01b81526001600160a01b0382166004820152602401610add565b600080516020611d4883398151915280546001600160a01b0319166001600160a01b0392909216919091179055565b6060600080846001600160a01b0316846040516114ee9190611d2b565b600060405180830381855af49150503d8060008114611529576040519150601f19603f3d011682016040523d82523d6000602084013e61152e565b606091505b509150915061153e85838361157b565b95945050505050565b34156106d25760405163b398979f60e01b815260040160405180910390fd5b6060611574838360006115d7565b9392505050565b6060826115905761158b82611674565b611574565b81511580156115a757506001600160a01b0384163b155b156115d057604051639996b31560e01b81526001600160a01b0385166004820152602401610add565b5092915050565b6060814710156115fc5760405163cd78605960e01b8152306004820152602401610add565b600080856001600160a01b031684866040516116189190611d2b565b60006040518083038185875af1925050503d8060008114611655576040519150601f19603f3d011682016040523d82523d6000602084013e61165a565b606091505b509150915061166a86838361157b565b9695505050505050565b8051156116845780518082602001fd5b604051630a12f52160e11b815260040160405180910390fd5b6001600160a01b0381168114610aef57600080fd5b6000602082840312156116c457600080fd5b81356115748161169d565b803563ffffffff811681146116e357600080fd5b919050565b600080604083850312156116fb57600080fd5b611704836116cf565b915060208301356117148161169d565b809150509250929050565b634e487b7160e01b600052604160045260246000fd5b604051601f8201601f1916810167ffffffffffffffff8111828210171561175e5761175e61171f565b604052919050565b6000806040838503121561177957600080fd5b82356117848161169d565b915060208381013567ffffffffffffffff808211156117a257600080fd5b818601915086601f8301126117b657600080fd5b8135818111156117c8576117c861171f565b6117da601f8201601f19168501611735565b915080825287848285010111156117f057600080fd5b80848401858401376000848284010152508093505050509250929050565b60006020828403121561182057600080fd5b5035919050565b80356001600160801b03811681146116e357600080fd5b60008060006060848603121561185357600080fd5b833560ff8116811461186457600080fd5b925061187260208501611827565b915061188060408501611827565b90509250925092565b60006020828403121561189b57600080fd5b81356008811061157457600080fd5b8015158114610aef57600080fd5b600080604083850312156118cb57600080fd5b82356118d68161169d565b91506020830135611714816118aa565b60005b838110156119015781810151838201526020016118e9565b50506000910152565b600081518084526119228160208601602086016118e6565b601f01601f19169290920160200192915050565b602081526000611574602083018461190a565b60006020828403121561195b57600080fd5b611574826116cf565b60008083601f84011261197657600080fd5b50813567ffffffffffffffff81111561198e57600080fd5b6020830191508360208285010111156119a657600080fd5b9250929050565b600080600080600080600060a0888a0312156119c857600080fd5b87356119d38161169d565b965060208801359550604088013567ffffffffffffffff808211156119f757600080fd5b611a038b838c01611964565b909750955060608a01359150611a188261169d565b90935060808901359080821115611a2e57600080fd5b50611a3b8a828b01611964565b989b979a50959850939692959293505050565b600080600060608486031215611a6357600080fd5b611a6c846116cf565b92506020840135611a7c8161169d565b91506040840135611a8c816118aa565b809150509250925092565b60008060408385031215611aaa57600080fd5b82359150611aba602084016116cf565b90509250929050565b634e487b7160e01b600052602160045260246000fd5b600060208284031215611aeb57600080fd5b81516115748161169d565b6020815260ff825116602082015260006020830151604080840152611b1e606084018261190a565b949350505050565b63ffffffff81511682526020810151602083015260408101516040830152606081015160608301526000608082015160e06080850152611b6960e085018261190a565b905060a083015184820360a0860152611b82828261190a565b91505060c083015184820360c086015261153e828261190a565b604081526000611baf6040830185611b26565b905082151560208301529392505050565b600060408284031215611bd257600080fd5b6040516040810181811067ffffffffffffffff82111715611bf557611bf561171f565b604052825181526020928301519281019290925250919050565b600060408284031215611c2157600080fd5b6115748383611bc0565b608081526000611c3e6080830186611b26565b8451602084810191909152909401516040830152506001600160a01b0391909116606090910152919050565b60008082840360c0811215611c7e57600080fd5b6080811215611c8c57600080fd5b506040516060810167ffffffffffffffff8282108183111715611cb157611cb161171f565b8160405285518352602086015191508082168214611cce57600080fd5b506020820152611ce18560408601611bc0565b60408201529150611aba8460808501611bc0565b600060208284031215611d0757600080fd5b5051919050565b600060208284031215611d2057600080fd5b8151611574816118aa565b60008251611d3d8184602087016118e6565b919091019291505056fe360894a13ba1a3210667c828492db98dca3e2076cc3735a920a3ca505d382bbccd5ed15c6e187e77e9aee88184c21f4f2182ab5827cb3b7e07fbedcd63f03300a2646970667358221220f3f9c25ba97836393e189a1a8d63b686f3b3863d253747f600fb3f4baa3df7e464736f6c63430008140033",
  "devdoc": {
    "errors": {
      "AddressEmptyCode(address)": [
        {
          "details": "There's no code at `target` (it is not a contract)."
        }
      ],
      "AddressInsufficientBalance(address)": [
        {
          "details": "The ETH balance of the account is not enough to perform the operation."
        }
      ],
      "ERC1967InvalidImplementation(address)": [
        {
          "details": "The `implementation` of the proxy is invalid."
        }
      ],
      "ERC1967NonPayable()": [
        {
          "details": "An upgrade function sees `msg.value > 0` that may be lost."
        }
      ],
      "EnforcedPause()": [
        {
          "details": "The operation failed because the contract is paused."
        }
      ],
      "ExpectedPause()": [
        {
          "details": "The operation failed because the contract is not paused."
        }
      ],
      "FailedInnerCall()": [
        {
          "details": "A call to an address target failed. The target may have reverted."
        }
      ],
      "InvalidInitialization()": [
        {
          "details": "The contract is already initialized."
        }
      ],
      "NotInitializing()": [
        {
          "details": "The contract is not initializing."
        }
      ],
      "OwnableInvalidOwner(address)": [
        {
          "details": "The owner is not a valid owner account. (eg. `address(0)`)"
        }
      ],
      "OwnableUnauthorizedAccount(address)": [
        {
          "details": "The caller account is not authorized to perform an operation."
        }
      ],
      "SafeERC20FailedOperation(address)": [
        {
          "details": "An operation with an ERC20 token failed."
        }
      ],
      "UUPSUnauthorizedCallContext()": [
        {
          "details": "The call is from an unauthorized context."
        }
      ],
      "UUPSUnsupportedProxiableUUID(bytes32)": [
        {
          "details": "The storage `slot` is unsupported as a UUID."
        }
      ]
    },
    "events": {
      "Initialized(uint64)": {
        "details": "Triggered when the contract has been initialized or reinitialized."
      },
      "Paused(address)": {
        "details": "Emitted when the pause is triggered by `account`."
      },
      "Unpaused(address)": {
        "details": "Emitted when the pause is lifted by `account`."
      },
      "Upgraded(address)": {
        "details": "Emitted when the implementation is upgraded."
      }
    },
    "kind": "dev",
    "methods": {
      "owner()": {
        "details": "Returns the address of the current owner."
      },
      "paused()": {
        "details": "Returns true if the contract is paused, and false otherwise."
      },
      "proxiableUUID()": {
        "details": "Implementation of the ERC1822 {proxiableUUID} function. This returns the storage slot used by the implementation. It is used to validate the implementation's compatibility when performing an upgrade. IMPORTANT: A proxy pointing at a proxiable contract should not be considered proxiable itself, because this risks bricking a proxy that upgrades to it, by delegating to itself until out of gas. Thus it is critical that this function revert if invoked through a proxy. This is guaranteed by the `notDelegated` modifier."
      },
      "renounceOwnership()": {
        "details": "Leaves the contract without owner. It will not be possible to call `onlyOwner` functions. Can only be called by the current owner. NOTE: Renouncing ownership will leave the contract without an owner, thereby disabling any functionality that is only available to the owner."
      },
      "transferOwnership(address)": {
        "details": "Transfers ownership of the contract to a new account (`newOwner`). Can only be called by the current owner."
      },
      "upgradeToAndCall(address,bytes)": {
        "custom:oz-upgrades-unsafe-allow-reachable": "delegatecall",
        "details": "Upgrade the implementation of the proxy to `newImplementation`, and subsequently execute the function call encoded in `data`. Calls {_authorizeUpgrade}. Emits an {Upgraded} event."
      }
    },
    "version": 1
  },
  "userdoc": {
    "kind": "user",
    "methods": {},
    "version": 1
  },
  "storageLayout": {
    "storage": [
      {
        "astId": 13255,
        "contract": "contracts/stake/Waiter.sol:Waiter",
        "label": "localComposeMsgSender",
        "offset": 0,
        "slot": "0",
        "type": "t_mapping(t_address,t_bool)"
      },
      {
        "astId": 13261,
        "contract": "contracts/stake/Waiter.sol:Waiter",
        "label": "remoteComposeMsgSender",
        "offset": 0,
        "slot": "1",
        "type": "t_mapping(t_uint32,t_mapping(t_address,t_bool))"
      },
      {
        "astId": 13265,
        "contract": "contracts/stake/Waiter.sol:Waiter",
        "label": "chainId2Eid",
        "offset": 0,
        "slot": "2",
        "type": "t_mapping(t_uint256,t_uint32)"
      },
      {
        "astId": 13269,
        "contract": "contracts/stake/Waiter.sol:Waiter",
        "label": "eid2ChainId",
        "offset": 0,
        "slot": "3",
        "type": "t_mapping(t_uint32,t_uint256)"
      },
      {
        "astId": 13275,
        "contract": "contracts/stake/Waiter.sol:Waiter",
        "label": "lzOptions",
        "offset": 0,
        "slot": "4",
        "type": "t_mapping(t_enum(PayloadTypes)14419,t_struct(LzOptions)14203_storage)"
      },
      {
        "astId": 13277,
        "contract": "contracts/stake/Waiter.sol:Waiter",
        "label": "oft",
        "offset": 0,
        "slot": "5",
        "type": "t_address"
      },
      {
        "astId": 13281,
        "contract": "contracts/stake/Waiter.sol:Waiter",
        "label": "__gap",
        "offset": 0,
        "slot": "6",
        "type": "t_array(t_uint256)43_storage"
      },
      {
        "astId": 12890,
        "contract": "contracts/stake/Waiter.sol:Waiter",
        "label": "backend",
        "offset": 0,
        "slot": "49",
        "type": "t_address"
      },
      {
        "astId": 12892,
        "contract": "contracts/stake/Waiter.sol:Waiter",
        "label": "hubChainId",
        "offset": 0,
        "slot": "50",
        "type": "t_uint256"
      },
      {
        "astId": 12894,
        "contract": "contracts/stake/Waiter.sol:Waiter",
        "label": "chef",
        "offset": 0,
        "slot": "51",
        "type": "t_address"
      }
    ],
    "types": {
      "t_address": {
        "encoding": "inplace",
        "label": "address",
        "numberOfBytes": "20"
      },
      "t_array(t_uint256)43_storage": {
        "base": "t_uint256",
        "encoding": "inplace",
        "label": "uint256[43]",
        "numberOfBytes": "1376"
      },
      "t_bool": {
        "encoding": "inplace",
        "label": "bool",
        "numberOfBytes": "1"
      },
      "t_enum(PayloadTypes)14419": {
        "encoding": "inplace",
        "label": "enum LzMessageLib.PayloadTypes",
        "numberOfBytes": "1"
      },
      "t_mapping(t_address,t_bool)": {
        "encoding": "mapping",
        "key": "t_address",
        "label": "mapping(address => bool)",
        "numberOfBytes": "32",
        "value": "t_bool"
      },
      "t_mapping(t_enum(PayloadTypes)14419,t_struct(LzOptions)14203_storage)": {
        "encoding": "mapping",
        "key": "t_enum(PayloadTypes)14419",
        "label": "mapping(enum LzMessageLib.PayloadTypes => struct LzOptions)",
        "numberOfBytes": "32",
        "value": "t_struct(LzOptions)14203_storage"
      },
      "t_mapping(t_uint256,t_uint32)": {
        "encoding": "mapping",
        "key": "t_uint256",
        "label": "mapping(uint256 => uint32)",
        "numberOfBytes": "32",
        "value": "t_uint32"
      },
      "t_mapping(t_uint32,t_mapping(t_address,t_bool))": {
        "encoding": "mapping",
        "key": "t_uint32",
        "label": "mapping(uint32 => mapping(address => bool))",
        "numberOfBytes": "32",
        "value": "t_mapping(t_address,t_bool)"
      },
      "t_mapping(t_uint32,t_uint256)": {
        "encoding": "mapping",
        "key": "t_uint32",
        "label": "mapping(uint32 => uint256)",
        "numberOfBytes": "32",
        "value": "t_uint256"
      },
      "t_struct(LzOptions)14203_storage": {
        "encoding": "inplace",
        "label": "struct LzOptions",
        "members": [
          {
            "astId": 14200,
            "contract": "contracts/stake/Waiter.sol:Waiter",
            "label": "gas",
            "offset": 0,
            "slot": "0",
            "type": "t_uint128"
          },
          {
            "astId": 14202,
            "contract": "contracts/stake/Waiter.sol:Waiter",
            "label": "value",
            "offset": 16,
            "slot": "0",
            "type": "t_uint128"
          }
        ],
        "numberOfBytes": "32"
      },
      "t_uint128": {
        "encoding": "inplace",
        "label": "uint128",
        "numberOfBytes": "16"
      },
      "t_uint256": {
        "encoding": "inplace",
        "label": "uint256",
        "numberOfBytes": "32"
      },
      "t_uint32": {
        "encoding": "inplace",
        "label": "uint32",
        "numberOfBytes": "4"
      }
    }
  }
}