{
  "_format": "hh-sol-artifact-1",
  "contractName": "Chef",
  "sourceName": "contracts/stake/Chef.sol",
  "abi": [
    {
      "inputs": [
        {
          "internalType": "address",
          "name": "target",
          "type": "address"
        }
      ],
      "name": "AddressEmptyCode",
      "type": "error"
    },
    {
      "inputs": [
        {
          "internalType": "address",
          "name": "implementation",
          "type": "address"
        }
      ],
      "name": "ERC1967InvalidImplementation",
      "type": "error"
    },
    {
      "inputs": [],
      "name": "ERC1967NonPayable",
      "type": "error"
    },
    {
      "inputs": [],
      "name": "EnforcedPause",
      "type": "error"
    },
    {
      "inputs": [],
      "name": "ExpectedPause",
      "type": "error"
    },
    {
      "inputs": [],
      "name": "FailedInnerCall",
      "type": "error"
    },
    {
      "inputs": [
        {
          "internalType": "address",
          "name": "savedEndpoint",
          "type": "address"
        },
        {
          "internalType": "address",
          "name": "realEndpoint",
          "type": "address"
        }
      ],
      "name": "InvalidEnpoint",
      "type": "error"
    },
    {
      "inputs": [],
      "name": "InvalidInitialization",
      "type": "error"
    },
    {
      "inputs": [],
      "name": "NotInitializing",
      "type": "error"
    },
    {
      "inputs": [
        {
          "internalType": "address",
          "name": "sender",
          "type": "address"
        }
      ],
      "name": "NotLocalComposeMsgSender",
      "type": "error"
    },
    {
      "inputs": [
        {
          "internalType": "uint32",
          "name": "eid",
          "type": "uint32"
        },
        {
          "internalType": "address",
          "name": "sender",
          "type": "address"
        }
      ],
      "name": "NotRemoteComposeMsgSender",
      "type": "error"
    },
    {
      "inputs": [
        {
          "internalType": "address",
          "name": "owner",
          "type": "address"
        }
      ],
      "name": "OwnableInvalidOwner",
      "type": "error"
    },
    {
      "inputs": [
        {
          "internalType": "address",
          "name": "account",
          "type": "address"
        }
      ],
      "name": "OwnableUnauthorizedAccount",
      "type": "error"
    },
    {
      "inputs": [],
      "name": "UUPSUnauthorizedCallContext",
      "type": "error"
    },
    {
      "inputs": [
        {
          "internalType": "bytes32",
          "name": "slot",
          "type": "bytes32"
        }
      ],
      "name": "UUPSUnsupportedProxiableUUID",
      "type": "error"
    },
    {
      "anonymous": false,
      "inputs": [
        {
          "indexed": true,
          "internalType": "uint256",
          "name": "chainId",
          "type": "uint256"
        },
        {
          "indexed": true,
          "internalType": "uint32",
          "name": "domainId",
          "type": "uint32"
        },
        {
          "indexed": true,
          "internalType": "address",
          "name": "mintRecipient",
          "type": "address"
        },
        {
          "indexed": false,
          "internalType": "uint256",
          "name": "amount",
          "type": "uint256"
        }
      ],
      "name": "BurnUSDC",
      "type": "event"
    },
    {
      "anonymous": false,
      "inputs": [
        {
          "indexed": true,
          "internalType": "uint256",
          "name": "chainId",
          "type": "uint256"
        },
        {
          "indexed": true,
          "internalType": "address",
          "name": "staker",
          "type": "address"
        },
        {
          "indexed": false,
          "internalType": "uint256",
          "name": "amount",
          "type": "uint256"
        }
      ],
      "name": "Claimed",
      "type": "event"
    },
    {
      "anonymous": false,
      "inputs": [
        {
          "indexed": true,
          "internalType": "address",
          "name": "composeMsgSender",
          "type": "address"
        },
        {
          "indexed": false,
          "internalType": "bool",
          "name": "allowed",
          "type": "bool"
        }
      ],
      "name": "ComposeMsgSenderSet",
      "type": "event"
    },
    {
      "anonymous": false,
      "inputs": [
        {
          "indexed": true,
          "internalType": "uint256",
          "name": "chainId",
          "type": "uint256"
        },
        {
          "indexed": false,
          "internalType": "uint32",
          "name": "eid",
          "type": "uint32"
        }
      ],
      "name": "EidSet",
      "type": "event"
    },
    {
      "anonymous": false,
      "inputs": [
        {
          "indexed": true,
          "internalType": "address",
          "name": "endpoint",
          "type": "address"
        }
      ],
      "name": "EndpointSet",
      "type": "event"
    },
    {
      "anonymous": false,
      "inputs": [
        {
          "indexed": false,
          "internalType": "uint64",
          "name": "version",
          "type": "uint64"
        }
      ],
      "name": "Initialized",
      "type": "event"
    },
    {
      "anonymous": false,
      "inputs": [
        {
          "indexed": true,
          "internalType": "uint256",
          "name": "chainId",
          "type": "uint256"
        },
        {
          "indexed": true,
          "internalType": "uint32",
          "name": "domainId",
          "type": "uint32"
        },
        {
          "indexed": true,
          "internalType": "address",
          "name": "mintRecipient",
          "type": "address"
        },
        {
          "indexed": false,
          "internalType": "uint256",
          "name": "amount",
          "type": "uint256"
        }
      ],
      "name": "MintUSDC",
      "type": "event"
    },
    {
      "anonymous": false,
      "inputs": [
        {
          "indexed": true,
          "internalType": "address",
          "name": "oft",
          "type": "address"
        }
      ],
      "name": "OftSet",
      "type": "event"
    },
    {
      "anonymous": false,
      "inputs": [
        {
          "indexed": true,
          "internalType": "address",
          "name": "previousOwner",
          "type": "address"
        },
        {
          "indexed": true,
          "internalType": "address",
          "name": "newOwner",
          "type": "address"
        }
      ],
      "name": "OwnershipTransferred",
      "type": "event"
    },
    {
      "anonymous": false,
      "inputs": [
        {
          "indexed": false,
          "internalType": "address",
          "name": "account",
          "type": "address"
        }
      ],
      "name": "Paused",
      "type": "event"
    },
    {
      "anonymous": false,
      "inputs": [
        {
          "indexed": true,
          "internalType": "uint256",
          "name": "chainId",
          "type": "uint256"
        },
        {
          "indexed": true,
          "internalType": "address",
          "name": "staker",
          "type": "address"
        },
        {
          "indexed": false,
          "internalType": "uint256",
          "name": "amount",
          "type": "uint256"
        }
      ],
      "name": "RewardClaimed",
      "type": "event"
    },
    {
      "anonymous": false,
      "inputs": [
        {
          "indexed": true,
          "internalType": "uint256",
          "name": "chainId",
          "type": "uint256"
        },
        {
          "indexed": true,
          "internalType": "address",
          "name": "staker",
          "type": "address"
        },
        {
          "indexed": false,
          "internalType": "uint256",
          "name": "amount",
          "type": "uint256"
        }
      ],
      "name": "RewardSent",
      "type": "event"
    },
    {
      "anonymous": false,
      "inputs": [
        {
          "indexed": true,
          "internalType": "uint256",
          "name": "chainId",
          "type": "uint256"
        },
        {
          "indexed": true,
          "internalType": "address",
          "name": "staker",
          "type": "address"
        },
        {
          "indexed": false,
          "internalType": "uint256",
          "name": "amount",
          "type": "uint256"
        }
      ],
      "name": "Staked",
      "type": "event"
    },
    {
      "anonymous": false,
      "inputs": [
        {
          "indexed": true,
          "internalType": "uint256",
          "name": "chainId",
          "type": "uint256"
        },
        {
          "indexed": true,
          "internalType": "address",
          "name": "staker",
          "type": "address"
        },
        {
          "indexed": false,
          "internalType": "uint256",
          "name": "amount",
          "type": "uint256"
        }
      ],
      "name": "TokenStaked",
      "type": "event"
    },
    {
      "anonymous": false,
      "inputs": [
        {
          "indexed": true,
          "internalType": "uint256",
          "name": "chainId",
          "type": "uint256"
        },
        {
          "indexed": true,
          "internalType": "address",
          "name": "staker",
          "type": "address"
        },
        {
          "indexed": false,
          "internalType": "uint256",
          "name": "amount",
          "type": "uint256"
        }
      ],
      "name": "TokenUnstaked",
      "type": "event"
    },
    {
      "anonymous": false,
      "inputs": [
        {
          "indexed": true,
          "internalType": "uint256",
          "name": "chainId",
          "type": "uint256"
        },
        {
          "indexed": true,
          "internalType": "address",
          "name": "staker",
          "type": "address"
        },
        {
          "indexed": false,
          "internalType": "uint256",
          "name": "amount",
          "type": "uint256"
        }
      ],
      "name": "TokenWithdrawn",
      "type": "event"
    },
    {
      "anonymous": false,
      "inputs": [
        {
          "indexed": false,
          "internalType": "address",
          "name": "account",
          "type": "address"
        }
      ],
      "name": "Unpaused",
      "type": "event"
    },
    {
      "anonymous": false,
      "inputs": [
        {
          "indexed": true,
          "internalType": "uint256",
          "name": "chainId",
          "type": "uint256"
        },
        {
          "indexed": true,
          "internalType": "address",
          "name": "staker",
          "type": "address"
        },
        {
          "indexed": false,
          "internalType": "uint256",
          "name": "amount",
          "type": "uint256"
        }
      ],
      "name": "Unstaked",
      "type": "event"
    },
    {
      "anonymous": false,
      "inputs": [
        {
          "indexed": true,
          "internalType": "address",
          "name": "implementation",
          "type": "address"
        }
      ],
      "name": "Upgraded",
      "type": "event"
    },
    {
      "anonymous": false,
      "inputs": [
        {
          "indexed": true,
          "internalType": "uint256",
          "name": "chainId",
          "type": "uint256"
        },
        {
          "indexed": true,
          "internalType": "address",
          "name": "staker",
          "type": "address"
        },
        {
          "indexed": false,
          "internalType": "uint256",
          "name": "amount",
          "type": "uint256"
        }
      ],
      "name": "Withdrawn",
      "type": "event"
    },
    {
      "stateMutability": "payable",
      "type": "fallback"
    },
    {
      "inputs": [],
      "name": "STAKE_REWARD_RATE",
      "outputs": [
        {
          "internalType": "uint256",
          "name": "",
          "type": "uint256"
        }
      ],
      "stateMutability": "view",
      "type": "function"
    },
    {
      "inputs": [],
      "name": "UNSTAKE_PERIOD",
      "outputs": [
        {
          "internalType": "uint256",
          "name": "",
          "type": "uint256"
        }
      ],
      "stateMutability": "view",
      "type": "function"
    },
    {
      "inputs": [],
      "name": "UPGRADE_INTERFACE_VERSION",
      "outputs": [
        {
          "internalType": "string",
          "name": "",
          "type": "string"
        }
      ],
      "stateMutability": "view",
      "type": "function"
    },
    {
      "inputs": [],
      "name": "backend",
      "outputs": [
        {
          "internalType": "address",
          "name": "",
          "type": "address"
        }
      ],
      "stateMutability": "view",
      "type": "function"
    },
    {
      "inputs": [
        {
          "internalType": "uint256",
          "name": "_chainId",
          "type": "uint256"
        },
        {
          "internalType": "address",
          "name": "_mintRecipient",
          "type": "address"
        },
        {
          "internalType": "uint256",
          "name": "_amount",
          "type": "uint256"
        }
      ],
      "name": "burnUSDC",
      "outputs": [],
      "stateMutability": "nonpayable",
      "type": "function"
    },
    {
      "inputs": [
        {
          "internalType": "uint256",
          "name": "",
          "type": "uint256"
        }
      ],
      "name": "chainId2DomainId",
      "outputs": [
        {
          "internalType": "uint32",
          "name": "",
          "type": "uint32"
        }
      ],
      "stateMutability": "view",
      "type": "function"
    },
    {
      "inputs": [
        {
          "internalType": "uint256",
          "name": "",
          "type": "uint256"
        }
      ],
      "name": "chainId2Eid",
      "outputs": [
        {
          "internalType": "uint32",
          "name": "",
          "type": "uint32"
        }
      ],
      "stateMutability": "view",
      "type": "function"
    },
    {
      "inputs": [
        {
          "internalType": "uint32",
          "name": "",
          "type": "uint32"
        }
      ],
      "name": "domainId2ChainId",
      "outputs": [
        {
          "internalType": "uint256",
          "name": "",
          "type": "uint256"
        }
      ],
      "stateMutability": "view",
      "type": "function"
    },
    {
      "inputs": [
        {
          "internalType": "uint32",
          "name": "",
          "type": "uint32"
        }
      ],
      "name": "eid2ChainId",
      "outputs": [
        {
          "internalType": "uint256",
          "name": "",
          "type": "uint256"
        }
      ],
      "stateMutability": "view",
      "type": "function"
    },
    {
      "inputs": [],
      "name": "getTotalStakedAmount",
      "outputs": [
        {
          "internalType": "uint256",
          "name": "",
          "type": "uint256"
        }
      ],
      "stateMutability": "view",
      "type": "function"
    },
    {
      "inputs": [
        {
          "internalType": "address",
          "name": "_staker",
          "type": "address"
        }
      ],
      "name": "getUserReward",
      "outputs": [
        {
          "internalType": "uint256",
          "name": "",
          "type": "uint256"
        }
      ],
      "stateMutability": "view",
      "type": "function"
    },
    {
      "inputs": [
        {
          "internalType": "address",
          "name": "_staker",
          "type": "address"
        }
      ],
      "name": "getUserStakeInfo",
      "outputs": [
        {
          "components": [
            {
              "internalType": "uint256",
              "name": "stakeAmount",
              "type": "uint256"
            },
            {
              "internalType": "uint256",
              "name": "stakeReward",
              "type": "uint256"
            },
            {
              "internalType": "uint256",
              "name": "lastStakeTime",
              "type": "uint256"
            },
            {
              "internalType": "uint256",
              "name": "lastUnstakeTime",
              "type": "uint256"
            }
          ],
          "internalType": "struct StakeUpgradeable.StakeInfo",
          "name": "",
          "type": "tuple"
        }
      ],
      "stateMutability": "view",
      "type": "function"
    },
    {
      "inputs": [
        {
          "internalType": "address",
          "name": "_staker",
          "type": "address"
        }
      ],
      "name": "getUserUnstakeLockTime",
      "outputs": [
        {
          "internalType": "uint256",
          "name": "",
          "type": "uint256"
        }
      ],
      "stateMutability": "view",
      "type": "function"
    },
    {
      "inputs": [
        {
          "internalType": "address",
          "name": "_owner",
          "type": "address"
        }
      ],
      "name": "initialize",
      "outputs": [],
      "stateMutability": "nonpayable",
      "type": "function"
    },
    {
      "inputs": [
        {
          "internalType": "address",
          "name": "",
          "type": "address"
        }
      ],
      "name": "localComposeMsgSender",
      "outputs": [
        {
          "internalType": "bool",
          "name": "",
          "type": "bool"
        }
      ],
      "stateMutability": "view",
      "type": "function"
    },
    {
      "inputs": [
        {
          "internalType": "address",
          "name": "_from",
          "type": "address"
        },
        {
          "internalType": "bytes32",
          "name": "",
          "type": "bytes32"
        },
        {
          "internalType": "bytes",
          "name": "_message",
          "type": "bytes"
        },
        {
          "internalType": "address",
          "name": "",
          "type": "address"
        },
        {
          "internalType": "bytes",
          "name": "",
          "type": "bytes"
        }
      ],
      "name": "lzCompose",
      "outputs": [],
      "stateMutability": "payable",
      "type": "function"
    },
    {
      "inputs": [
        {
          "internalType": "enum LzMessageLib.PayloadTypes",
          "name": "",
          "type": "uint8"
        }
      ],
      "name": "lzOptions",
      "outputs": [
        {
          "internalType": "uint128",
          "name": "gas",
          "type": "uint128"
        },
        {
          "internalType": "uint128",
          "name": "value",
          "type": "uint128"
        }
      ],
      "stateMutability": "view",
      "type": "function"
    },
    {
      "inputs": [],
      "name": "oft",
      "outputs": [
        {
          "internalType": "address",
          "name": "",
          "type": "address"
        }
      ],
      "stateMutability": "view",
      "type": "function"
    },
    {
      "inputs": [],
      "name": "owner",
      "outputs": [
        {
          "internalType": "address",
          "name": "",
          "type": "address"
        }
      ],
      "stateMutability": "view",
      "type": "function"
    },
    {
      "inputs": [],
      "name": "pause",
      "outputs": [],
      "stateMutability": "nonpayable",
      "type": "function"
    },
    {
      "inputs": [],
      "name": "paused",
      "outputs": [
        {
          "internalType": "bool",
          "name": "",
          "type": "bool"
        }
      ],
      "stateMutability": "view",
      "type": "function"
    },
    {
      "inputs": [],
      "name": "proxiableUUID",
      "outputs": [
        {
          "internalType": "bytes32",
          "name": "",
          "type": "bytes32"
        }
      ],
      "stateMutability": "view",
      "type": "function"
    },
    {
      "inputs": [
        {
          "internalType": "uint32",
          "name": "",
          "type": "uint32"
        },
        {
          "internalType": "address",
          "name": "",
          "type": "address"
        }
      ],
      "name": "remoteComposeMsgSender",
      "outputs": [
        {
          "internalType": "bool",
          "name": "",
          "type": "bool"
        }
      ],
      "stateMutability": "view",
      "type": "function"
    },
    {
      "inputs": [],
      "name": "renounceOwnership",
      "outputs": [],
      "stateMutability": "nonpayable",
      "type": "function"
    },
    {
      "inputs": [
        {
          "internalType": "uint32",
          "name": "_domainId",
          "type": "uint32"
        },
        {
          "internalType": "bytes",
          "name": "_message",
          "type": "bytes"
        },
        {
          "internalType": "bytes",
          "name": "_attestation",
          "type": "bytes"
        }
      ],
      "name": "sendReward",
      "outputs": [],
      "stateMutability": "nonpayable",
      "type": "function"
    },
    {
      "inputs": [
        {
          "internalType": "address",
          "name": "_backend",
          "type": "address"
        }
      ],
      "name": "setBackend",
      "outputs": [],
      "stateMutability": "nonpayable",
      "type": "function"
    },
    {
      "inputs": [
        {
          "internalType": "uint256",
          "name": "_chainId",
          "type": "uint256"
        },
        {
          "internalType": "uint32",
          "name": "_domainId",
          "type": "uint32"
        }
      ],
      "name": "setCCTPDomainId",
      "outputs": [],
      "stateMutability": "nonpayable",
      "type": "function"
    },
    {
      "inputs": [
        {
          "internalType": "uint256",
          "name": "_chainId",
          "type": "uint256"
        },
        {
          "internalType": "uint32",
          "name": "_eid",
          "type": "uint32"
        }
      ],
      "name": "setEid",
      "outputs": [],
      "stateMutability": "nonpayable",
      "type": "function"
    },
    {
      "inputs": [
        {
          "internalType": "address",
          "name": "_addr",
          "type": "address"
        },
        {
          "internalType": "bool",
          "name": "_allowed",
          "type": "bool"
        }
      ],
      "name": "setLocalComposeMsgSender",
      "outputs": [],
      "stateMutability": "nonpayable",
      "type": "function"
    },
    {
      "inputs": [
        {
          "internalType": "address",
          "name": "_oft",
          "type": "address"
        }
      ],
      "name": "setOft",
      "outputs": [],
      "stateMutability": "nonpayable",
      "type": "function"
    },
    {
      "inputs": [
        {
          "internalType": "uint8",
          "name": "_payloadType",
          "type": "uint8"
        },
        {
          "internalType": "uint128",
          "name": "_gas",
          "type": "uint128"
        },
        {
          "internalType": "uint128",
          "name": "_value",
          "type": "uint128"
        }
      ],
      "name": "setPayloadOptions",
      "outputs": [],
      "stateMutability": "nonpayable",
      "type": "function"
    },
    {
      "inputs": [
        {
          "internalType": "uint32",
          "name": "_eid",
          "type": "uint32"
        },
        {
          "internalType": "address",
          "name": "_addr",
          "type": "address"
        },
        {
          "internalType": "bool",
          "name": "_allowed",
          "type": "bool"
        }
      ],
      "name": "setRemoteComposeMsgSender",
      "outputs": [],
      "stateMutability": "nonpayable",
      "type": "function"
    },
    {
      "inputs": [
        {
          "internalType": "address",
          "name": "_tokenMessager",
          "type": "address"
        }
      ],
      "name": "setTokenMessager",
      "outputs": [],
      "stateMutability": "nonpayable",
      "type": "function"
    },
    {
      "inputs": [
        {
          "internalType": "address",
          "name": "_usdc",
          "type": "address"
        }
      ],
      "name": "setUSDC",
      "outputs": [],
      "stateMutability": "nonpayable",
      "type": "function"
    },
    {
      "inputs": [
        {
          "internalType": "uint256",
          "name": "_chainId",
          "type": "uint256"
        },
        {
          "internalType": "address",
          "name": "_waiter",
          "type": "address"
        }
      ],
      "name": "setWaiter",
      "outputs": [],
      "stateMutability": "nonpayable",
      "type": "function"
    },
    {
      "inputs": [],
      "name": "tokenMessager",
      "outputs": [
        {
          "internalType": "contract ITokenMessenger",
          "name": "",
          "type": "address"
        }
      ],
      "stateMutability": "view",
      "type": "function"
    },
    {
      "inputs": [],
      "name": "totalStakedAmount",
      "outputs": [
        {
          "internalType": "uint256",
          "name": "",
          "type": "uint256"
        }
      ],
      "stateMutability": "view",
      "type": "function"
    },
    {
      "inputs": [
        {
          "internalType": "address",
          "name": "newOwner",
          "type": "address"
        }
      ],
      "name": "transferOwnership",
      "outputs": [],
      "stateMutability": "nonpayable",
      "type": "function"
    },
    {
      "inputs": [],
      "name": "unpause",
      "outputs": [],
      "stateMutability": "nonpayable",
      "type": "function"
    },
    {
      "inputs": [
        {
          "internalType": "address",
          "name": "newImplementation",
          "type": "address"
        },
        {
          "internalType": "bytes",
          "name": "data",
          "type": "bytes"
        }
      ],
      "name": "upgradeToAndCall",
      "outputs": [],
      "stateMutability": "payable",
      "type": "function"
    },
    {
      "inputs": [],
      "name": "usdc",
      "outputs": [
        {
          "internalType": "address",
          "name": "",
          "type": "address"
        }
      ],
      "stateMutability": "view",
      "type": "function"
    },
    {
      "inputs": [
        {
          "internalType": "address",
          "name": "",
          "type": "address"
        }
      ],
      "name": "userStakeInfo",
      "outputs": [
        {
          "internalType": "uint256",
          "name": "stakeAmount",
          "type": "uint256"
        },
        {
          "internalType": "uint256",
          "name": "stakeReward",
          "type": "uint256"
        },
        {
          "internalType": "uint256",
          "name": "lastStakeTime",
          "type": "uint256"
        },
        {
          "internalType": "uint256",
          "name": "lastUnstakeTime",
          "type": "uint256"
        }
      ],
      "stateMutability": "view",
      "type": "function"
    },
    {
      "inputs": [
        {
          "internalType": "uint256",
          "name": "",
          "type": "uint256"
        }
      ],
      "name": "waiters",
      "outputs": [
        {
          "internalType": "address",
          "name": "",
          "type": "address"
        }
      ],
      "stateMutability": "view",
      "type": "function"
    },
    {
      "stateMutability": "payable",
      "type": "receive"
    }
  ],
  "bytecode": "0x60a06040523060805234801561001457600080fd5b50608051612dc061003e600039600081816111c1015281816111ea015261132b0152612dc06000f3fe6080604052600436106102485760003560e01c806395b410e411610138578063c75ebb82116100b0578063df0ab3d811610077578063df0ab3d814610847578063e2dfa13014610867578063e5feda3914610887578063f29e8d2c146108a7578063f2fde38b146108c7578063fe8e9c1f146108e757005b8063c75ebb82146107b4578063d0a10260146107d4578063d7dd0b2b146107e7578063da7fc24f14610807578063dc9e80a41461082757005b8063ad7fdf51116100ff578063ad7fdf51146106a1578063b223331c146106c1578063b23bd54b146106ee578063b3e089a214610721578063c32d3ae214610741578063c4d66de81461079457005b806395b410e4146105cd57806396ac1800146105ed5780639b5215f61461060d578063a6eaa06d1461062d578063ad3cb1cc1461066357005b806352d1902d116101cb57806379b578621161019257806379b57862146104d05780637a7f2bb8146104e55780638456cb59146105055780638da5cb5b1461051a5780638f261a6214610557578063904b25eb1461056c57005b806352d1902d14610423578063567e98f91461043857806358851ca11461044e5780635c975abb14610496578063715018a6146104bb57005b806338adb6f01161020f57806338adb6f0146103645780633e413bee146103795780633f4ba83a146103995780634ead4327146103ae5780634f1ef2861461041057005b8063099e4133146102515780630cff4e061461028e5780630e1b8b18146102ce57806329059e83146102ee57806332c352541461032957005b3661024f57005b005b34801561025d57600080fd5b50609554610271906001600160a01b031681565b6040516001600160a01b0390911681526020015b60405180910390f35b34801561029a57600080fd5b506102be6102a9366004612251565b60006020819052908152604090205460ff1681565b6040519015158152602001610285565b3480156102da57600080fd5b5061024f6102e936600461226e565b610907565b3480156102fa57600080fd5b5061031b6103093660046122b7565b60336020526000908152604090205481565b604051908152602001610285565b34801561033557600080fd5b506102be6103443660046122d2565b600160209081526000928352604080842090915290825290205460ff1681565b34801561037057600080fd5b5060645461031b565b34801561038557600080fd5b50603454610271906001600160a01b031681565b3480156103a557600080fd5b5061024f61093d565b3480156103ba57600080fd5b506103f06103c9366004612251565b60636020526000908152604090208054600182015460028301546003909301549192909184565b604080519485526020850193909352918301526060820152608001610285565b61024f61041e366004612396565b61094f565b34801561042f57600080fd5b5061031b61096e565b34801561044457600080fd5b5061031b60645481565b34801561045a57600080fd5b50610481610469366004612429565b60026020526000908152604090205463ffffffff1681565b60405163ffffffff9091168152602001610285565b3480156104a257600080fd5b50600080516020612d6b8339815191525460ff166102be565b3480156104c757600080fd5b5061024f61098b565b3480156104dc57600080fd5b5061031b600f81565b3480156104f157600080fd5b5061024f610500366004612468565b61099d565b34801561051157600080fd5b5061024f610a3d565b34801561052657600080fd5b507f9016d09d72d40fdae2fd8ceac6b6234c7706214fd39c1cd1e609a0528c199300546001600160a01b0316610271565b34801561056357600080fd5b5061031b606481565b34801561057857600080fd5b506105ad6105873660046124ad565b6004602052600090815260409020546001600160801b0380821691600160801b90041682565b604080516001600160801b03938416815292909116602083015201610285565b3480156105d957600080fd5b5061024f6105e83660046124dc565b610a4d565b3480156105f957600080fd5b5061024f61060836600461250a565b610a80565b34801561061957600080fd5b50600554610271906001600160a01b031681565b34801561063957600080fd5b50610271610648366004612429565b6094602052600090815260409020546001600160a01b031681565b34801561066f57600080fd5b50610694604051806040016040528060058152602001640352e302e360dc1b81525081565b6040516102859190612586565b3480156106ad57600080fd5b5061024f6106bc3660046125e2565b610abb565b3480156106cd57600080fd5b5061031b6106dc3660046122b7565b60036020526000908152604090205481565b3480156106fa57600080fd5b50610481610709366004612429565b60326020526000908152604090205463ffffffff1681565b34801561072d57600080fd5b5061024f61073c366004612251565b610b02565b34801561074d57600080fd5b5061076161075c366004612251565b610b2c565b60405161028591908151815260208083015190820152604080830151908201526060918201519181019190915260800190565b3480156107a057600080fd5b5061024f6107af366004612251565b610ba5565b3480156107c057600080fd5b5061031b6107cf366004612251565b610cc5565b61024f6107e2366004612663565b610cd6565b3480156107f357600080fd5b5061024f610802366004612251565b610ec4565b34801561081357600080fd5b5061024f610822366004612251565b610eee565b34801561083357600080fd5b5061024f610842366004612704565b610f18565b34801561085357600080fd5b5061024f61086236600461274d565b610f5d565b34801561087357600080fd5b50603154610271906001600160a01b031681565b34801561089357600080fd5b5061031b6108a2366004612251565b610f97565b3480156108b357600080fd5b5061024f6108c2366004612251565b611058565b3480156108d357600080fd5b5061024f6108e2366004612251565b611082565b3480156108f357600080fd5b5061024f61090236600461250a565b6110c0565b61090f6110fb565b60009182526094602052604090912080546001600160a01b0319166001600160a01b03909216919091179055565b6109456110fb565b61094d611156565b565b6109576111b6565b6109608261125b565b61096a8282611263565b5050565b6000610978611320565b50600080516020612d4b83398151915290565b6109936110fb565b61094d6000611369565b6109a56110fb565b6040518060400160405280836001600160801b03168152602001826001600160801b0316815250600460008560ff1660078111156109e5576109e5612785565b60078111156109f6576109f6612785565b6007811115610a0757610a07612785565b8152602080820192909252604001600020825192909101516001600160801b03908116600160801b029216919091179055505050565b610a456110fb565b61094d6113da565b610a556110fb565b6001600160a01b03919091166000908152602081905260409020805460ff1916911515919091179055565b610a886110fb565b6000828152603260209081526040808320805463ffffffff90951663ffffffff1990951685179055928252603390522055565b6095546001600160a01b03163314610aee5760405162461bcd60e51b8152600401610ae59061279b565b60405180910390fd5b610afb8585858585611423565b5050505050565b610b0a6110fb565b603480546001600160a01b0319166001600160a01b0392909216919091179055565b610b576040518060800160405280600081526020016000815260200160008152602001600081525090565b506001600160a01b0316600090815260636020908152604091829020825160808101845281548152600182015492810192909252600281015492820192909252600390910154606082015290565b7ff0c57e16840df040f15088dc2f81fe391c3923bec73e23a9662efc9c229c6a008054600160401b810460ff16159067ffffffffffffffff16600081158015610beb5750825b905060008267ffffffffffffffff166001148015610c085750303b155b905081158015610c16575080155b15610c345760405163f92ee8a960e01b815260040160405180910390fd5b845467ffffffffffffffff191660011785558315610c5e57845460ff60401b1916600160401b1785555b610c6661142b565b610c6f86611433565b610c77611444565b8315610cbd57845460ff60401b19168555604051600181527fc7f505b2f371ae2175ee4913f4499e1f2633a7b5936321eed1cdaeb6115181d29060200160405180910390a15b505050505050565b6000610cd082611454565b92915050565b610cde61151d565b6000610cea868661154e565b90506000610cf88787611599565b90506000610d0c610d0989896115bc565b90565b9050610d1a338b84846115d5565b506000610d2684611747565b63ffffffff8416600090815260036020526040902054909150600160ff16826000015160ff1603610d7b576000610d608360200151611770565b9050610d7582826000015183602001516117bf565b50610eb6565b815160ff1660011901610da7576000610d978360200151611916565b9050610d7582826000015161195a565b815160ff1660021901610e42576000610dc38360200151611916565b90506000610dd5838360000151611adc565b8251604080516001600160a01b039092166020830152818101839052805180830382018152606090920190529091506000610e11600483611bc8565b600086815260946020526040902054909150610e399086906001600160a01b03168386611c08565b50505050610eb6565b815160ff1660041901610e6e576000610e5e8360200151611916565b9050610d75828260000151611d61565b60405162461bcd60e51b815260206004820152601a60248201527f436865663a20496e76616c6964207061796c6f616420747970650000000000006044820152606401610ae5565b505050505050505050505050565b610ecc6110fb565b603180546001600160a01b0319166001600160a01b0392909216919091179055565b610ef66110fb565b609580546001600160a01b0319166001600160a01b0392909216919091179055565b610f206110fb565b63ffffffff90921660009081526001602090815260408083206001600160a01b03909416835292905220805491151560ff19909216919091179055565b6095546001600160a01b03163314610f875760405162461bcd60e51b8152600401610ae59061279b565b610f92838383611dda565b505050565b6001600160a01b03811660009081526063602052604081206003015461100f5760405162461bcd60e51b815260206004820152602760248201527f5374616b653a204e6f20556e7374616b65207265717565737420696e2070726f60448201526663657373696e6760c81b6064820152608401610ae5565b6001600160a01b0382166000908152606360205260408120600301546110359042612801565b9050600f8110611046576000611051565b61105181600f612801565b9392505050565b6110606110fb565b600580546001600160a01b0319166001600160a01b0392909216919091179055565b61108a6110fb565b6001600160a01b0381166110b457604051631e4fbdf760e01b815260006004820152602401610ae5565b6110bd81611369565b50565b6110c86110fb565b6000828152600260209081526040808320805463ffffffff90951663ffffffff1990951685179055928252600390522055565b3361112d7f9016d09d72d40fdae2fd8ceac6b6234c7706214fd39c1cd1e609a0528c199300546001600160a01b031690565b6001600160a01b03161461094d5760405163118cdaa760e01b8152336004820152602401610ae5565b61115e611f96565b600080516020612d6b833981519152805460ff191681557f5db9ee0a495bf2e6ff9c91a7834c1ba4fdd244a5e8aa4e537bd38aeae4b073aa335b6040516001600160a01b03909116815260200160405180910390a150565b306001600160a01b037f000000000000000000000000000000000000000000000000000000000000000016148061123d57507f00000000000000000000000000000000000000000000000000000000000000006001600160a01b0316611231600080516020612d4b833981519152546001600160a01b031690565b6001600160a01b031614155b1561094d5760405163703e46dd60e11b815260040160405180910390fd5b6110bd6110fb565b816001600160a01b03166352d1902d6040518163ffffffff1660e01b8152600401602060405180830381865afa9250505080156112bd575060408051601f3d908101601f191682019092526112ba91810190612814565b60015b6112e557604051634c9c8ce360e01b81526001600160a01b0383166004820152602401610ae5565b600080516020612d4b833981519152811461131657604051632a87526960e21b815260048101829052602401610ae5565b610f928383611fc6565b306001600160a01b037f0000000000000000000000000000000000000000000000000000000000000000161461094d5760405163703e46dd60e11b815260040160405180910390fd5b7f9016d09d72d40fdae2fd8ceac6b6234c7706214fd39c1cd1e609a0528c19930080546001600160a01b031981166001600160a01b03848116918217845560405192169182907f8be0079c531659141344cd1fd0a4f28419497f9722a3daafe3b4186f6b6457e090600090a3505050565b6113e261151d565b600080516020612d6b833981519152805460ff191660011781557f62e78cea01bee320cd4e420270b5ea74000d11b0c9f74754ebdbfc544b05a25833611198565b610afb61151d565b61094d61201c565b61143b61201c565b6110bd81612065565b61144c61201c565b61094d61206d565b6001600160a01b0380821660009081526063602090815260408083206005548251630857749b60e41b815292519495919491169263857749b092600480820193918290030181865afa1580156114ae573d6000803e3d6000fd5b505050506040513d601f19601f820116820180604052508101906114d2919061282d565b6114dd90600a61292e565b60028201546114ec9042612801565b82546114fa9060649061293d565b611504919061293d565b61150e9190612954565b81600101546110519190612976565b600080516020612d6b8339815191525460ff161561094d5760405163d93c066560e01b815260040160405180910390fd5b606061155d82604c8186612989565b8080601f016020809104026020016040519081016040528093929190818152602001838380828437600092019190915250929695505050505050565b60006115a9600c60088486612989565b6115b2916129b3565b60e01c9392505050565b60006115cc604c602c8486612989565b611051916129e3565b600080600560009054906101000a90046001600160a01b03166001600160a01b0316635e280f116040518163ffffffff1660e01b8152600401602060405180830381865afa15801561162b573d6000803e3d6000fd5b505050506040513d601f19601f8201168201806040525081019061164f9190612a01565b9050856001600160a01b0316816001600160a01b031614611696576040516308dfccd760e21b81526001600160a01b03808316600483015287166024820152604401610ae5565b6001600160a01b03851660009081526020819052604090205460ff166116da5760405163078b3cc360e01b81526001600160a01b0386166004820152602401610ae5565b63ffffffff841660009081526001602090815260408083206001600160a01b038716845290915290205460ff1661173b576040516363932e8560e11b815263ffffffff851660048201526001600160a01b0384166024820152604401610ae5565b50600195945050505050565b60408051808201909152600081526060602082015281806020019051810190610cd09190612a1e565b60408051808201909152600080825260208201526000808380602001905181019061179b9190612adc565b604080518082019091526001600160a01b0390921682526020820152949350505050565b6001600160a01b038083166000908152606360209081526040918290206005548351630857749b60e41b815293519194169263857749b09260048083019391928290030181865afa158015611818573d6000803e3d6000fd5b505050506040513d601f19601f8201168201806040525081019061183c919061282d565b61184790600a61292e565b60028201546118569042612801565b82546118649060649061293d565b61186e919061293d565b6118789190612954565b81600101600082825461188b9190612976565b90915550508054829082906000906118a4908490612976565b9091555050426002820155600060038201819055606480548492906118ca908490612976565b90915550506040518281526001600160a01b0384169085907f18dcd430020e4d4899772fd94a8b40451dc5044dfb70bc46b532eeae431c864f906020015b60405180910390a350505050565b60408051602081019091526000815260008280602001905181019061193b9190612a01565b60408051602081019091526001600160a01b0390911681529392505050565b6001600160a01b03811660009081526063602052604090206003810154156119c45760405162461bcd60e51b815260206004820152601760248201527f5374616b653a20616c726561647920756e7374616b65640000000000000000006044820152606401610ae5565b600560009054906101000a90046001600160a01b03166001600160a01b031663857749b06040518163ffffffff1660e01b8152600401602060405180830381865afa158015611a17573d6000803e3d6000fd5b505050506040513d601f19601f82011682018060405250810190611a3b919061282d565b611a4690600a61292e565b6002820154611a559042612801565b8254611a639060649061293d565b611a6d919061293d565b611a779190612954565b816001016000828254611a8a9190612976565b909155505042600382015580546040519081526001600160a01b0383169084907f37375b03d8924bd8f076f11f8411b9962aa5c02fb489021507bc6bb6f850e3659060200160405180910390a3505050565b6001600160a01b03811660009081526063602052604081206003810154600f90611b069042612801565b1015611b545760405162461bcd60e51b815260206004820152601f60248201527f436865663a20556e7374616b6520706572696f64206e6f7420706173736564006044820152606401610ae5565b80546000808355600283018190556003830181905560648054839290611b7b908490612801565b90915550506040518181526001600160a01b0385169086907fcf7d23a3cbe4e8b36ff82fd1b05b1b17373dc7804b4ebbd6e2356716ef2023729060200160405180910390a3949350505050565b60408051808201825260ff8416815260208082018490529151606092611bf091839101612b0a565b60405160208183030381529060405291505092915050565b6040805160e0810182526000868152600260209081528382205463ffffffff1683526001600160a01b03878116828501528385018690526060840186905284518083018652838152608085015260a084018790528451918201855282825260c08401919091526005549351633b6f743b60e01b815292939192911690633b6f743b90611c9a9085908590600401612bb0565b6040805180830381865afa158015611cb6573d6000803e3d6000fd5b505050506040513d601f19601f82011682018060405250810190611cda9190612c04565b600554815160405163c7c7f5b360e01b81529293506001600160a01b039091169163c7c7f5b39190611d1490869086903090600401612c20565b60c06040518083038185885af1158015611d32573d6000803e3d6000fd5b50505050506040513d601f19601f82011682018060405250810190611d579190612c5f565b5050505050505050565b6001600160a01b038116600090815260636020526040812090611d8383611454565b60006001840181905560038401559050611d9e848483611dda565b826001600160a01b0316847f4ec90e965519d92681267467f775ada5bd214aa92c0dc93d90a5e880ce9ed0268360405161190891815260200190565b611de261151d565b60345460315460405163095ea7b360e01b81526001600160a01b0391821660048201526024810184905291169063095ea7b3906044016020604051808303816000875af1158015611e37573d6000803e3d6000fd5b505050506040513d601f19601f82011682018060405250810190611e5b9190612cea565b506031546000848152603260205260409020546103e8916101f4916001600160a01b0390911690638e0250ee90859063ffffffff16611e998861208e565b6034546001600160a01b0316611eaf600061208e565b6040516001600160e01b031960e088901b168152600481019590955263ffffffff938416602486015260448501929092526001600160a01b03166064840152608483015260a48201859052851660c482015260e401600060405180830381600087803b158015611f1e57600080fd5b505af1158015611f32573d6000803e3d6000fd5b5050506000868152603260209081526040918290205491518681526001600160a01b038816935063ffffffff9092169188917f72a25f2a0fc7b5adb9053e06dc46bec5d1ceb541264f0ba8cff98cd64b6c345d910160405180910390a45050505050565b600080516020612d6b8339815191525460ff1661094d57604051638dfc202b60e01b815260040160405180910390fd5b611fcf826120bd565b6040516001600160a01b038316907fbc7cd75a20ee27fd9adebab32041f755214dbc6bffa90cc0225b39da2e5c2d3b90600090a280511561201457610f928282612122565b61096a612198565b7ff0c57e16840df040f15088dc2f81fe391c3923bec73e23a9662efc9c229c6a0054600160401b900460ff1661094d57604051631afcd79f60e31b815260040160405180910390fd5b61108a61201c565b61207561201c565b600080516020612d6b833981519152805460ff19169055565b604080516001600160a01b038316602082015260009101604051602081830303815290604052610cd090612d07565b806001600160a01b03163b6000036120f357604051634c9c8ce360e01b81526001600160a01b0382166004820152602401610ae5565b600080516020612d4b83398151915280546001600160a01b0319166001600160a01b0392909216919091179055565b6060600080846001600160a01b03168460405161213f9190612d2e565b600060405180830381855af49150503d806000811461217a576040519150601f19603f3d011682016040523d82523d6000602084013e61217f565b606091505b509150915061218f8583836121b7565b95945050505050565b341561094d5760405163b398979f60e01b815260040160405180910390fd5b6060826121cc576121c782612213565b611051565b81511580156121e357506001600160a01b0384163b155b1561220c57604051639996b31560e01b81526001600160a01b0385166004820152602401610ae5565b5092915050565b8051156122235780518082602001fd5b604051630a12f52160e11b815260040160405180910390fd5b6001600160a01b03811681146110bd57600080fd5b60006020828403121561226357600080fd5b81356110518161223c565b6000806040838503121561228157600080fd5b8235915060208301356122938161223c565b809150509250929050565b803563ffffffff811681146122b257600080fd5b919050565b6000602082840312156122c957600080fd5b6110518261229e565b600080604083850312156122e557600080fd5b6122ee8361229e565b915060208301356122938161223c565b634e487b7160e01b600052604160045260246000fd5b6040805190810167ffffffffffffffff81118282101715612337576123376122fe565b60405290565b604051601f8201601f1916810167ffffffffffffffff81118282101715612366576123666122fe565b604052919050565b600067ffffffffffffffff821115612388576123886122fe565b50601f01601f191660200190565b600080604083850312156123a957600080fd5b82356123b48161223c565b9150602083013567ffffffffffffffff8111156123d057600080fd5b8301601f810185136123e157600080fd5b80356123f46123ef8261236e565b61233d565b81815286602083850101111561240957600080fd5b816020840160208301376000602083830101528093505050509250929050565b60006020828403121561243b57600080fd5b5035919050565b60ff811681146110bd57600080fd5b80356001600160801b03811681146122b257600080fd5b60008060006060848603121561247d57600080fd5b833561248881612442565b925061249660208501612451565b91506124a460408501612451565b90509250925092565b6000602082840312156124bf57600080fd5b81356008811061105157600080fd5b80151581146110bd57600080fd5b600080604083850312156124ef57600080fd5b82356124fa8161223c565b91506020830135612293816124ce565b6000806040838503121561251d57600080fd5b8235915061252d6020840161229e565b90509250929050565b60005b83811015612551578181015183820152602001612539565b50506000910152565b60008151808452612572816020860160208601612536565b601f01601f19169290920160200192915050565b602081526000611051602083018461255a565b60008083601f8401126125ab57600080fd5b50813567ffffffffffffffff8111156125c357600080fd5b6020830191508360208285010111156125db57600080fd5b9250929050565b6000806000806000606086880312156125fa57600080fd5b6126038661229e565b9450602086013567ffffffffffffffff8082111561262057600080fd5b61262c89838a01612599565b9096509450604088013591508082111561264557600080fd5b5061265288828901612599565b969995985093965092949392505050565b600080600080600080600060a0888a03121561267e57600080fd5b87356126898161223c565b965060208801359550604088013567ffffffffffffffff808211156126ad57600080fd5b6126b98b838c01612599565b909750955060608a013591506126ce8261223c565b909350608089013590808211156126e457600080fd5b506126f18a828b01612599565b989b979a50959850939692959293505050565b60008060006060848603121561271957600080fd5b6127228461229e565b925060208401356127328161223c565b91506040840135612742816124ce565b809150509250925092565b60008060006060848603121561276257600080fd5b8335925060208401356127748161223c565b929592945050506040919091013590565b634e487b7160e01b600052602160045260246000fd5b60208082526030908201527f4343545048616e646c65723a204f6e6c79206261636b656e642063616e20636160408201526f3636103a3434b990333ab731ba34b7b760811b606082015260800190565b634e487b7160e01b600052601160045260246000fd5b81810381811115610cd057610cd06127eb565b60006020828403121561282657600080fd5b5051919050565b60006020828403121561283f57600080fd5b815161105181612442565b600181815b8085111561288557816000190482111561286b5761286b6127eb565b8085161561287857918102915b93841c939080029061284f565b509250929050565b60008261289c57506001610cd0565b816128a957506000610cd0565b81600181146128bf57600281146128c9576128e5565b6001915050610cd0565b60ff8411156128da576128da6127eb565b50506001821b610cd0565b5060208310610133831016604e8410600b8410161715612908575081810a610cd0565b612912838361284a565b8060001904821115612926576129266127eb565b029392505050565b600061105160ff84168361288d565b8082028115828204841417610cd057610cd06127eb565b60008261297157634e487b7160e01b600052601260045260246000fd5b500490565b80820180821115610cd057610cd06127eb565b6000808585111561299957600080fd5b838611156129a657600080fd5b5050820193919092039150565b6001600160e01b031981358181169160048510156129db5780818660040360031b1b83161692505b505092915050565b80356020831015610cd057600019602084900360031b1b1692915050565b600060208284031215612a1357600080fd5b81516110518161223c565b60006020808385031215612a3157600080fd5b825167ffffffffffffffff80821115612a4957600080fd5b9084019060408287031215612a5d57600080fd5b612a65612314565b8251612a7081612442565b81528284015182811115612a8357600080fd5b80840193505086601f840112612a9857600080fd5b82519150612aa86123ef8361236e565b8281528785848601011115612abc57600080fd5b612acb83868301878701612536565b938101939093525090949350505050565b60008060408385031215612aef57600080fd5b8251612afa8161223c565b6020939093015192949293505050565b6020815260ff825116602082015260006020830151604080840152612b32606084018261255a565b949350505050565b63ffffffff81511682526020810151602083015260408101516040830152606081015160608301526000608082015160e06080850152612b7d60e085018261255a565b905060a083015184820360a0860152612b96828261255a565b91505060c083015184820360c086015261218f828261255a565b604081526000612bc36040830185612b3a565b905082151560208301529392505050565b600060408284031215612be657600080fd5b612bee612314565b9050815181526020820151602082015292915050565b600060408284031215612c1657600080fd5b6110518383612bd4565b608081526000612c336080830186612b3a565b8451602084810191909152909401516040830152506001600160a01b0391909116606090910152919050565b60008082840360c0811215612c7357600080fd5b6080811215612c8157600080fd5b506040516060810167ffffffffffffffff8282108183111715612ca657612ca66122fe565b8160405285518352602086015191508082168214612cc357600080fd5b506020820152612cd68560408601612bd4565b6040820152915061252d8460808501612bd4565b600060208284031215612cfc57600080fd5b8151611051816124ce565b80516020808301519190811015612d28576000198160200360031b1b821691505b50919050565b60008251612d40818460208701612536565b919091019291505056fe360894a13ba1a3210667c828492db98dca3e2076cc3735a920a3ca505d382bbccd5ed15c6e187e77e9aee88184c21f4f2182ab5827cb3b7e07fbedcd63f03300a2646970667358221220fb3765d79a75b065ec71fd9f88dcf7e5de6518f3fafcbf2e8ca83776de80c30564736f6c63430008140033",
  "linkReferences": {},
  "deployedLinkReferences": {}
}