{
  "_format": "hh-sol-artifact-1",
  "contractName": "Waiter",
  "sourceName": "contracts/stake/Waiter.sol",
  "abi": [
    {
      "inputs": [
        {
          "internalType": "address",
          "name": "target",
          "type": "address"
        }
      ],
      "name": "AddressEmptyCode",
      "type": "error"
    },
    {
      "inputs": [
        {
          "internalType": "address",
          "name": "account",
          "type": "address"
        }
      ],
      "name": "AddressInsufficientBalance",
      "type": "error"
    },
    {
      "inputs": [
        {
          "internalType": "address",
          "name": "implementation",
          "type": "address"
        }
      ],
      "name": "ERC1967InvalidImplementation",
      "type": "error"
    },
    {
      "inputs": [],
      "name": "ERC1967NonPayable",
      "type": "error"
    },
    {
      "inputs": [],
      "name": "EnforcedPause",
      "type": "error"
    },
    {
      "inputs": [],
      "name": "ExpectedPause",
      "type": "error"
    },
    {
      "inputs": [],
      "name": "FailedInnerCall",
      "type": "error"
    },
    {
      "inputs": [
        {
          "internalType": "address",
          "name": "savedEndpoint",
          "type": "address"
        },
        {
          "internalType": "address",
          "name": "realEndpoint",
          "type": "address"
        }
      ],
      "name": "InvalidEnpoint",
      "type": "error"
    },
    {
      "inputs": [],
      "name": "InvalidInitialization",
      "type": "error"
    },
    {
      "inputs": [],
      "name": "NotInitializing",
      "type": "error"
    },
    {
      "inputs": [
        {
          "internalType": "address",
          "name": "sender",
          "type": "address"
        }
      ],
      "name": "NotLocalComposeMsgSender",
      "type": "error"
    },
    {
      "inputs": [
        {
          "internalType": "uint32",
          "name": "eid",
          "type": "uint32"
        },
        {
          "internalType": "address",
          "name": "sender",
          "type": "address"
        }
      ],
      "name": "NotRemoteComposeMsgSender",
      "type": "error"
    },
    {
      "inputs": [
        {
          "internalType": "address",
          "name": "owner",
          "type": "address"
        }
      ],
      "name": "OwnableInvalidOwner",
      "type": "error"
    },
    {
      "inputs": [
        {
          "internalType": "address",
          "name": "account",
          "type": "address"
        }
      ],
      "name": "OwnableUnauthorizedAccount",
      "type": "error"
    },
    {
      "inputs": [
        {
          "internalType": "address",
          "name": "token",
          "type": "address"
        }
      ],
      "name": "SafeERC20FailedOperation",
      "type": "error"
    },
    {
      "inputs": [],
      "name": "UUPSUnauthorizedCallContext",
      "type": "error"
    },
    {
      "inputs": [
        {
          "internalType": "bytes32",
          "name": "slot",
          "type": "bytes32"
        }
      ],
      "name": "UUPSUnsupportedProxiableUUID",
      "type": "error"
    },
    {
      "anonymous": false,
      "inputs": [
        {
          "indexed": true,
          "internalType": "address",
          "name": "staker",
          "type": "address"
        },
        {
          "indexed": false,
          "internalType": "uint256",
          "name": "amount",
          "type": "uint256"
        }
      ],
      "name": "ClaimFinished",
      "type": "event"
    },
    {
      "anonymous": false,
      "inputs": [
        {
          "indexed": true,
          "internalType": "address",
          "name": "staker",
          "type": "address"
        },
        {
          "indexed": false,
          "internalType": "uint256",
          "name": "amount",
          "type": "uint256"
        }
      ],
      "name": "ClaimSent",
      "type": "event"
    },
    {
      "anonymous": false,
      "inputs": [
        {
          "indexed": true,
          "internalType": "address",
          "name": "composeMsgSender",
          "type": "address"
        },
        {
          "indexed": false,
          "internalType": "bool",
          "name": "allowed",
          "type": "bool"
        }
      ],
      "name": "ComposeMsgSenderSet",
      "type": "event"
    },
    {
      "anonymous": false,
      "inputs": [
        {
          "indexed": true,
          "internalType": "uint256",
          "name": "chainId",
          "type": "uint256"
        },
        {
          "indexed": false,
          "internalType": "uint32",
          "name": "eid",
          "type": "uint32"
        }
      ],
      "name": "EidSet",
      "type": "event"
    },
    {
      "anonymous": false,
      "inputs": [
        {
          "indexed": true,
          "internalType": "address",
          "name": "endpoint",
          "type": "address"
        }
      ],
      "name": "EndpointSet",
      "type": "event"
    },
    {
      "anonymous": false,
      "inputs": [
        {
          "indexed": false,
          "internalType": "uint64",
          "name": "version",
          "type": "uint64"
        }
      ],
      "name": "Initialized",
      "type": "event"
    },
    {
      "anonymous": false,
      "inputs": [
        {
          "indexed": true,
          "internalType": "address",
          "name": "oft",
          "type": "address"
        }
      ],
      "name": "OftSet",
      "type": "event"
    },
    {
      "anonymous": false,
      "inputs": [
        {
          "indexed": true,
          "internalType": "address",
          "name": "previousOwner",
          "type": "address"
        },
        {
          "indexed": true,
          "internalType": "address",
          "name": "newOwner",
          "type": "address"
        }
      ],
      "name": "OwnershipTransferred",
      "type": "event"
    },
    {
      "anonymous": false,
      "inputs": [
        {
          "indexed": false,
          "internalType": "address",
          "name": "account",
          "type": "address"
        }
      ],
      "name": "Paused",
      "type": "event"
    },
    {
      "anonymous": false,
      "inputs": [
        {
          "indexed": true,
          "internalType": "address",
          "name": "staker",
          "type": "address"
        },
        {
          "indexed": false,
          "internalType": "uint256",
          "name": "amount",
          "type": "uint256"
        }
      ],
      "name": "StakeSent",
      "type": "event"
    },
    {
      "anonymous": false,
      "inputs": [
        {
          "indexed": false,
          "internalType": "address",
          "name": "account",
          "type": "address"
        }
      ],
      "name": "Unpaused",
      "type": "event"
    },
    {
      "anonymous": false,
      "inputs": [
        {
          "indexed": true,
          "internalType": "address",
          "name": "staker",
          "type": "address"
        }
      ],
      "name": "UnstakeSent",
      "type": "event"
    },
    {
      "anonymous": false,
      "inputs": [
        {
          "indexed": true,
          "internalType": "address",
          "name": "implementation",
          "type": "address"
        }
      ],
      "name": "Upgraded",
      "type": "event"
    },
    {
      "anonymous": false,
      "inputs": [
        {
          "indexed": true,
          "internalType": "address",
          "name": "staker",
          "type": "address"
        },
        {
          "indexed": false,
          "internalType": "uint256",
          "name": "amount",
          "type": "uint256"
        }
      ],
      "name": "WithdrawFinished",
      "type": "event"
    },
    {
      "anonymous": false,
      "inputs": [
        {
          "indexed": true,
          "internalType": "address",
          "name": "staker",
          "type": "address"
        }
      ],
      "name": "WithdrawSent",
      "type": "event"
    },
    {
      "stateMutability": "payable",
      "type": "fallback"
    },
    {
      "inputs": [],
      "name": "UPGRADE_INTERFACE_VERSION",
      "outputs": [
        {
          "internalType": "string",
          "name": "",
          "type": "string"
        }
      ],
      "stateMutability": "view",
      "type": "function"
    },
    {
      "inputs": [],
      "name": "backend",
      "outputs": [
        {
          "internalType": "address",
          "name": "",
          "type": "address"
        }
      ],
      "stateMutability": "view",
      "type": "function"
    },
    {
      "inputs": [
        {
          "internalType": "uint256",
          "name": "",
          "type": "uint256"
        }
      ],
      "name": "chainId2Eid",
      "outputs": [
        {
          "internalType": "uint32",
          "name": "",
          "type": "uint32"
        }
      ],
      "stateMutability": "view",
      "type": "function"
    },
    {
      "inputs": [],
      "name": "chef",
      "outputs": [
        {
          "internalType": "address",
          "name": "",
          "type": "address"
        }
      ],
      "stateMutability": "view",
      "type": "function"
    },
    {
      "inputs": [],
      "name": "claim",
      "outputs": [],
      "stateMutability": "payable",
      "type": "function"
    },
    {
      "inputs": [
        {
          "internalType": "uint32",
          "name": "",
          "type": "uint32"
        }
      ],
      "name": "eid2ChainId",
      "outputs": [
        {
          "internalType": "uint256",
          "name": "",
          "type": "uint256"
        }
      ],
      "stateMutability": "view",
      "type": "function"
    },
    {
      "inputs": [],
      "name": "hubChainId",
      "outputs": [
        {
          "internalType": "uint256",
          "name": "",
          "type": "uint256"
        }
      ],
      "stateMutability": "view",
      "type": "function"
    },
    {
      "inputs": [
        {
          "internalType": "address",
          "name": "_owner",
          "type": "address"
        }
      ],
      "name": "initialize",
      "outputs": [],
      "stateMutability": "nonpayable",
      "type": "function"
    },
    {
      "inputs": [
        {
          "internalType": "address",
          "name": "",
          "type": "address"
        }
      ],
      "name": "localComposeMsgSender",
      "outputs": [
        {
          "internalType": "bool",
          "name": "",
          "type": "bool"
        }
      ],
      "stateMutability": "view",
      "type": "function"
    },
    {
      "inputs": [
        {
          "internalType": "address",
          "name": "_from",
          "type": "address"
        },
        {
          "internalType": "bytes32",
          "name": "",
          "type": "bytes32"
        },
        {
          "internalType": "bytes",
          "name": "_message",
          "type": "bytes"
        },
        {
          "internalType": "address",
          "name": "",
          "type": "address"
        },
        {
          "internalType": "bytes",
          "name": "",
          "type": "bytes"
        }
      ],
      "name": "lzCompose",
      "outputs": [],
      "stateMutability": "payable",
      "type": "function"
    },
    {
      "inputs": [
        {
          "internalType": "enum LzMessageLib.PayloadTypes",
          "name": "",
          "type": "uint8"
        }
      ],
      "name": "lzOptions",
      "outputs": [
        {
          "internalType": "uint128",
          "name": "gas",
          "type": "uint128"
        },
        {
          "internalType": "uint128",
          "name": "value",
          "type": "uint128"
        }
      ],
      "stateMutability": "view",
      "type": "function"
    },
    {
      "inputs": [],
      "name": "oft",
      "outputs": [
        {
          "internalType": "address",
          "name": "",
          "type": "address"
        }
      ],
      "stateMutability": "view",
      "type": "function"
    },
    {
      "inputs": [],
      "name": "owner",
      "outputs": [
        {
          "internalType": "address",
          "name": "",
          "type": "address"
        }
      ],
      "stateMutability": "view",
      "type": "function"
    },
    {
      "inputs": [],
      "name": "pause",
      "outputs": [],
      "stateMutability": "nonpayable",
      "type": "function"
    },
    {
      "inputs": [],
      "name": "paused",
      "outputs": [
        {
          "internalType": "bool",
          "name": "",
          "type": "bool"
        }
      ],
      "stateMutability": "view",
      "type": "function"
    },
    {
      "inputs": [],
      "name": "proxiableUUID",
      "outputs": [
        {
          "internalType": "bytes32",
          "name": "",
          "type": "bytes32"
        }
      ],
      "stateMutability": "view",
      "type": "function"
    },
    {
      "inputs": [
        {
          "internalType": "address",
          "name": "_claimer",
          "type": "address"
        }
      ],
      "name": "quoteClaim",
      "outputs": [
        {
          "internalType": "uint256",
          "name": "",
          "type": "uint256"
        }
      ],
      "stateMutability": "view",
      "type": "function"
    },
    {
      "inputs": [
        {
          "internalType": "address",
          "name": "_staker",
          "type": "address"
        },
        {
          "internalType": "uint256",
          "name": "_amount",
          "type": "uint256"
        }
      ],
      "name": "quoteStake",
      "outputs": [
        {
          "internalType": "uint256",
          "name": "",
          "type": "uint256"
        }
      ],
      "stateMutability": "view",
      "type": "function"
    },
    {
      "inputs": [
        {
          "internalType": "address",
          "name": "_unstaker",
          "type": "address"
        }
      ],
      "name": "quoteUnstake",
      "outputs": [
        {
          "internalType": "uint256",
          "name": "",
          "type": "uint256"
        }
      ],
      "stateMutability": "view",
      "type": "function"
    },
    {
      "inputs": [
        {
          "internalType": "address",
          "name": "_withdrawer",
          "type": "address"
        }
      ],
      "name": "quoteWithdraw",
      "outputs": [
        {
          "internalType": "uint256",
          "name": "",
          "type": "uint256"
        }
      ],
      "stateMutability": "view",
      "type": "function"
    },
    {
      "inputs": [
        {
          "internalType": "uint32",
          "name": "",
          "type": "uint32"
        },
        {
          "internalType": "address",
          "name": "",
          "type": "address"
        }
      ],
      "name": "remoteComposeMsgSender",
      "outputs": [
        {
          "internalType": "bool",
          "name": "",
          "type": "bool"
        }
      ],
      "stateMutability": "view",
      "type": "function"
    },
    {
      "inputs": [],
      "name": "renounceOwnership",
      "outputs": [],
      "stateMutability": "nonpayable",
      "type": "function"
    },
    {
      "inputs": [
        {
          "internalType": "address",
          "name": "_backend",
          "type": "address"
        }
      ],
      "name": "setBackend",
      "outputs": [],
      "stateMutability": "nonpayable",
      "type": "function"
    },
    {
      "inputs": [
        {
          "internalType": "address",
          "name": "_chef",
          "type": "address"
        }
      ],
      "name": "setChef",
      "outputs": [],
      "stateMutability": "nonpayable",
      "type": "function"
    },
    {
      "inputs": [
        {
          "internalType": "uint256",
          "name": "_chainId",
          "type": "uint256"
        },
        {
          "internalType": "uint32",
          "name": "_eid",
          "type": "uint32"
        }
      ],
      "name": "setEid",
      "outputs": [],
      "stateMutability": "nonpayable",
      "type": "function"
    },
    {
      "inputs": [
        {
          "internalType": "uint256",
          "name": "_hubChainId",
          "type": "uint256"
        }
      ],
      "name": "setHubChainId",
      "outputs": [],
      "stateMutability": "nonpayable",
      "type": "function"
    },
    {
      "inputs": [
        {
          "internalType": "address",
          "name": "_addr",
          "type": "address"
        },
        {
          "internalType": "bool",
          "name": "_allowed",
          "type": "bool"
        }
      ],
      "name": "setLocalComposeMsgSender",
      "outputs": [],
      "stateMutability": "nonpayable",
      "type": "function"
    },
    {
      "inputs": [
        {
          "internalType": "address",
          "name": "_oft",
          "type": "address"
        }
      ],
      "name": "setOft",
      "outputs": [],
      "stateMutability": "nonpayable",
      "type": "function"
    },
    {
      "inputs": [
        {
          "internalType": "uint8",
          "name": "_payloadType",
          "type": "uint8"
        },
        {
          "internalType": "uint128",
          "name": "_gas",
          "type": "uint128"
        },
        {
          "internalType": "uint128",
          "name": "_value",
          "type": "uint128"
        }
      ],
      "name": "setPayloadOptions",
      "outputs": [],
      "stateMutability": "nonpayable",
      "type": "function"
    },
    {
      "inputs": [
        {
          "internalType": "uint32",
          "name": "_eid",
          "type": "uint32"
        },
        {
          "internalType": "address",
          "name": "_addr",
          "type": "address"
        },
        {
          "internalType": "bool",
          "name": "_allowed",
          "type": "bool"
        }
      ],
      "name": "setRemoteComposeMsgSender",
      "outputs": [],
      "stateMutability": "nonpayable",
      "type": "function"
    },
    {
      "inputs": [
        {
          "internalType": "uint256",
          "name": "_amount",
          "type": "uint256"
        }
      ],
      "name": "stake",
      "outputs": [],
      "stateMutability": "payable",
      "type": "function"
    },
    {
      "inputs": [
        {
          "internalType": "address",
          "name": "newOwner",
          "type": "address"
        }
      ],
      "name": "transferOwnership",
      "outputs": [],
      "stateMutability": "nonpayable",
      "type": "function"
    },
    {
      "inputs": [],
      "name": "unpause",
      "outputs": [],
      "stateMutability": "nonpayable",
      "type": "function"
    },
    {
      "inputs": [],
      "name": "unstake",
      "outputs": [],
      "stateMutability": "payable",
      "type": "function"
    },
    {
      "inputs": [
        {
          "internalType": "address",
          "name": "newImplementation",
          "type": "address"
        },
        {
          "internalType": "bytes",
          "name": "data",
          "type": "bytes"
        }
      ],
      "name": "upgradeToAndCall",
      "outputs": [],
      "stateMutability": "payable",
      "type": "function"
    },
    {
      "inputs": [],
      "name": "withdraw",
      "outputs": [],
      "stateMutability": "payable",
      "type": "function"
    },
    {
      "stateMutability": "payable",
      "type": "receive"
    }
  ],
  "bytecode": "0x60a06040523060805234801561001457600080fd5b5060805161262961003e6000396000818161118e015281816111b701526112fd01526126296000f3fe6080604052600436106101fb5760003560e01c80637a7f2bb81161010c578063ad3cb1cc1161009a578063da7fc24f1161006c578063da7fc24f1461065b578063dc9e80a41461067b578063f29e8d2c1461069b578063f2fde38b146106bb578063fe8e9c1f146106db57005b8063ad3cb1cc146105bd578063b223331c146105fb578063c4d66de814610628578063d0a102601461064857005b8063929f5840116100de578063929f58401461053457806395b410e41461054a5780639b5215f61461056a578063a694fc3a1461058a578063a9401ba51461059d57005b80637a7f2bb8146104615780638456cb59146104815780638da5cb5b14610496578063904b25eb146104d357005b80633f4ba83a1161018957806352d1902d1161015b57806352d1902d146103aa57806357456537146103bf57806358851ca1146103df5780635c975abb14610427578063715018a61461044c57005b80633f4ba83a1461035a5780634e04efb71461036f5780634e71d92d1461038f5780634f1ef2861461039757005b8063150b7ba2116101cd578063150b7ba2146102cf5780631fc8bc5d146102ef5780632def66201461030f57806332c35254146103175780633ccfd60b1461035257005b806304a89e5714610204578063099e4133146102245780630b0712ee146102615780630cff4e061461028f57005b3661020257005b005b34801561021057600080fd5b5061020261021f366004611d70565b6106fb565b34801561023057600080fd5b50603154610244906001600160a01b031681565b6040516001600160a01b0390911681526020015b60405180910390f35b34801561026d57600080fd5b5061028161027c366004611d70565b610725565b604051908152602001610258565b34801561029b57600080fd5b506102bf6102aa366004611d70565b60006020819052908152604090205460ff1681565b6040519015158152602001610258565b3480156102db57600080fd5b506102816102ea366004611d70565b610756565b3480156102fb57600080fd5b50603354610244906001600160a01b031681565b610202610770565b34801561032357600080fd5b506102bf610332366004611da6565b600160209081526000928352604080842090915290825290205460ff1681565b61020261079a565b34801561036657600080fd5b506102026107b3565b34801561037b57600080fd5b5061028161038a366004611d70565b6107c5565b6102026107df565b6102026103a5366004611e75565b6107f8565b3480156103b657600080fd5b50610281610813565b3480156103cb57600080fd5b506102816103da366004611f08565b610830565b3480156103eb57600080fd5b506104126103fa366004611f34565b60026020526000908152604090205463ffffffff1681565b60405163ffffffff9091168152602001610258565b34801561043357600080fd5b506000805160206125d48339815191525460ff166102bf565b34801561045857600080fd5b50610202610880565b34801561046d57600080fd5b5061020261047c366004611f73565b610892565b34801561048d57600080fd5b50610202610932565b3480156104a257600080fd5b507f9016d09d72d40fdae2fd8ceac6b6234c7706214fd39c1cd1e609a0528c199300546001600160a01b0316610244565b3480156104df57600080fd5b506105146104ee366004611fb8565b6004602052600090815260409020546001600160801b0380821691600160801b90041682565b604080516001600160801b03938416815292909116602083015201610258565b34801561054057600080fd5b5061028160325481565b34801561055657600080fd5b50610202610565366004611fe7565b610942565b34801561057657600080fd5b50600554610244906001600160a01b031681565b610202610598366004611f34565b610975565b3480156105a957600080fd5b506102026105b8366004611f34565b610a44565b3480156105c957600080fd5b506105ee604051806040016040528060058152602001640352e302e360dc1b81525081565b6040516102589190612065565b34801561060757600080fd5b50610281610616366004612078565b60036020526000908152604090205481565b34801561063457600080fd5b50610202610643366004611d70565b610a51565b6102026106563660046120dc565b610b71565b34801561066757600080fd5b50610202610676366004611d70565b610c50565b34801561068757600080fd5b5061020261069636600461217d565b610c7a565b3480156106a757600080fd5b506102026106b6366004611d70565b610cbf565b3480156106c757600080fd5b506102026106d6366004611d70565b610ce9565b3480156106e757600080fd5b506102026106f63660046121c6565b610d27565b610703610d62565b603380546001600160a01b0319166001600160a01b0392909216919091179055565b60008061073183610dbd565b9050600061074160025b83610dea565b905061074e816000610e2a565b949350505050565b60008061076283610dbd565b90506000610741600361073b565b600061077b33610dbd565b90506000610789600261073b565b9050610796816000610f41565b5050565b60006107a533610dbd565b90506000610789600361073b565b6107bb610d62565b6107c3611123565b565b6000806107d183610dbd565b90506000610741600561073b565b60006107ea33610dbd565b90506000610789600561073b565b610800611183565b61080982611228565b6107968282611230565b600061081d6112f2565b506000805160206125b483398151915290565b604080516001600160a01b038416602082015280820183905281518082038301815260609091019091526000906000610869600161073b565b90506108758185610e2a565b925050505b92915050565b610888610d62565b6107c3600061133b565b61089a610d62565b6040518060400160405280836001600160801b03168152602001826001600160801b0316815250600460008560ff1660078111156108da576108da6121f2565b60078111156108eb576108eb6121f2565b60078111156108fc576108fc6121f2565b8152602080820192909252604001600020825192909101516001600160801b03908116600160801b029216919091179055505050565b61093a610d62565b6107c36113ac565b61094a610d62565b6001600160a01b03919091166000908152602081905260409020805460ff1916911515919091179055565b60055460408051637e062a3560e11b815290516000926001600160a01b03169163fc0c546a9160048083019260209291908290030181865afa1580156109bf573d6000803e3d6000fd5b505050506040513d601f19601f820116820180604052508101906109e39190612208565b90506109f08133846113f5565b610a056001600160a01b0382163330856115a9565b6040805133602082015280820184905281518082038301815260609091019091526000610a32600161073b565b9050610a3e8185610f41565b50505050565b610a4c610d62565b603255565b7ff0c57e16840df040f15088dc2f81fe391c3923bec73e23a9662efc9c229c6a008054600160401b810460ff16159067ffffffffffffffff16600081158015610a975750825b905060008267ffffffffffffffff166001148015610ab45750303b155b905081158015610ac2575080155b15610ae05760405163f92ee8a960e01b815260040160405180910390fd5b845467ffffffffffffffff191660011785558315610b0a57845460ff60401b1916600160401b1785555b610b12611610565b610b1b86611618565b610b23611629565b8315610b6957845460ff60401b19168555604051600181527fc7f505b2f371ae2175ee4913f4499e1f2633a7b5936321eed1cdaeb6115181d29060200160405180910390a15b505050505050565b6000610b7d8686611639565b90506000610b8b8787611684565b90506000610b9f610b9c89896116a7565b90565b9050610bad338b84846116c7565b506000610bb984611839565b9050600460ff16816000015160ff1603610bf6576000610bdc8260200151611862565b9050610bf0816000015182602001516118b1565b50610c43565b60405162461bcd60e51b815260206004820152601c60248201527f5761697465723a20496e76616c6964207061796c6f616420747970650000000060448201526064015b60405180910390fd5b5050505050505050505050565b610c58610d62565b603180546001600160a01b0319166001600160a01b0392909216919091179055565b610c82610d62565b63ffffffff90921660009081526001602090815260408083206001600160a01b03909416835292905220805491151560ff19909216919091179055565b610cc7610d62565b600580546001600160a01b0319166001600160a01b0392909216919091179055565b610cf1610d62565b6001600160a01b038116610d1b57604051631e4fbdf760e01b815260006004820152602401610c3a565b610d248161133b565b50565b610d2f610d62565b6000828152600260209081526040808320805463ffffffff90951663ffffffff1990951685179055928252600390522055565b33610d947f9016d09d72d40fdae2fd8ceac6b6234c7706214fd39c1cd1e609a0528c199300546001600160a01b031690565b6001600160a01b0316146107c35760405163118cdaa760e01b8152336004820152602401610c3a565b604080516001600160a01b0383166020820152606091016040516020818303038152906040529050919050565b60408051808201825260ff8416815260208082018490529151606092610e1291839101612225565b60405160208183030381529060405291505092915050565b6000806040518060e00160405280610e5660325460009081526002602052604090205463ffffffff1690565b63ffffffff1681526033546020909101906001600160a01b031681526020018481526020018481526020016040518060200160405280600081525081526020018581526020016040518060200160405280600081525081525090506000600560009054906101000a90046001600160a01b03166001600160a01b0316633b6f743b8360006040518363ffffffff1660e01b8152600401610ef79291906122c3565b6040805180830381865afa158015610f13573d6000803e3d6000fd5b505050506040513d601f19601f82011682018060405250810190610f379190612317565b5195945050505050565b610f4961197d565b60006040518060e00160405280610f7460325460009081526002602052604090205463ffffffff1690565b63ffffffff1681526033546020909101906001600160a01b031681526020018381526020018381526020016040518060200160405280600081525081526020018481526020016040518060200160405280600081525081525090506000600560009054906101000a90046001600160a01b03166001600160a01b0316633b6f743b8360006040518363ffffffff1660e01b81526004016110159291906122c3565b6040805180830381865afa158015611031573d6000803e3d6000fd5b505050506040513d601f19601f820116820180604052508101906110559190612317565b80519091503410156110a95760405162461bcd60e51b815260206004820152601b60248201527f5761697465723a20696e73756666696369656e74206c7a2066656500000000006044820152606401610c3a565b600554815160405163c7c7f5b360e01b81526001600160a01b039092169163c7c7f5b391906110e090869086903390600401612333565b60c06040518083038185885af11580156110fe573d6000803e3d6000fd5b50505050506040513d601f19601f82011682018060405250810190610b699190612372565b61112b6119ae565b6000805160206125d4833981519152805460ff191681557f5db9ee0a495bf2e6ff9c91a7834c1ba4fdd244a5e8aa4e537bd38aeae4b073aa335b6040516001600160a01b03909116815260200160405180910390a150565b306001600160a01b037f000000000000000000000000000000000000000000000000000000000000000016148061120a57507f00000000000000000000000000000000000000000000000000000000000000006001600160a01b03166111fe6000805160206125b4833981519152546001600160a01b031690565b6001600160a01b031614155b156107c35760405163703e46dd60e11b815260040160405180910390fd5b610d24610d62565b816001600160a01b03166352d1902d6040518163ffffffff1660e01b8152600401602060405180830381865afa92505050801561128a575060408051601f3d908101601f19168201909252611287918101906123fd565b60015b6112b257604051634c9c8ce360e01b81526001600160a01b0383166004820152602401610c3a565b6000805160206125b483398151915281146112e357604051632a87526960e21b815260048101829052602401610c3a565b6112ed83836119de565b505050565b306001600160a01b037f000000000000000000000000000000000000000000000000000000000000000016146107c35760405163703e46dd60e11b815260040160405180910390fd5b7f9016d09d72d40fdae2fd8ceac6b6234c7706214fd39c1cd1e609a0528c19930080546001600160a01b031981166001600160a01b03848116918217845560405192169182907f8be0079c531659141344cd1fd0a4f28419497f9722a3daafe3b4186f6b6457e090600090a3505050565b6113b461197d565b6000805160206125d4833981519152805460ff191660011781557f62e78cea01bee320cd4e420270b5ea74000d11b0c9f74754ebdbfc544b05a25833611165565b604051636eb1769f60e11b81526001600160a01b03838116600483015230602483015282919085169063dd62ed3e90604401602060405180830381865afa158015611444573d6000803e3d6000fd5b505050506040513d601f19601f8201168201806040525081019061146891906123fd565b10156114b65760405162461bcd60e51b815260206004820152601d60248201527f5761697465723a20696e73756666696369656e7420617070726f76616c0000006044820152606401610c3a565b600560009054906101000a90046001600160a01b03166001600160a01b0316639f68b9646040518163ffffffff1660e01b8152600401602060405180830381865afa158015611509573d6000803e3d6000fd5b505050506040513d601f19601f8201168201806040525081019061152d9190612416565b156112ed5760055460405163095ea7b360e01b81526001600160a01b039182166004820152602481018390529084169063095ea7b3906044016020604051808303816000875af1158015611585573d6000803e3d6000fd5b505050506040513d601f19601f82011682018060405250810190610a3e9190612416565b6040516001600160a01b038481166024830152838116604483015260648201839052610a3e9186918216906323b872dd906084015b604051602081830303815290604052915060e01b6020820180516001600160e01b038381831617835250505050611a34565b6107c3611a97565b611620611a97565b610d2481611ae0565b611631611a97565b6107c3611ae8565b606061164882604c8186612433565b8080601f016020809104026020016040519081016040528093929190818152602001838380828437600092019190915250929695505050505050565b6000611694600c60088486612433565b61169d9161245d565b60e01c9392505050565b60006116b7604c602c8486612433565b6116c09161248d565b9392505050565b600080600560009054906101000a90046001600160a01b03166001600160a01b0316635e280f116040518163ffffffff1660e01b8152600401602060405180830381865afa15801561171d573d6000803e3d6000fd5b505050506040513d601f19601f820116820180604052508101906117419190612208565b9050856001600160a01b0316816001600160a01b031614611788576040516308dfccd760e21b81526001600160a01b03808316600483015287166024820152604401610c3a565b6001600160a01b03851660009081526020819052604090205460ff166117cc5760405163078b3cc360e01b81526001600160a01b0386166004820152602401610c3a565b63ffffffff841660009081526001602090815260408083206001600160a01b038716845290915290205460ff1661182d576040516363932e8560e11b815263ffffffff851660048201526001600160a01b0384166024820152604401610c3a565b50600195945050505050565b6040805180820190915260008152606060208201528180602001905181019061087a91906124ab565b60408051808201909152600080825260208201526000808380602001905181019061188d9190612569565b604080518082019091526001600160a01b0390921682526020820152949350505050565b60055460408051637e062a3560e11b815290516000926001600160a01b03169163fc0c546a9160048083019260209291908290030181865afa1580156118fb573d6000803e3d6000fd5b505050506040513d601f19601f8201168201806040525081019061191f9190612208565b90506119356001600160a01b0382168484611b09565b826001600160a01b03167fc30674dd0fb78fbd6f76bcf2213e36dc143fad985b255420b31444f9f29f6d5c8360405161197091815260200190565b60405180910390a2505050565b6000805160206125d48339815191525460ff16156107c35760405163d93c066560e01b815260040160405180910390fd5b6000805160206125d48339815191525460ff166107c357604051638dfc202b60e01b815260040160405180910390fd5b6119e782611b3a565b6040516001600160a01b038316907fbc7cd75a20ee27fd9adebab32041f755214dbc6bffa90cc0225b39da2e5c2d3b90600090a2805115611a2c576112ed8282611b9f565b610796611c0c565b6000611a496001600160a01b03841683611c2b565b90508051600014158015611a6e575080806020019051810190611a6c9190612416565b155b156112ed57604051635274afe760e01b81526001600160a01b0384166004820152602401610c3a565b7ff0c57e16840df040f15088dc2f81fe391c3923bec73e23a9662efc9c229c6a0054600160401b900460ff166107c357604051631afcd79f60e31b815260040160405180910390fd5b610cf1611a97565b611af0611a97565b6000805160206125d4833981519152805460ff19169055565b6040516001600160a01b038381166024830152604482018390526112ed91859182169063a9059cbb906064016115de565b806001600160a01b03163b600003611b7057604051634c9c8ce360e01b81526001600160a01b0382166004820152602401610c3a565b6000805160206125b483398151915280546001600160a01b0319166001600160a01b0392909216919091179055565b6060600080846001600160a01b031684604051611bbc9190612597565b600060405180830381855af49150503d8060008114611bf7576040519150601f19603f3d011682016040523d82523d6000602084013e611bfc565b606091505b5091509150610875858383611c39565b34156107c35760405163b398979f60e01b815260040160405180910390fd5b60606116c083836000611c95565b606082611c4e57611c4982611d32565b6116c0565b8151158015611c6557506001600160a01b0384163b155b15611c8e57604051639996b31560e01b81526001600160a01b0385166004820152602401610c3a565b5092915050565b606081471015611cba5760405163cd78605960e01b8152306004820152602401610c3a565b600080856001600160a01b03168486604051611cd69190612597565b60006040518083038185875af1925050503d8060008114611d13576040519150601f19603f3d011682016040523d82523d6000602084013e611d18565b606091505b5091509150611d28868383611c39565b9695505050505050565b805115611d425780518082602001fd5b604051630a12f52160e11b815260040160405180910390fd5b6001600160a01b0381168114610d2457600080fd5b600060208284031215611d8257600080fd5b81356116c081611d5b565b803563ffffffff81168114611da157600080fd5b919050565b60008060408385031215611db957600080fd5b611dc283611d8d565b91506020830135611dd281611d5b565b809150509250929050565b634e487b7160e01b600052604160045260246000fd5b6040805190810167ffffffffffffffff81118282101715611e1657611e16611ddd565b60405290565b604051601f8201601f1916810167ffffffffffffffff81118282101715611e4557611e45611ddd565b604052919050565b600067ffffffffffffffff821115611e6757611e67611ddd565b50601f01601f191660200190565b60008060408385031215611e8857600080fd5b8235611e9381611d5b565b9150602083013567ffffffffffffffff811115611eaf57600080fd5b8301601f81018513611ec057600080fd5b8035611ed3611ece82611e4d565b611e1c565b818152866020838501011115611ee857600080fd5b816020840160208301376000602083830101528093505050509250929050565b60008060408385031215611f1b57600080fd5b8235611f2681611d5b565b946020939093013593505050565b600060208284031215611f4657600080fd5b5035919050565b60ff81168114610d2457600080fd5b80356001600160801b0381168114611da157600080fd5b600080600060608486031215611f8857600080fd5b8335611f9381611f4d565b9250611fa160208501611f5c565b9150611faf60408501611f5c565b90509250925092565b600060208284031215611fca57600080fd5b8135600881106116c057600080fd5b8015158114610d2457600080fd5b60008060408385031215611ffa57600080fd5b823561200581611d5b565b91506020830135611dd281611fd9565b60005b83811015612030578181015183820152602001612018565b50506000910152565b60008151808452612051816020860160208601612015565b601f01601f19169290920160200192915050565b6020815260006116c06020830184612039565b60006020828403121561208a57600080fd5b6116c082611d8d565b60008083601f8401126120a557600080fd5b50813567ffffffffffffffff8111156120bd57600080fd5b6020830191508360208285010111156120d557600080fd5b9250929050565b600080600080600080600060a0888a0312156120f757600080fd5b873561210281611d5b565b965060208801359550604088013567ffffffffffffffff8082111561212657600080fd5b6121328b838c01612093565b909750955060608a0135915061214782611d5b565b9093506080890135908082111561215d57600080fd5b5061216a8a828b01612093565b989b979a50959850939692959293505050565b60008060006060848603121561219257600080fd5b61219b84611d8d565b925060208401356121ab81611d5b565b915060408401356121bb81611fd9565b809150509250925092565b600080604083850312156121d957600080fd5b823591506121e960208401611d8d565b90509250929050565b634e487b7160e01b600052602160045260246000fd5b60006020828403121561221a57600080fd5b81516116c081611d5b565b6020815260ff82511660208201526000602083015160408084015261074e6060840182612039565b63ffffffff81511682526020810151602083015260408101516040830152606081015160608301526000608082015160e0608085015261229060e0850182612039565b905060a083015184820360a08601526122a98282612039565b91505060c083015184820360c08601526108758282612039565b6040815260006122d6604083018561224d565b905082151560208301529392505050565b6000604082840312156122f957600080fd5b612301611df3565b9050815181526020820151602082015292915050565b60006040828403121561232957600080fd5b6116c083836122e7565b608081526000612346608083018661224d565b8451602084810191909152909401516040830152506001600160a01b0391909116606090910152919050565b60008082840360c081121561238657600080fd5b608081121561239457600080fd5b506040516060810167ffffffffffffffff82821081831117156123b9576123b9611ddd565b81604052855183526020860151915080821682146123d657600080fd5b5060208201526123e985604086016122e7565b604082015291506121e984608085016122e7565b60006020828403121561240f57600080fd5b5051919050565b60006020828403121561242857600080fd5b81516116c081611fd9565b6000808585111561244357600080fd5b8386111561245057600080fd5b5050820193919092039150565b6001600160e01b031981358181169160048510156124855780818660040360031b1b83161692505b505092915050565b8035602083101561087a57600019602084900360031b1b1692915050565b600060208083850312156124be57600080fd5b825167ffffffffffffffff808211156124d657600080fd5b90840190604082870312156124ea57600080fd5b6124f2611df3565b82516124fd81611f4d565b8152828401518281111561251057600080fd5b80840193505086601f84011261252557600080fd5b82519150612535611ece83611e4d565b828152878584860101111561254957600080fd5b61255883868301878701612015565b938101939093525090949350505050565b6000806040838503121561257c57600080fd5b825161258781611d5b565b6020939093015192949293505050565b600082516125a9818460208701612015565b919091019291505056fe360894a13ba1a3210667c828492db98dca3e2076cc3735a920a3ca505d382bbccd5ed15c6e187e77e9aee88184c21f4f2182ab5827cb3b7e07fbedcd63f03300a2646970667358221220532120c44e0cb74dd8a7e7a6f2b353ce72e15827c817efaa5e4a113699ebc01564736f6c63430008140033",
  "linkReferences": {},
  "deployedLinkReferences": {}
}